S01500006D61696E5F6669726D776172652E73726563AE
S11300000C942C0B0C94530B0C94530B0C94530B1B
S11300100C94530B0C94530B0C94530B0C94530BE4
S11300200C94530B0C94530B0C94530B0C94530BD4
S11300300C94530B0C94530B0C9491140C94530B7D
S11300400C94530B0C94530B0C94D9140C940F155F
S11300500C94530B0C94530B0C94530B0C94530BA4
S11300600C94530B0C94530B2E2E2F2E2E2F636FA8
S11300706D6D6F6E5F6C6962726172792F636F6D03
S11300806D6F6E2E63006269745F696E64657820BB
S11300903C2038003C494E464F3E202573282920F9
S11300A0436F6E66696775726174696F6E206C6FF9
S11300B0616465640D0A002E2E2F2E2E2F636F6D42
S11300C06D6F6E5F6C6962726172792F436F6E66D9
S11300D069672E6300434F4E4649475F5645525366
S11300E0494F4E203D3D20656570726F6D5F7265AE
S11300F061645F776F726428266E766D5F636F6EDE
S11301006669672E76657273696F6E29002E2E2FCD
S11301102E2E2F636F6D6D6F6E5F6C6962726172EC
S1130120792F6C69624144432E6300696E6465787B
S1130130203C204D41585F4144435F494E50555443
S113014053002E2E2F2E2E2F636F6D6D6F6E5F6CEE
S11301506962726172792F6C69624144432E630053
S1130160696E646578203C204D41585F4144435F8B
S1130170494E50555453003C5741524E494E473E08
S1130180202573282920556E6B6E6F776E2053746B
S11301906174650D0A003C494E464F3E2025732884
S11301A02920496E697420646F6E650D0A003C490C
S11301B04E464F3E202573282920496E69742064D9
S11301C06F6E650D0A002E2E2F2E2E2F636F6D6D10
S11301D06F6E5F6C6962726172792F6C69625246EC
S11301E04D36392E630061646472657373203C3D3F
S11301F0205245475F54455354414643002E2E2F09
S11302002E2E2F636F6D6D6F6E5F6C6962726172FB
S1130210792F6C696252464D36392E6300616464ED
S113022072657373203C3D205245475F54455354D7
S1130230414643002E2E2F2E2E2F636F6D6D6F6E51
S11302405F6C6962726172792F6C696252464D36D5
S1130250392E6300696D706564616E6365203C3D91
S11302602052464D5F4C4E415F5A494E5F3230300A
S11302704F484D002E2E2F2E2E2F636F6D6D6F6EF7
S11302805F6C6962726172792F6C696252464D3695
S1130290392E63006761696E203C3D2052464D5FF4
S11302A04C4E415F4741494E5F4736002E2E2F2E5C
S11302B02E2F636F6D6D6F6E5F6C69627261727900
S11302C02F6C696252464D36392E63006672657131
S11302D075656E6379203C3D2052464D5F434C4B1F
S11302E04F55545F4F4646003C4552524F523E20B4
S11302F02573282920496E76616C69642073796EB0
S11303006320776F72642076616C75653A2030786B
S113031030300D0A003C4552524F523E202573287E
S11303202920496E76616C69642073796E63207745
S11303306F7264206C656E6774683A2025750D0AC7
S1130340002E2E2F2E2E2F636F6D6D6F6E5F6C69D6
S113035062726172792F6C696252464D36392E632E
S11303600073697A65203E20302026262073697A3E
S113037065203C3D204D41585F53594E435F574FD4
S113038052445F53495A45003C5741524E494E47E7
S11303903E2025732829204F4350206D7573742007
S11303A062652064697361626C6564207768696C56
S11303B06520696E206869676820706F77657220B0
S11303C06D6F64650D0A002E2E2F2E2E2F636F6D18
S11303D06D6F6E5F6C6962726172792F6C696252C3
S11303E0464D36392E6300706F7765725F6C6576A3
S11303F0656C203C3D20333100506F77657220617D
S11304006D706C6966696572206D6F64653A203041
S113041078253032580D0A002E2E2F2E2E2F636F82
S11304206D6D6F6E5F6C6962726172792F6C696257
S113043052464D36392E63006D6F6465203E203080
S1130440783031202626206D6F6465203C2030787A
S11304503035004672657120646576696174696F30
S11304606E2076616C75653A203078253034580DED
S11304700A004672657120646576696174696F6EFD
S11304803A2025750D0A002E2E2F2E2E2F636F6D08
S11304906D6F6E5F6C6962726172792F6C69625202
S11304A0464D36392E63006672657175656E6379E3
S11304B05F646576696174696F6E203E2036303002
S11304C0004D6F64756C6174696F6E207368617040
S11304D0696E673A203078253032580D0A002E2E86
S11304E02F2E2E2F636F6D6D6F6E5F6C696272615C
S11304F072792F6C696252464D36392E63006D6FE6
S113050064756C6174696F6E5F73686170696E673E
S1130510203C2030783034002E2E2F2E2E2F636F67
S11305206D6D6F6E5F6C6962726172792F6C696256
S113053052464D36392E63006D6F64756C61746973
S11305406F6E5F74797065203D3D2052464D5F4665
S1130550534B207C7C206D6F64756C6174696F6E85
S11305605F74797065203D3D2052464D5F4F4F4B7F
S1130570002E2E2F2E2E2F636F6D6D6F6E5F6C69A4
S113058062726172792F6C696252464D36392E63FC
S11305900066696C746572696E67203C203300469E
S11305A07265712076616C75653A20307825303338
S11305B06C580D0A00467265713A20256C750D0A57
S11305C0003C4552524F523E20257328292054693D
S11305D06D656F7574210D0A003C494E464F3E20EF
S11305E02573282920436C656172204649464F0DC6
S11305F00A003C4552524F523E202573282920467A
S113060049464F2069732066756C6C0D0A002E2EC6
S11306102F2E2E2F636F6D6D6F6E5F6C696272612A
S113062072792F6C696252464D36392E63006C65BF
S11306306E677468203C3D2052464D5F4649464FE4
S11306405F53495A45003C5741524E494E473E205C
S11306502573282920496E76616C696420535049BA
S11306602D6D6F64650D0A003C4552524F523E2079
S113067025732829204661696C656420746F20699C
S11306806E6974205350492C20696E76616C6964DC
S1130690206D6F64653A2025750D0A003C494E466D
S11306A04F3E202573282920496E697420646F6E9B
S11306B0650D0A002E2E2F2E2E2F636F6D6D6F6E1B
S11306C05F6C6962726172792F5254432E630074B5
S11306D0696D6520213D204E554C4C002E2E2F2E49
S11306E02E2F636F6D6D6F6E5F6C696272617279CC
S11306F02F5254432E630074696D652D3E796561F4
S113070072203C20313030002E2E2F2E2E2F636F7E
S11307106D6D6F6E5F6C6962726172792F525443B2
S11307202E630074696D6520213D204E554C4C00AC
S11307302E2E2F2E2E2F636F6D6D6F6E5F6C696280
S1130740726172792F5254432E630074696D65206F
S1130750213D204E554C4C002E2E2F2E2E2F636FF4
S11307606D6D6F6E5F6C6962726172792F52544362
S11307702E63006361727279203C2032002E2E2F8A
S11307802E2E2F636F6D6D6F6E5F6C696272617276
S1130790792F5254432E630074696D6520213D20E6
S11307A04E554C4C002E2E2F2E2E2F636F6D6D6FD9
S11307B06E5F6C6962726172792F5254432E6300CA
S11307C074696D6520213D204E554C4C002E2E2F12
S11307D02E2E2F636F6D6D6F6E5F6C696272617226
S11307E0792F5254432E630074696D6520213D2096
S11307F04E554C4C002E2E2F2E2E2F636F6D6D6F89
S11308006E5F6C6962726172792F5254432E630079
S11308107765656B5F646179203C3D2037002E2E3F
S11308202F2E2E2F636F6D6D6F6E5F6C6962726118
S113083072792F5254432E630074696D6520213DF3
S1130840204E554C4C002E2E2F2E2E2F636F6D6D87
S11308506F6E5F6C6962726172792F5254432E63BA
S11308600074696D6520213D204E554C4C002E2EA0
S11308702F2E2E2F636F6D6D6F6E5F6C69627261C8
S113088072792F5254432E630074696D65737461D9
S11308906D7020213D204E554C4C002E2E2F2E2EB7
S11308A02F636F6D6D6F6E5F6C6962726172792F09
S11308B05472616E736365697665722E630070614C
S11308C0636B65745F74797065203C2054525F508B
S11308D041434B45545F4E525F5459504553002E8B
S11308E02E2F2E2E2F636F6D6D6F6E5F6C6962728B
S11308F06172792F5472616E736365697665722EC5
S1130900630073635F6173736572745F6661696CBE
S1130910004E6F2041434B206E65656465640D0A8B
S11309200057616974696E6720666F722041434B9A
S11309300D0A005061636B65742073656E740D0A53
S1130940004649464F206E6F7420656D707479209F
S1130950313A2025750D0A00545820726561647976
S11309603A2025750D0A0057726974652070616319
S11309706B657420746F204649464F0D0A00464942
S1130980464F206E6F7420656D70747920303A2064
S113099025750D0A0025750D0A0025752C003230C9
S11309A0253032752D253032752D253032752025B0
S11309B03032753A253032753A253032752C00259F
S11309C0752C0025642C0025752C0025752C00251C
S11309D0752C003C50434B3E003C494E464F3E2054
S11309E025732829204E6F207061636B657420681D
S11309F0616E646C657220666F72207061636B65F2
S1130A007420747970652025750D0A003C45525296
S1130A104F523E20257328292053697A65206F663A
S1130A202064617461207061636B65742069732054
S1130A306C6172676572207468656E2074686520E5
S1130A404649464F0D0A002E2E2F2E2E2F636F6D12
S1130A506D6F6E5F6C6962726172792F5472616E30
S1130A60736365697665722E630073635F61737384
S1130A706572745F6661696C0041434B206D6F64FD
S1130A80652072656164790D0A00496E6974206C91
S1130A90697374656E3A207265737461727420525E
S1130AA0580D0A003C494E464F3E20257328292004
S1130AB053656E64696E67207061636B657420664C
S1130AC0726F6D206275666665720D0A002E2E2F98
S1130AD02E2E2F636F6D6D6F6E5F6C696272617223
S1130AE0792F5472616E736365697665722E630043
S1130AF073635F6173736572745F6661696C003CF4
S1130B005741524E494E473E20257328292054729E
S1130B10616E73636569766572206E6F7420696EA9
S1130B20697469616C697A65640D0A003C494E46D2
S1130B304F3E2025732829205472616E73636569C2
S1130B4076657220696E697469617465640D0A0062
S1130B503C2F4C4F473E0D0A0025752C256C750D16
S1130B600A0025752C256C752C25752C003C2F4C02
S1130B704F473E0D0A003C4C4F473E0D0A003C4394
S1130B805249544943414C3E202573282920456E3F
S1130B90746572696E67206661696C207374617430
S1130BA0652C206D616E75616C207265626F6F7467
S1130BB0206973206E65656465642E0D0A003C45EA
S1130BC052524F523E204661696C656420617373D2
S1130BD06572743A2025733A257520282573290DEA
S1130BE00A002E2E2F2E2E2F7574696C6974792F9E
S1130BF04572726F7248616E646C65722E63006335
S1130C00757272656E745F696420213D2030002E18
S1130C102E2F2E2E2F7574696C6974792F4572727C
S1130C206F7248616E646C65722E630063757272D4
S1130C30656E745F696E646578203C204552524F3E
S1130C40525F4C4F475F53495A4500437572726572
S1130C506E74206572726F72206C6F6720696E64A7
S1130C6065783A2025750D0A003C5741524E494E8D
S1130C70473E202573282920496E76616C696420DB
S1130C80696E64696361746F7220706F73697469EB
S1130C906F6E3A2025750D0A003C494E464F3E20A2
S1130CA025732829204E6F2076616C696420646165
S1130CB074612C20636F6E746578743A2025750D09
S1130CC00A0048756D69646974793A202D00546589
S1130CD06D70657261747572653A202D0048756D8A
S1130CE069646974793A20256C692E257525250077
S1130CF054656D70657261747572653A20256C690E
S1130D002E257543002575003C494E464F3E20254F
S1130D10732829204E6F2076616C696420646174A5
S1130D20612C20636F6E746578743A2025750D0A02
S1130D3000536F757263653A202D00525353493A3C
S1130D40202D00536F757263653A20307825303258
S1130D505800525353493A202564002E2E2F6775AC
S1130D60692F6775694E6F6465732E6300766965D4
S1130D70775F696E646578202B204D41585F4E5231
S1130D805F4E4F44455F5649455753203C204D41E3
S1130D90585F4E525F4E4F44455F56494557532066
S1130DA02A203200253032753A253032750025303C
S1130DB032753A253032753A253032750032302595
S1130DC03032752D253032752D25303275003C4971
S1130DD04E464F3E202573282920496E69742064AD
S1130DE06F6E650D0A0054656D706572617475727D
S1130DF0653A202D2D0054656D70657261747572AD
S1130E00653A2025752E257543006176673A2025BD
S1130E107543006E6F773A20257543006D696E3A0D
S1130E2020257543006D61783A2025754300536190
S1130E306D706C652074696D653A20257520736545
S1130E4063004176672E20706572696F643A2025CD
S1130E5075206D696E003C494E464F3E202573282F
S1130E6029204E657720766965772061646465641E
S1130E70206173207369626C696E6720746F2072DD
S1130E806F6F740D0A003C494E464F3E202573286F
S1130E9029204E65772076696577206164646564EE
S1130EA020617320726F6F740D0A003C494E464FE7
S1130EB03E202573282920496E697420646F6E656D
S1130EC00D0A00507573680D0A004C6566740D0AAE
S1130ED00052696768740D0A003C494E464F3E2033
S1130EE02573282920496E697420646F6E650D0A84
S1130EF0002E2E2F2E2F53656E736F722E63007388
S1130F00635F6173736572745F6661696C003C4909
S1130F104E464F3E2025732829204E6F2073616D65
S1130F20706C6520666F756E642C20416464726514
S1130F3073733A203078253032582C204865616428
S1130F4065723A203078253034580D0A0D0A003C79
S1130F50494E464F3E202573282920496E69742046
S1130F60646F6E650D0A00536D6F6F7468696E6708
S1130F7020616C7068613A2025750D0A00360048BE
S1130F80005F007A009C00C200F400200156018E2C
S1130F9001C701000238026C029D02CA02F2021665
S1130FA0033503510369037D038F039E03AB03B62B
S1130FB003C003C803CF032E2E2F2E2F4E6F64655C
S1130FC0732E6300696E646578203C204D41585F40
S1130FD04E525F4E4F444553005061636B6574201D
S1130FE068616E646C65640D0A002E2E2F2E2F4EE0
S1130FF06F6465732E6300696E646578203C204DD0
S113100041585F4E525F4E4F444553002E2E2F2EB3
S11310102F4E6F6465732E63007061636B6574207B
S1131020213D204E554C4C00010000030B000616D8
S113103000052100062C00063700014200044D0083
S1131040045800056300056E000279000384000162
S11310508F00059A0005A50005B00005BB0005C674
S11310600006D10005DC0005E70005F20005FD00DF
S1131070050801011301021E0105290105340105BA
S11310803F01044A01055501066001056B0105761F
S113109001058101058C0105970105A20105AD013A
S11310A005B80105C30105CE0105D90106E4010512
S11310B0EF0105FA01050502051002051B020526CC
S11310C002053102053C02064702055202065D0292
S11310D0076802057302037E020589020394020570
S11310E09F0206AA0202B50205C00205CB0205D67C
S11310F00205E10205EC0206F702050203050D03F1
S1131100051803052303052E0305390305440305C8
S11311104F03055A03056503057003057B03058624
S113112003059103059C0307A70307B20306BD0348
S113113005C80305D30304DE0301E90304F403062D
S1131140FF030080808080808000800000A0A0A039
S11311500000000000000000001428FC2850FC508F
S1131160A000002078808060300808F0200000E4AF
S1131170A8B0F03C34549C00000030484870749887
S113118088740000808080000000000000000000DF
S1131190102040808080804020100080402010106B
S11311A010102040800020F8205050000000000063
S11311B00000002020F820200000000000000000B3
S11311C00000004040800000000000E0000000003B
S11311D00000000000000000008000000810101053
S11311E02020204040408000708888A8A88888700B
S11311F000000020E02020202020F800000070885B
S11312000810204080F8000000F008087008080862
S1131210F00000000818284888FC0808000000F8BE
S11312208080F0080808F0000000384080F08888CA
S11312308870000000F808102020204040000000C2
S1131240708888705088887000000070888888785A
S11312500810E00000000000008000000080000092
S11312600000000080000000404080000000087082
S1131270807008000000000000F80000F800000082
S113128000000000807008708000000000E0101072
S1131290206040004000000030488898A8A8A89822
S11312A04030003030484848788484000000F0889A
S11312B088F0888888F00000003840808080804072
S11312C038000000E0908888888890E0000000F8EA
S11312D08080F0808080F8000000F88080F88080B2
S11312E080800000003048808088884838000000F2
S11312F0888888F888888888000000F820202020C2
S11313002020F80000007808080808088870000009
S1131310008890A0C0A09090880000008080808009
S1131320808080F800000048C8B4B4B48484840089
S1131330000088C8C8A8A898988800000070888809
S11313408888888870000000F0888888F080808011
S11313500000007088888888888870201800F088C9
S11313608888F09088880000007880806010088861
S113137070000000F8202020202020200000008899
S113138088888888888870000000848448484828B1
S11313903030000000888888A8A8D8888800000019
S11313A08448303030484884000000824444281087
S11313B0101010000000F8081020204080F80000F1
S11313C000E08080808080808080E08040404020F9
S11313D020201010100800E02020202020202020B1
S11313E0E0002050508800000000000000000000D1
S11313F0000000000000FC8040000000000000002D
S113140000000000007008788888780000808080E0
S1131410F088888888F00000000000788080808050
S11314207800000808087888888888780000000018
S1131430007088F880807800003C4040F8404040CC
S11314404040000000000078888888887808F08090
S11314508080F088888888880000002000E02020B0
S1131460202018000000100078080808080808F078
S113147080808098A0C0A090880000E020202020D8
S1131480202020180000000000F0A8A8A8888800E8
S113149000000000F0888888888800000000007040
S11314A088888888700000000000F088888888F0A8
S11314B08080000000788888888878080800000008
S11314C0F880808080800000000000788060100830
S11314D0F00000004040F840404040380000000068
S11314E000888888888878000000000082444428A6
S11314F0281000000000008292AAAA6C4400000098
S1131500000084483030488400000000008888507F
S113151050502020C0000000F810204040F8000087
S11315203040404040804040404030808080808057
S1131530808080808080C0202020201020202020D7
S1131540C000000000006498000000003C494E46C2
S11315504F3E202573282920496E697420646F6EDC
S1131560650D0A002E2E2F2E2F6D61696E5F666940
S1131570726D776172652E6300756E757365645F55
S11315806D656D6F7279203E2030003C5741524E9C
S1131590494E473E20257328292048696768204D15
S11315A043552074656D70657261747572653A2077
S11315B025750D0A003C5741524E494E473E2025A1
S11315C0732829204C6F77206D656D6F72793A20EE
S11315D025750D0A004E6F646520726F6C653A20A4
S11315E03078253032580D0A004E6F646520494426
S11315F03A203078253032580D0A003C494E464F87
S11316003E2025732829205374617274207570203C
S1131610646F6E650D0A003C494E464F3E202573AB
S11316202829204C6173742072657365743A2030E4
S113163078253032580D0A003C494E464F3E20254D
S1131640732829204D61696E20756E697420737446
S113165061727465640D0A00EAE4F7E085EC98E0D1
S113166001C08193EF3FF907E0F3D9F311241FBEC2
S1131670CFEFD8E0DEBFCDBF13E0A0E0B1E0EEEDE8
S1131680FDE502C005900D92A830B107D9F727E017
S1131690A8E0B3E001C01D92AA34B207E1F70E94AA
S11316A0CC280C94ED2E0C940000CF92DF92EF9294
S11316B0FF92CF93DF9300D000D01F92CDB7DEB757
S11316C06B017C010E94272A69837A838B839C8324
S11316D00E945A2A9B01AC01C701B6010E945A29F3
S11316E020E030E040E251E40E94E62A0E94272AEA
S11316F0772767FD709577231CF4719561957109BF
S113170029813A814B815C8170E080E090E00F9008
S11317100F900F900F900F90DF91CF91FF90EF906B
S1131720DF90CF9008958F929F92AF92BF92CF9205
S1131730DF92EF92FF92FB016A01E12CF12CDC01B4
S1131740A70196010E94B92B4B015C0120E8920E7F
S1131750A11CB11C80E090E0A1E0B0E09C01AD01CF
S11317602C193D094E095F09DF010E94B92B680D50
S1131770791D8A1D9B1DFF90EF90DF90CF90BF9045
S1131780AF909F908F900895982F92959F70990F86
S1131790292F220F220F920F8F70890F08958830FE
S11317A040F046E850E06BE770E088E690E00E9485
S11317B07B1B662371F021E030E0B90102C0660FA3
S11317C0771F8A95E2F7CB01FA019081892B8083F8
S11317D0089521E030E0B90102C0660F771F8A95B1
S11317E0E2F7CB018095FA019081892380830895E3
S11317F080914A07853CA9F48AE497E08F5F98407A
S113180009F090F480E090E0EAE4F7E03196019684
S11318102081253C59F428E0EF3FF207B9F3B0F3F7
S1131820089580E090E0089580E090E00895CF93DB
S1131830DF93CDB7DEB76F970FB6F894DEBF0FBE58
S1131840CDBF80E090E00E94F22D019741F045ED7C
S113185050E066E870E087EB90E00E947B1B4FE16C
S113186050E060E070E0CE0101960E94E22D8E8D82
S1131870882331F08F8D8150833020F080E01AC0AE
S113188080E018C08FE1FE013196A8E0B3E001903A
S11318900D928A95E1F786E191E09F938F9384E915
S11318A090E09F938F930E94800D0F900F900F9064
S11318B00F9081E06F960FB6F894DEBF0FBECDBFD8
S11318C0DF91CF9108958AE093E0089580912503F4
S11318D00895809126030895EAE7F0E08081876007
S11318E0808310927C00EAE2F3E080E0DF0112974B
S11318F01C9211961C928083128211828F5F3596FE
S11319008930A1F71092550380E391E09F938F9360
S113191086E991E09F938F930E94800D0F900F9022
S11319200F900F90089580912703893010F0109242
S1131930270380915503813031F008F47EC0823052
S113194009F440C068C020912703822F90E0FC0175
S1131950EE0FFF1FEE0FFF1F8E0F9F1FFC01E85DB0
S1131960FC4F8081811166C0293008F066C02F5F6A
S1131970822F90E0FC01EE0FFF1FEE0FFF1F8E0F72
S11319809F1FFC01E85DFC4F8081882319F02093A0
S1131990270350C081E0820F8A3019F42093270373
S11319A00895282FE5CFECE7F0E08081807F282B95
S11319B02083EAE7F0E080818064808382E0809382
S11319C05503089580917A0084FF37C0209127033E
S11319D030E08091780090E0F901EE0FFF1FEE0FE8
S11319E0FF1FE20FF31FE85DFC4F94838383209174
S11319F07900922B9483838381E08183EAE7F0E08A
S1131A0090819F7E908380935503809127038F5FFD
S1131A1080932703089582E291E09F938F9387E751
S1131A2091E09F938F930E94800D0F900F900F90E1
S1131A300F900895293008F4B6CF0895882349F00B
S1131A4081E080935503EAE7F0E080818068808339
S1131A50089510925503EAE7F0E080818F77808340
S1131A600895893040F040E651E06FEB70E082E485
S1131A7091E00E947B1B90E0FC01EE0FFF1FEE0F34
S1131A80FF1F8E0F9F1FFC01E85DFC4F60830895CC
S1131A90893040F04BE251E061ED70E08DE091E07F
S1131AA00E947B1B90E0FC01EE0FFF1FEE0FFF1F57
S1131AB0E80FF91FE85DFC4F20812223E9F0FC01C7
S1131AC0EE0FFF1FEE0FFF1FE80FF91FE85DFC4F3D
S1131AD02181222399F0FC01EE0FFF1FEE0FFF1F5F
S1131AE08E0F9F1FFC01E85DFC4F83819481FB01F5
S1131AF09183808381E0089580E0089580E00895D3
S1131B000F931F93CF93DF93CDB7DEB7C055D109A1
S1131B100FB6F894DEBF0FBECDBFFE01E95AFF4FEA
S1131B20419151919F0160E570E08E010F5F1F4F5D
S1131B30C8010E94E42B8AE061968FAF6197F80197
S1131B4001900020E9F73197BF01601B710BC801B8
S1131B500E94391BC05BDF4F0FB6F894DEBF0FBE87
S1131B60CDBFDF91CF911F910F9108950E94151B56
S1131B7081E00E94361B8CE391E09F938F938EEA61
S1131B8091E09F938F930E94800D0F900F900F9080
S1131B900F9008952A9A089580E00E9426142A98A6
S1131BA00895229A2A9808958BED90E00197F1F711
S1131BB000C000000E94CD14609356037093570335
S1131BC0809358039093590308950E94D10D0E9465
S1131BD0D40D8FE295E70197F1F700C00000089556
S1131BE0CF93C62F823740F04DE152E066E275E0B4
S1131BF08DEF91E00E947B1B40E050E06CEC7DE0B7
S1131C0080680E94EB134AEC5DE060E070E08C2F8A
S1131C100E94EB13CF91089589E991E09F938F93EC
S1131C2089ED95E09F938F930E94800D60E188E297
S1131C300E94F00D0F900F900F900F9008958195D2
S1131C40682F660F89E20E94F00D0895CF92DF920B
S1131C50EF92FF920F931F93CF93DF93C62FD72F4B
S1131C60182F092F0E94582A20E034E244E752E456
S1131C700E94BF290E942C2A6B017C010F931F93A1
S1131C80DF93CF9385EB95E09F938F930E94800D14
S1131C90FF92EF92DF92CF928FE995E09F938F931B
S1131CA00E94800DB7018827992787E00E94F00DD4
S1131CB099278F2D7E2D6D2D88E00E94F00D6C2DBF
S1131CC089E00E94F00D8DB79EB70C960FB6F8947C
S1131CD09EBF0FBE8DBFDF91CF911F910F91FF90DB
S1131CE0EF90DF90CF900895CF92DF92EF92FF9222
S1131CF09B01AC0160E078E488EE91E00E94812BC6
S1131D0069017A01632F772783E00E94F00D6C2D1F
S1131D1084E00E94F00DFF90EF90DF90CF90089543
S1131D20682F89E30E94F00D0895682F8AE30E94CA
S1131D30F00D08950F931F93CF93DF93EC01C935F2
S1131D4082E0D80740F447EA54E065ED72E087E8A2
S1131D5094E00E947B1BBE0180E090E00E94582A20
S1131D6020E034E244E752E40E94BF290E942C2A76
S1131D70162F072FDF93CF9382E794E09F938F93DF
S1131D800E94800D0F931F9383E594E09F938F939C
S1131D900E94800D602F85E00E94F00D612F86E087
S1131DA00E94F00D8DB79EB708960FB6F8949EBFAB
S1131DB00FBE8DBFDF91CF911F910F910895CF93E7
S1131DC0C82F692F8CE20E94F00D6C2F8DE20E94C7
S1131DD0F00DCF910895CF93DF93EB01823740F05C
S1131DE046EE51E060E375E086EC91E00E947B1BD7
S1131DF040E050E06CEC7DE08F770E94EB134AECFE
S1131E005DE060E070E0CE010E940114DF91CF91AB
S1131E100895CF93DF931F92CDB7DEB7BE016F5FF6
S1131E207F4F88E20E94EB0E9981892F881F8827B3
S1131E30881F0F90DF91CF9108950F931F93CF9335
S1131E40DF93062F633420F461110AC010E025C02B
S1131E504EE256E062E071E08EE096E00E947B1B69
S1131E60C82FD92F10E00E94090F882379F02CEA9B
S1131E7031E03F932F9322EF35E03F932F930E945D
S1131E80800D0F900F900F900F9007C0699180E024
S1131E900E94F00D1F5F1013E6CF812FDF91CF91C9
S1131EA01F910F9108951F93CF93DF931F92CDB786
S1131EB0DEB7182FBE016F5F7F4F87E30E94EB0EE2
S1131EC061E06127660F660F660F8981877F682B43
S1131ED0698387E30E94F00D0F90DF91CF911F91EA
S1131EE008951F93CF93DF931F92CDB7DEB7182FBA
S1131EF0BE016F5F7F4F87E30E94EB0E20E1129FCC
S1131F00C001112469816F7E682B698387E30E9475
S1131F10F00D0F90DF91CF911F910895CF93DF9330
S1131F201F92CDB7DEB7BE016F5F7F4F81E00E9485
S1131F30EB0E89818C71869586950F90DF91CF91F8
S1131F4008951F93CF93DF931F92CDB7DEB7182F59
S1131F50BE016F5F7F4F81E00E94EB0E110F110FE6
S1131F606981637E612B698381E00E94F00D0F908B
S1131F70DF91CF911F910895CF93DF931F92CDB737
S1131F80DEB7BE016F5F7F4F87E20E94EB0E89814F
S1131F90881F8827881F0F90DF91CF910895CF92D3
S1131FA0DF92EF92FF920E94CD146B017C0119C065
S1131FB0C701B6010E94FB176B30710581059105BD
S1131FC080F08FE791E09F938F9381EC95E09F934E
S1131FD08F930E94800D0F900F900F900F9080E0D0
S1131FE005C00E94BC0F882319F381E0FF90EF9095
S1131FF0DF90CF9008951F93CF93DF931F92CDB7B7
S1132000DEB7182FBE016F5F7F4F81E00E94EB0E99
S113201069816F7B612B698381E00E94F00D0F90D1
S1132020DF91CF911F9108951F93CF93DF931F9258
S1132030CDB7DEB7182FBE016F5F7F4F81E00E94DE
S1132040EB0E81E01827698110FB67F969830E9410
S1132050F00D0F90DF91CF911F9108951F93CF93AF
S1132060DF931F92CDB7DEB7182FBE016F5F7F4F8E
S11320708DE30E94EB0EAE014F5F5F4F612F80E056
S11320800E94CF0B69818DE30E94F00D0F90DF91C8
S1132090CF911F9108951F93CF93DF931F92CDB7D4
S11320A0DEB7182FBE016F5F7F4F87E30E94EB0EF0
S11320B061E0111101C060E0AE014F5F5F4F87E046
S11320C00E94CF0B698187E30E94F00D0F90DF918E
S11320D0CF911F9108951F93CF93DF931F92CDB794
S11320E0DEB7182FBE016F5F7F4F8CE30E94EB0EAB
S11320F061E0111101C060E0AE014F5F5F4F87E006
S11321000E94CF0B69818CE30E94F00D0F90DF9148
S1132110CF911F910895CF93DF931F92CDB7DEB770
S1132120BE016F5F7F4F8DE30E94EB0E6981646097
S113213069838DE30E94F00D0F90DF91CF91089594
S11321401F93CF93DF931F92CDB7DEB7182FBE0135
S11321506F5F7F4F8DE30E94EB0E20E1129FC00161
S1132160112469816F70682B69838DE30E94F00DDF
S11321700F90DF91CF911F9108951F93CF93DF9319
S11321801F92CDB7DEB7182F833040F041E955E0F8
S113219069E572E081E795E00E947B1BBE016F5FF9
S11321A07F4F87E30E94EB0E110F6981697F612BDA
S11321B0698387E30E94F00D0F90DF91CF911F9107
S11321C008951F93CF93DF931F92CDB7DEB7182FD7
S11321D0BE016F5F7F4F82E00E94EB0E20E2129FF0
S11321E0C001112469816F79682B698382E00E94A0
S11321F0F00D0F90DF91CF911F9108951F93CF930E
S1132200DF931F92CDB7DEB7182F823040F048E33A
S113221055E060EA72E088E195E00E947B1BBE0114
S11322206F5F7F4F82E00E94EB0E110F110F110FB1
S11322306981677E612B698382E00E94F00D0F90B3
S1132240DF91CF911F9108951F93CF93DF931F9236
S1132250CDB7DEB7182F843040F04EEF54E06FEB6B
S113226072E08EED94E00E947B1B1F928F9321EC11
S113227034E03F932F930E94800DBE016F5F7F4F28
S113228082E00E94EB0E69816C7F612B698382E09E
S11322900E94F00D0F900F900F900F900F90DF9110
S11322A0CF911F9108950F931F93CF93DF931F92A4
S11322B0CDB7DEB79EEF980F933040F048E354E07B
S11322C06BEE72E088E194E00E947B1B082F10E023
S11322D01F928F9389EF93E09F938F930E94800DB9
S11322E0BE016F5F7F4F81E10E94EB0E000F111F53
S11322F002951295107F1027007F102769816F7156
S1132300602B698381E10E94F00D0F900F900F9074
S11323100F900F90DF91CF911F910F9108951F930C
S1132320CF93DF931F92CDB7DEB7182F803240F0E2
S113233047EE53E062E073E087EC93E00E947B1B7E
S1132340BE016F5F7F4F81E10E94EB0E6981607E69
S1132350612B698381E10E94F00D0F90DF91CF9191
S11323601F9108951F93CF93DF931F92CDB7DEB7CC
S1132370182FBE016F5F7F4F83E10E94EB0EAE0109
S11323804F5F5F4F612F84E00E94CF0B698183E12F
S11323900E94F00D0F90DF91CF911F9108951F932C
S11323A0CF93DF931F92CDB7DEB7182F8FEF810F36
S11323B0883040F041E653E06FED73E081E493E050
S11323C00E947B1BBE016F5F7F4F8EE20E94EB0E6B
S11323D0812F90E00197880F991F880F991F880F0C
S11323E0991F6981677C682B69838EE20E94F00DD6
S11323F00F90DF91CF911F910895CF93DF931F9298
S1132400CDB7DEB7BE016F5F7F4F8EE20E94EB0E49
S1132410898186958695869587708F5F0F90DF9169
S1132420CF9108950F931F93CF93DF93EC01162F51
S11324300E94FD11811306C08823E1F19881911156
S113244028C017C01F921F938AE491E09F938F9333
S113245085E193E09F938F930E94800D0F900F90DE
S11324600F900F900F900F9080E027C021912111C1
S113247013C08AE491E09F938F9388EE92E09F9338
S11324808F930E94800D0F900F900F900F9080E01B
S113249014C0FE01319690E09F5F9813E7CF0FE2DE
S11324A0080F1FE26991812F0E94F00D1F5F101326
S11324B0F9CF02C081E001C081E0DF91CF911F918B
S11324C00F9108951F93CF93DF931F92CDB7DEB77B
S11324D0182FBE016F5F7F4F8EE20E94EB0EAE019C
S11324E04F5F5F4F612F87E00E94CF0B69818EE2BF
S11324F00E94F00D0F90DF91CF911F9108951F93CB
S1132500CF93DF931F92CDB7DEB7182FBE016F5F55
S11325107F4F8EE20E94EB0E61E0111101C060E07A
S1132520AE014F5F5F4F86E00E94CF0B69818EE260
S11325300E94F00D0F90DF91CF911F9108951F938A
S1132540CF93DF931F92CDB7DEB7182F883040F0BA
S11325504CEC52E06CEB74E08CEA92E00E947B1B42
S1132560BE016F5F7F4F86E20E94EB0E6981687F38
S1132570612B86E20E94F00D0F90DF91CF911F91A5
S113258008951F93CF93DF931F92CDB7DEB7182F13
S1132590873040F044E952E064ED74E084E792E06F
S11325A00E947B1BBE016F5F7F4F88E10E94EB0E90
S11325B06981687F612B88E10E94F00D0F90DF91A3
S11325C0CF911F9108951F93CF93DF931F92CDB79F
S11325D0DEB7182F823040F044E552E063EE74E039
S11325E084E392E00E947B1BBE016F5F7F4F88E112
S11325F00E94EB0E61E0111101C060E0AE014F5F7B
S11326005F4F87E00E94CF0B698188E10E94F00D43
S11326100F90DF91CF911F9108951F93CF93DF9374
S11326201F92CDB7DEB7182FBE016F5F7F4F8BE0CF
S11326300E94EB0EAE014F5F5F4F612F85E00E9459
S1132640CF0B69818BE00E94F00D0F90DF91CF9149
S11326501F910895CF93DF931F92CDB7DEB7BE01CC
S11326606F5F7F4F8BE00E94EB0E998181E095FFB5
S113267080E00F90DF91CF910895882331F00E947C
S11326802A13882321F060E203C060E001C060E304
S11326908FE60E94F00D0895CF93DF931F92CDB77C
S11326A0DEB7BE016F5F7F4F87E20E94EB0E998118
S11326B081E095FF80E00F90DF91CF910895CF9353
S11326C0DF931F92CDB7DEB7BE016F5F7F4F83E10B
S11326D00E94EB0E998181E094FF80E00F90DF91DE
S11326E0CF9108958823D9F00E945F13882371F055
S11326F08FE591E09F938F9388E893E09F938F9366
S11327000E94800D0F900F900F900F906DE58AE559
S11327100E94F00D6CE78CE50E94F00D089565E5CC
S11327208AE50E94F00D60E78CE50E94F00D0895A3
S1132730CF93DF931F92CDB7DEB7BE016F5F7F4F9C
S113274088E20E94EB0E998181E092FF80E00F9075
S1132750DF91CF910895CF93DF931F92CDB7DEB76A
S1132760BE016F5F7F4F88E20E94EB0E998181E08A
S113277093FF80E00F90DF91CF910895CF93DF9383
S11327801F92CDB7DEB7BE016F5F7F4F88E20E9414
S1132790EB0E998181E096FF80E00F90DF91CF915D
S11327A008950F931F93CF93DF93062FEC0110E04E
S11327B006C0BE0180E00E94EB0E1F5F21960E94BE
S11327C0BE13882311F01013F4CF812FDF91CF9122
S11327D01F910F9108951F93CF93DF93182FEA0150
S11327E06115710511F0FB0109951EBD0DB407FEBD
S11327F0FDCF209711F0FE010995DF91CF911F9134
S113280008950F931F93CF93DF938C01EA01611511
S1132810710511F0FB0109951EBC0DB407FEFDCF37
S11328208EB5F8018083209711F0FE010995DF91A0
S1132830CF911F910F910895882321F08CB5806169
S11328408CBD08958CB58F7E8CBD0895813059F070
S113285028F0823081F08330B1F01AC08CB5837FC8
S11328608CBD81E008958CB5877F8CBD8CB5846068
S11328708CBD81E008958CB588608CBD8CB58B7F50
S11328808CBD81E008958CB58C608CBD81E0089589
S113289081EC91E09F938F9386E496E09F938F93CE
S11328A00E94800D0F900F900F900F9080E008957C
S11328B0CF93C82F84B18C6284B9249881E08CBDF5
S11328C00E941C148C2F0E9426148823A1F08CB51E
S11328D080648CBD10925B0380ED91E09F938F9395
S11328E08CE996E09F938F930E94800D0F900F9038
S11328F00F900F9012C01F92CF9380ED91E09F93A1
S11329008F9388E696E09F938F930E94800D0F909B
S11329100F900F900F900F900F9010925A03CF9139
S113292008951F920F920FB60F9211248F939F93C5
S1132930AF93BF938091460790914707A0914807B2
S1132940B09149070196A11DB11D8093460790934C
S11329504707A0934807B0934907BF91AF919F9150
S11329608F910F900FBE0F901F90189510924607ED
S113297010924707109248071092490784B5826065
S113298084BD85B5836085BD8DE787BDEEE6F0E047
S1132990808182608083789408952FB7F894609141
S11329A046077091470780914807909149072FBFC8
S11329B008951F920F920FB60F9211242F933F93F5
S11329C04F935F936F937F938F939F93AF93BF9333
S11329D0EF93FF93CF93DF931F92CDB7DEB7809130
S11329E0C6008983E0915E03F0915F03309719F08C
S11329F0CE01019609950F90DF91CF91FF91EF9150
S1132A00BF91AF919F918F917F916F915F914F9102
S1132A103F912F910F900FBE0F901F9018951F920A
S1132A200F920FB60F9211242F933F934F935F93FE
S1132A306F937F938F939F93AF93BF93EF93FF9382
S1132A40CF93DF931F92CDB7DEB7E0915C03F09193
S1132A505D03309749F0CE0101960995882321F052
S1132A6089818093C60005C0E1ECF0E080818F7D10
S1132A7080830F90DF91CF91FF91EF91BF91AF9140
S1132A809F918F917F916F915F914F913F912F9182
S1132A900F900FBE0F901F90189586E08093C20090
S1132AA0089590935F0380935E0370935D03609336
S1132AB05C030895882331F0E1ECF0E080818869BB
S1132AC080830895E1ECF0E0808187768083089527
S1132AD0E1ECF0E080818062808308950F931F937E
S1132AE08B019C01000F111F221F331F000F111FA8
S1132AF0221F331FA9019801220F331F441F551FA2
S1132B00220F331F441F551F2130E2E13E07EAE73D
S1132B104E075105F8F46217730784079507E0F42C
S1132B2060E074EB84EC94E00E94812BCA01B9014B
S1132B3065507109810991092AE030E040E050E0D4
S1132B400E94812B832F99278093C5002093C40072
S1132B5081E003C080E001C080E01F910F910895DF
S1132B60CF93DF93EC01009741F441E658E062E82B
S1132B7070E086E498E00E947B1B0E941D26CE0133
S1132B8001960E942226CE0102960E944126CE0181
S1132B9003960E944B26CE0104960E946926CE011C
S1132BA005960E946E2681E0DF91CF9108950097EB
S1132BB041F449E358E06CEB70E08EE198E00E9448
S1132BC07B1B683040F040E158E06DEB70E085EF2E
S1132BD097E00E947B1BFC0131812CEF230F2630F0
S1132BE050F12DEF230F283040F55281252F261B5D
S1132BF047E0420F4F3170F4842F90E007964F97CF
S1132C0044F4242F295F822F90E007964F97D4F342
S1132C1001C0242F333029F481E0251750F080E0DF
S1132C2008C03A3029F481E0521718F080E001C05E
S1132C3080E08170089581E0089580E00895AC01FA
S1132C4083709927892B71F59A01369527953695C6
S1132C502795ABE7B4E10E94A32B9695879564E68C
S1132C60689F9001699F300D112442175307E1F4C6
S1132C709A01329522952F7023273F702327AEE3C4
S1132C80BAE00E94A32B20E931E0829FB001839F28
S1132C90700D929F700D112481E04617570729F09B
S1132CA080E0089580E0089581E00895009741F45C
S1132CB043E257E068E771E088E097E00E947B1BFD
S1132CC0FC012081620F6083643640F047EF56E0D8
S1132CD06BE771E08CED96E00E947B1B0895FC018C
S1132CE0009741F44BE457E062E671E080E397E03B
S1132CF00E947B1B2181862F90E0820F911D6CE046
S1132D0070E00E946D2B81836115710519F0CF016C
S1132D100E94561608950F931F93CF93DF93EC01EF
S1132D20062F009741F448E957E062E471E08DE72B
S1132D3097E00E947B1B9981E92FF0E0E552FE4F5A
S1132D401081923041F4888190E08053984F0E9422
S1132D501F1681111F5F2A81802F90E0820F911D21
S1132D60612F70E00E946D2B262F372F8A8322302B
S1132D70310540F043E757E060E571E088E597E00E
S1132D800E947B1B232B19F0CE010E946F16DF914A
S1132D90CF911F910F910895FC01009741F440ECED
S1132DA057E06CE271E085EA97E00E947B1B238187
S1132DB0862F90E0820F911D68E170E00E946D2BD8
S1132DC083836115710519F0CF010E948B16089554
S1132DD0FC01009741F448EE57E066E171E08DECA8
S1132DE097E00E947B1B2481862F90E0820F911D27
S1132DF06CE370E00E946D2B84836115710519F0FA
S1132E00CF010E94CC1608958F929F92AF92BF92E9
S1132E10CF92DF92EF92FF920F931F93CF93DF93A2
S1132E20EC01009741F44FEC56E06BE871E084EB61
S1132E3096E00E947B1B1881812F90E00097E9F0B7
S1132E40BC0161507109882777FD8095982F4B014B
S1132E505C01B694A79497948794B694A794979496
S1132E60879424E630E040E050E00E94812B821AEF
S1132E70930A2FEF821A920A02C0812C912CAA2461
S1132E8097FCA094BA2C212F30E0ADE6B1E00E946B
S1132E90A32B75016401C60ED71EE81EF91E2A81F4
S1132EA030E0590181E0A81AB1080981023038F4F0
S1132EB0002381F159018EE1A80EB11C2BC0812F92
S1132EC090E08053984F0E941F16282F30E0255C15
S1132ED03F4FA20EB31E802F90E0039785309105DB
S1132EE01CF029E9A20EB11C65E070E00E946D2B74
S1132EF0AC01DC0199230CF41196B595A7952DE34B
S1132F0030E00E94B22BA60EB71E40FF03C08FE133
S1132F10A80EB11CC501AA2797FDA095BA2FA70139
S1132F209601280F391F4A1F5B1F60E871E581E095
S1132F3090E00E94492B6B017C012B8130E0A0E1E1
S1132F40BEE00E94A32B4B015C012C8130E0ACE37A
S1132F50B0E00E94A32BDC01CB01880D991DAA1DB2
S1132F60BB1D2D81820F911DA11DB11DBC01CD0181
S1132F706C0D7D1D8E1D9F1DDF91CF911F910F91B3
S1132F80FF90EF90DF90CF90BF90AF909F908F9085
S1132F900895FF920F931F93CF93DF9300D000D037
S1132FA000D0CDB7DEB78C01009741F449E858E072
S1132FB06FE670E08EE698E00E947B1BCE010196DE
S1132FC00E94B015F82E882349F0CE0101960E9484
S1132FD00417F80160837183828393838F2D26966F
S1132FE00FB6F894DEBF0FBECDBFDF91CF911F9116
S1132FF00F91FF900895CF92DF92EF92FF926B01B1
S11330007C010E94CD146C157D058E059F0568F426
S1133010DC01CB018C199D09AE09BF09BC01CD01AE
S1133020615071098109910904C06C197D098E09E7
S11330309F09FF90EF90DF90CF900895CF93DF9397
S1133040EC0183ED99E09F938F930E94800D898119
S11330501F928F938FEC99E09F938F930E94800D22
S11330608A811F928F938BEC99E09F938F930E9498
S1133070800D8B811F928F9387EC99E09F938F93A0
S11330800E94800D2C81822F992787FD90959F9314
S11330902F9383EC99E09F938F930E94800D8881F6
S11330A01F928F938FEB99E09F938F930E94800DD3
S11330B08A851F928F9389851F928F9388851F928B
S11330C08F938F811F928F938E811F928F938D8107
S11330D01F928F938EE999E09F938F930E94800DA6
S11330E08DB79EB784960FB6F8949EBF0FBE8DBF62
S11330F08B851F928F938AE999E09F938F930E9407
S1133100800D8C851F928F9385E999E09F938F930F
S11331100E94800D8DB79EB708960FB6F8949EBF97
S11331200FBE8DBFDF91CF910895CF93DF93CDB7BD
S1133130DEB7C154D1090FB6F894DEBF0FBECDBFC0
S113314061E0CE0101960E94D1136981623480F05E
S113315088EE91E09F938F938CE09AE09F938F93F6
S11331600E94800D0F900F900F900F9080E03BC055
S1133170CE0102960E94D11385E0FE013196AAE6A3
S1133180B3E001900D928A95E1F78CE1FE01369649
S1133190AFE6B3E001900D928A95E1F78AE693E0F9
S11331A00E941E18E0917503E43070F4F0E0EE0F15
S11331B0FF1FEE59FC4F0190F081E02D309721F074
S11331C08AE693E009950FC088EE91E09F938F9370
S11331D089ED99E09F938F930E94800D0F900F903B
S11331E00F900F9080E0CF5BDF4F0FB6F894DEBFF7
S11331F00FBECDBFDF91CF9108950E94E50D80E011
S11332000E942E1081E00E94141080E00E94FB0FA7
S113321083E00E94A01081E00E94A10F0E94CF0FC2
S11332208EE090E00E94DF0E80E00E94C11281E0F7
S11332300E94E31280E00E940D1380E00E943D137F
S113324060EC72E180E090E00E94740E80E00E94E5
S1133250E11080E00E94FE1080E00E94241188E8C2
S113326093E10E949A0E60E071EA8CEB93E30E9472
S1133270260E81E00E94621280E00E947F1286EA9C
S11332800E941F0E86E00E94CF110E94630C66E02C
S11332900E94121281E00E946B100E94660C0E9430
S11332A0900E8FEF0E94950E82E00E94BD100E9446
S11332B00C0E81E00E944B1081E00E94710F81E0AE
S11332C00E94530F87E00E949F1280E00E94B21177
S11332D083E00E9453118CE10E948F1180E00E94D0
S11332E0721381E00E94A10F0E94CF0F83E2EAE6ED
S11332F0F3E0DF011D928A95E9F782E080938D0364
S11333008AE192E09F938F938CE29BE09F938F934B
S11333100E94800D0F900F900F900F900895809150
S11333208D038230B1F128F4882351F08130C9F043
S113333054C1833009F47BC0843009F442C14DC1C7
S113334087E092E09F938F938FEF9AE09F938F9300
S11333500E94800D0E94FD180F900F900F900F9007
S1133360089580916B03882381F086EF91E09F9309
S11333708F9384EA9AE09F938F930E94800D0F901D
S11333800F900F900F9083E001C081E080938D0334
S11333900895809161038130F1F018F0833061F178
S11333A03AC00E949813882351F08AE89AE09F93C8
S11333B08F930E94800D0E948B100F900F9080E0DD
S11333C00E94721384E00E94A10F0E94CF0F81E03B
S11333D08093610328C00E949813882321F181E01F
S11333E00E94A10F0E94CF0F0E94951884E00E94B2
S11333F0A10F0E94CF0F17C00E94BC0F882399F021
S113340089E79AE09F938F930E94800D1092610345
S11334100F900F9008C04AE65AE063EB71E087E42E
S11334209AE00E947B1B82E080938D030895809133
S11334306003823009F461C028F4882351F081309C
S1133440F1F0ADC0833009F496C0843009F4AFC004
S1133450A6C00E94BE131F928F938EE799E09F939C
S11334608F930E94800D81E00E94A10F81E08093E0
S113347060030F900F900F900F9083E09FC00E9405
S1133480BC0F882309F495C087E699E09F938F9336
S11334900E94800D65E08AE693E00E941D0F609112
S11334A07603685F8FE693E00E941D0F83E00E941D
S11334B0A10F81E00E9472130E944C131F928F93FC
S11334C088E599E09F938F930E94800D0E94BE131C
S11334D01F928F9381E499E09F938F930E94800DB4
S11334E082E0809360038DB79EB70A960FB6F89476
S11334F09EBF0FBE8DBF83E061C00E94AB138823C3
S113350009F459C083E399E09F938F930E94800D3F
S11335100F900F9080916D03882391F081E299E0E0
S11335209F938F930E94800D84E00E94A10F80E0FE
S11335300E94721383E0809360030F900F903EC04B
S113354081E199E09F938F930E94800DE0918B031A
S1133550F0918C030F900F90309711F081E0099552
S113356083E2EAE6F3E0DF011D928A95E9F710921F
S1133570600381E023C00E9498138823F1F00E9425
S1133580951881E00E94A10F83E2EAE6F3E0DF01EF
S11335901D928A95E9F71092600381E00FC042E022
S11335A059E064E072E08FED98E00E947B1B83E0B9
S11335B005C083E003C083E001C083E080938D03F2
S11335C008950E94BC0F882381F00E948E0F8823E7
S11335D061F080E00E94A10F089540EF5AE068EC8A
S11335E070E08DEC9AE00E947B1B0895643040F0FB
S11335F04EEB58E060E171E08BE998E00E947B1BA0
S1133600E62FF0E0EE0FFF1FEE59FC4F918380830D
S11336100895BC018EE893E00E94421D0895BC0108
S113362084E993E00E94071D089586E0EAE0F1E052
S1133630A4E9B3E001900D928A95E1F786E0E0E118
S1133640F1E0AEE8B3E001900D928A95E1F70E94B3
S11336504D1560E970ED83E090E00E946E156FE017
S11336607BE189E09BE10E94511508950E945A155F
S11336700895EF92FF920F931F93CF93DF937C01F2
S11336808B0161157105A1F0C0E0D0E0F894B70199
S11336906C0F7D1F84E993E00E94421D811102C0DA
S11336A0789408C078942196C017D10779F702C09E
S11336B0C0E0D0E00E946815CE01DF91CF911F9148
S11336C00F91FF90EF9008958BE292E09F938F9378
S11336D08EE79BE09F938F930E94800D88E10FB645
S11336E0F89480936000109260000FBE0F900F90CA
S11336F00F900F90FFCFCF93DF93CDB7DEB7C054B9
S1133700D1090FB6F894DEBF0FBECDBFD62EC72E9B
S11337107A018E01075D1F4F48E150E0BC01C801EA
S11337200E94CC2B21961FAE219748E250E0B701AE
S1133730CE0101967C010E94CC2B18A6FF92EF9239
S1133740CF92DF921F930F938EEB9BE09F938F9307
S11337500E94800D0E94641B7F928F929F92AF9271
S1133760BF92CF92DF92EF92FF920F931F93CF936A
S1133770DF9300D000D0CDB7DEB70F2EFFE1EF2EE0
S1133780F0E0FF2EF02D00E010E0812C912C54018C
S113379044E050E0B701CE0101960E94E22D8981F8
S11337A09A81AB81BC8188169906AA06BB06B0F043
S11337B0009323042FEF821A920AA20AB20A80927B
S11337C022041F930F938BE49CE09F938F930E949A
S11337D0800D0F900F900F900F9012C00F5F1F4F2E
S11337E02AE0E20EF11C0035110519F04C015D01CF
S11337F0CFCF109223040196A11DB11D8093220402
S11338000F900F900F900F90DF91CF911F910F9118
S1133810FF90EF90DF90CF90BF90AF909F908F90EC
S11338207F9008950F931F93CF93DF93CDB7DEB7A7
S11338302A970FB6F894DEBF0FBECDBF082F162F00
S113384090912304903540F04CE25CE06FE770E027
S11338508FE09CE00E947B1B80912204811108C0B0
S11338604FEF5BE060E870E082EE9BE00E947B1B20
S1133870CE0105960E94C9174091220450E060E0F1
S113388070E049835A836B837C8309871A8780910C
S1133890230490E0BC01660F771F880F991F880FDF
S11338A0991F880F991F680F791F615E7F4F4AE047
S11338B050E0CE0101960E94F82D2091230430E0BF
S11338C02F5F3F4FADECBCEC0E94A32B96958795E0
S11338D096958795969587958093230480912204E5
S11338E08F5F809322042A960FB6F894DEBF0FBE32
S11338F0CDBFDF91CF911F910F910895AF92BF92E9
S1133900CF92DF92EF92FF920F931F93CF93DF93A7
S1133910CDB7DEB72A970FB6F894DEBF0FBECDBF82
S113392086E79BE09F938F930E94800D0F2EFFE10B
S1133930EF2EF0E0FF2EF02D0F900F9000E010E03E
S11339400F2EF2E6AF2EFBE0BF2EF02D0F2EF9E581
S1133950CF2EFBE0DF2EF02D4AE050E0B701CE0180
S113396001960E94E22D89819A81AB81BC810097E6
S1133970A105B10549F48DE69BE09F938F930E94C6
S1133980800D0F900F9032C029851F922F93BF9303
S1133990AF939F938F931F930F93BF92AF920E9405
S11339A0800D88858F938F818F938E818F938D81E6
S11339B08F938A851F928F93DF92CF920E94800DFE
S11339C00F5F1F4F8AE0E80EF11C0FB6F894DEBFBC
S11339D00FBECDBF0035110509F0BECF80E59BE0D9
S11339E09F938F930E94800D0F900F902A960FB68D
S11339F0F894DEBF0FBECDBFDF91CF911F910F9121
S1133A00FF90EF90DF90CF90BF90AF900895CF9349
S1133A10DF93FC01EB01838192819817C9F0258122
S1133A2030E0A901480F511DCA014481429FB001F1
S1133A30439F700D11240E94592B838360817181EF
S1133A40680F711DA901CE010E94DB2B81E001C02A
S1133A5080E0DF91CF910895FC01258130E08281DF
S1133A60A901480F511DCA014481429FB001439FDF
S1133A70700D11240E94592B982F81E02381291362
S1133A8080E008950F931F93CF93DF93EC018B0194
S1133A900E942C1D81111CC02D8130E08A81A90156
S1133AA0480F511DCA014C81429FB001439F700DC4
S1133AB011240E94592B8A83E881F981A901B80154
S1133AC09F01280F311DC9010E94DB2B81E001C039
S1133AD080E0DF91CF911F910F910895882319F011
S1133AE0813041F00EC02FE14FE760E08FE70E9484
S1133AF0D22608952FE140E060E080E00E94D226C3
S1133B0008951F928F9388E492E09F938F9389E6A0
S1133B109CE09F938F930E94800D0F900F900F90C5
S1133B200F900F900F9008950F931F93CF93DF93EF
S1133B30182F092F0E94F624EC01009731F12C81F3
S1133B40822F992787FD90959F932F9382E08F93DF
S1133B5014E01F9382E59DE09F938F930E94432876
S1133B608A811F928F9380E18F931F9383E49DE05A
S1133B709F938F930E9443288DB79EB70C960FB6E0
S1133B80F8949EBF0FBE8DBF26C082E08F93C0E124
S1133B90CF932BE33DE03F932F930E944328CF9391
S1133BA0CF9321E33DE03F932F930E9443280F934B
S1133BB01F9384E792E09F938F9388E09DE09F9307
S1133BC08F930E94800D8DB79EB70E960FB6F89412
S1133BD09EBF0FBE8DBFDF91CF911F910F910895AE
S1133BE0EF92FF920F931F93CF93DF9300D000D0F7
S1133BF01F92CDB7DEB77C0101969F938F931F92DE
S1133C0081E08F9385E09DE09F938F930E944328EA
S1133C108E2D0E94F6248C0123E046E06AE181E0C7
S1133C200E9446272CE148E06BE188E00E94D226FE
S1133C300F900F900F900F900F900F90011511059A
S1133C4009F445C0F80161897289838994890E94C5
S1133C50550B29833A834B835C836D831F926F9347
S1133C608C818F938B818F938A818F9389818F939A
S1133C7082E08F9388E08F9380EF9CE09F938F93F3
S1133C800E944328F80165857685878590890E947E
S1133C90550B29833A834B835C831F926F938C81EA
S1133CA08F938B818F938A818F9389818F9380E106
S1133CB08F9382E18F938DED9CE09F938F930E946D
S1133CC043280FB6F894DEBF0FBECDBF25C082E0F7
S1133CD08F9388E08F938EEC9CE09F938F930E9448
S1133CE0432880E18F9382E18F9382EC9CE09F9341
S1133CF08F930E944328FF92EF9287E692E09F936E
S1133D008F9389E99CE09F938F930E94800D0FB657
S1133D10F894DEBF0FBECDBF0F900F900F900F90A1
S1133D200F90DF91CF911F910F91FF90EF90089525
S1133D30AF92BF92CF92DF92EF92FF920F931F93B5
S1133D40CF93DF9380EF9DE1909325048093240427
S1133D50109227041092260410922B0410922A0425
S1133D6010922F0410922E0410922D0410922C0401
S1133D70109229041092280484E294E00E94FA210B
S1133D80C0E3D4E0CC24C394D12C23E030E084E21B
S1133D9094E070E060E004E91DE10F2EF0EFEF2EF7
S1133DA0FDE1FF2EF02D27C0AC2EBD2EF982E88256
S1133DB0DB82CA821F821E821B861A861986188697
S1133DC01D821C82CE010E94FA2196012D5F3F4F75
S1133DD0C60101962C968430910541F44DE65DE0D0
S1133DE062E670E08BE59DE00E947B1B7C2D6D2DCF
S1133DF06C018A2D9B2DA901440F551FFA01E20F76
S1133E00F31FEE0FFF1FEE0FFF1FEC5DFB4F11833F
S1133E100083728363831782168213861286118647
S1133E20108615821482BF010E94322283E0C816D4
S1133E30D10409F0B9CFDF91CF911F910F91FF9079
S1133E40EF90DF90CF90BF90AF9008950F931F93A2
S1133E50CF93DF931F92CDB7DEB78C016CE30E9442
S1133E60E816CE0101960E9446266981C8010E9487
S1133E70D715882321F06CE3C8010E94E8160F903F
S1133E80DF91CF911F910F910895CF93DF9300D0CD
S1133E9000D000D0CDB7DEB7CE0101960E94B01598
S1133EA0CE0101960E94261F8B811F928F938A81D7
S1133EB01F928F9389811F928F9382E08F938FE15A
S1133EC08F938DEB9DE09F938F930E9443288E8167
S1133ED01F928F938D811F928F938C811F928F934A
S1133EE080E18F9388E28F938EEA9DE09F938F9376
S1133EF00E9443280FB6F894DEBF0FBECDBF2696AE
S1133F000FB6F894DEBF0FBECDBFDF91CF910895F9
S1133F10CF93DF9300D000D000D0CDB7DEB7CE0171
S1133F2001960E94B015CE0101960E94261F8D8134
S1133F301F928F938C811F928F938BE08F9381E3D9
S1133F408F9384EA9DE09F938F930E9443280FB63A
S1133F50F894DEBF0FBECDBF26960FB6F894DEBF31
S1133F600FBECDBFDF91CF91089588E89FE1909374
S1133F7079048093780410927B0410927A0410924E
S1133F807F0410927E041092830410928204109293
S1133F9081041092800410927D0410927C0485E4C4
S1133FA09FE190936D0480936C0410926F041092BF
S1133FB06E0410927304109272041092770410929B
S1133FC07604109275041092740410927104109285
S1133FD070046CE674E088E794E00E94322288E77B
S1133FE094E00E94FA2189E892E09F938F938EECEB
S1133FF09DE09F938F930E94800D0F900F900F90E0
S11340000F900895CF93DF931F92D5E0DF9382E062
S11340108F93C6E0CF9382E49EE09F938F930E9498
S113402043281F92DF9380E18F93CF938EE29EE02B
S11340309F938F930E9443288DB79EB70C960FB61B
S1134040F8949EBF0FBE8DBFDF91CF910895FF926C
S11340500F931F93CF93DF93CDB7DEB72A970FB695
S1134060F894DEBF0FBECDBFBE016F5F7F4F87E008
S11340700E9478232B813C81ADECBCEC0E94A32BE5
S11340809695879596958795969587959F938F9303
S113409012E01F930F2EF6E0FF2EF02DFF9285E223
S11340A09EE09F938F930E9443282D813E81ADEC27
S11340B0BCEC0E94A32B969587959695879596952B
S11340C087959F938F931F9316E41F938CE19EE033
S11340D09F938F930E9443282F813885ADECBCECCD
S11340E00E94A32B96958795969587959695879587
S11340F09F938F9300E10F93FF9283E19EE09F9340
S11341008F930E94432829853A85ADECBCEC0E942C
S1134110A32B9695879596958795969587959F93C6
S11341208F930F931F938AE09EE09F938F930E9437
S113413043280FB6F894DEBF0FBECDBF2A960FB644
S1134140F894DEBF0FBECDBFDF91CF911F910F91C9
S1134150FF900895CF93DF93CDB7DEB72A970FB6BC
S1134160F894DEBF0FBECDBFBE016F5F7F4F87E007
S11341700E9478238823D1F14F8158859A01ADECB0
S1134180BCEC0E94A32B969587959695879596955A
S113419087959C01220F331F880F991F880F991F41
S11341A0880F991F820F931F9A01281B390BC9018D
S11341B09F932F939A010E94A32B9695879596958A
S11341C087959695879599279F938F938AE08F93E8
S11341D086E08F9386EF9DE09F938F930E94432800
S11341E00FB6F894DEBF0FBECDBF0EC08AE08F932A
S11341F086E08F9386EE9DE09F938F930E944328E1
S11342000F900F900F900F902A960FB6F894DEBF80
S11342100FBECDBFDF91CF9108958AEA90E29093CB
S11342209104809390041092970410929604109233
S11342309B0410929A04109299041092980410927C
S113424095041092940487E290E290939D048093E5
S11342509C041092A3041092A2041092A70410923A
S1134260A6041092A5041092A4041092A104109222
S1134270A00482E090E290938504809384041092D9
S11342808B0410928A0410928F0410928E04109260
S11342908D0410928C0410928904109288046CE9A5
S11342A074E080E994E00E94322264E874E080E9DA
S11342B094E00E94322280E994E00E94FA21089559
S11342C00E9467250E94302581E091E00E94CD265E
S11342D01092AF041092AE041092AD041092AC048C
S11342E081E08093B40487EA92E09F938F938BEAF2
S11342F09EE09F938F930E94800D0F900F900F90DC
S11343000F9008958091B404882309F44BC0E09180
S1134310AC04F091AD043097C9F180819181892B6F
S1134320A9F10E945C25A091AC04B091AD04ED917B
S1134330FC91119712968D919C9113970995609118
S1134340B0047091B1048091B2049091B3040E94BE
S1134350FB17603D774081059105B0F4E091AC0412
S1134360F091AD0480859185892B19F480E00E9439
S11343706E1DE091AC04F091AD0482859385892B88
S113438019F481E00E946E1D0E94CA261092B404A2
S11343900E94CD146093A8047093A9048093AA0486
S11343A09093AB046091A8047091A9048091AA042D
S11343B09091AB040E94FB17693E734081059105FF
S11343C018F081E08093B4040895FC01009789F00B
S11343D06115710571F0208531852115310511F0C4
S11343E0F901F9CFDB011B96FC93EE931A977187C1
S11343F060870895CF93DF93EC018091AE04909190
S1134400AF04892BB9F485E992E09F938F9386E8F2
S11344109EE09F938F930E94800DD093AF04C0932E
S1134420AE04D093AD04C093AC040F900F900F90E2
S11344300F9015C025E932E03F932F9326E53EE027
S11344403F932F930E94800DBE018091AE04909102
S1134450AF040E94E5210F900F900F900F90DF9111
S1134460CF9108950F931F93CF93DF93EC018B01AA
S1134470009779F06115710561F08E819F81009735
S113448019F00E94E52102C07F836E83F801D58371
S1134490C483DF91CF911F910F910895E091AC04F3
S11344A0F091AD043097A9F082859385009721F0AF
S11344B09093AD048093AC0481E08093B4040E9493
S11344C0CD146093B0047093B1048093B2049093BC
S11344D0B3040895E091AC04F091AD043097A9F0D1
S11344E080859185009721F09093AD048093AC046E
S11344F081E08093B4040E94CD146093B00470935F
S1134500B1048093B2049093B3040895E091AC0491
S1134510F091AD043097F1F086819781009729F0EE
S11345209093AD048093AC0408C084819581009776
S113453021F09093AD048093AC0481E08093B404A3
S11345400E94CD146093B0047093B1048093B204BC
S11345509093B304089584B18C7F84B961E086E0BC
S11345600E94310D1092B9041092B8041092BB0449
S11345701092BA041092B7041092B60486EB92E03B
S11345809F938F9389ED9EE09F938F930E94800D5C
S11345900F900F900F900F9008959093B90480930B
S11345A0B8047093BB046093BA045093B704409367
S11345B0B6040895199B10C081ED9EE09F938F93DC
S11345C00E94800DE091B804F091B9040F900F900F
S11345D0309789F0099508958AEC9EE09F938F9314
S11345E00E94800DE091BA04F091BB040F900F90EB
S11345F0309709F0099508951F93CF93DF9300D066
S1134600CDB7DEB7BE016F5F7F4F86E00E94480DD5
S11346108823F1F011E089819A818130924008F475
S113462010E08091B504811111C0112379F083EC5D
S11346309EE09F938F930E94800DE091B604F091C9
S1134640B7040F900F90309709F009951093B504B3
S11346500F900F90DF91CF911F910895CF930E94F7
S1134660FC22C3B1C17080910001813049F4C111B1
S113467007C085E38A95F1F70000189B0E94DA22AF
S1134680C0930001CF9108958EEF9FEF9093CB04D8
S11346908093CA048FEF8F938EEF8F9387E69FE00A
S11346A09F938F930E94800D61E087E00E94310DFB
S11346B061E088E00E94310D82ED92E09F938F9338
S11346C08FE49FE09F938F930E94800D8DB79EB7D8
S11346D008960FB6F8949EBF0FBE8DBF0895880F3D
S11346E0982F990F990F4AE0890F0E947326089515
S11346F0CF93DF93EB01880F982F990F990F4AE01E
S1134700890F0E949E26882341F081E02881398107
S11347102F303A4A19F080E001C080E0DF91CF9158
S113472008950F931F93CF93DF93182FEB010E94EB
S1134730480D813009F068C0173039F0183009F499
S113474042C0163009F058C061C028813981EDE7B4
S1134750FFE0859194918217930778F48FE79FE0A7
S113476001E004C00F5F02960D3141F0FC01459158
S1134770549142175307B0F301C000E0A4E6B0E03F
S11347800E94A32B10E0F801EE0FFF1FE358F04F37
S11347902591349140E050E00E94812BD801AA0F6A
S11347A0BB1FAA0FBB1F0A0F1B1FD8015E970E94D5
S11347B0C42B2AE030E040E050E00E94812B398392
S11347C0288381E024C028813981A4EEBCE00E94C2
S11347D0A32BDC01CB01072E7AE0B695A79597951C
S11347E087957A95D1F7702D87559140A109B10924
S11347F09983888381E00BC04FEF5EE063EE70E045
S113480081EF9EE00E947B1B80E001C081E0DF918C
S1134810CF911F910F9108950F931F93CF93DF931F
S11348206091BC047091BD048091BE049091BF045A
S11348300E94FB17693873418105910508F479C01A
S113484060EC74E087E00E94782366EC74E087E013
S11348500E9491238091C0049091C1048F30EAEAB0
S11348609E0761F54091CA045091CB0408EC14E012
S1134870F80160817181C6ECD4E0888199810E943D
S1134880930BF80191838083888199812091C204DC
S11348903091C3042817390728F49093C3048093F4
S11348A0C20438C02091C4043091C5048217930710
S11348B088F59093C5048093C4042CC09F938F9370
S11348C01F921F9284EC92E09F938F938EE09FE05F
S11348D09F938F930E94800D8FE09AEA9093C10476
S11348E08093C0048091C6049091C7049093C3043C
S11348F08093C2049093C5048093C4049093C90424
S11349008093C8048DB79EB708960FB6F8949EBFDF
S11349100FBE8DBF60EC74E087E00E946F230E949D
S1134920CD146093BC047093BD048093BE04909333
S1134930BF04DF91CF911F910F910895CF93DF931F
S1134940009741F449E150E163E770E08CE090E1C5
S11349500E947B1BFC012281222334F5A0E8A21BC8
S1134960A33040F047EF5FE068E770E08AEE9FE035
S11349700E947B1BCA2FD0E0F3E2AF9FD001112429
S1134980A852BB4F23E2FC0101900D922A95E1F756
S11349900E94CD14CC0FDD1FCC0FDD1FC453DB4FA1
S11349A0688379838A839B8389ED9FE09F938F93A8
S11349B00E94800D0F900F9080E0DF91CF910895B9
S11349C089E6E8EDF4E0DF011D928A95E9F78CE0D1
S11349D0ECECF4E0DF011D928A95E9F762E08EE9E0
S11349E094E20E94F61A0E94981E0895CF93DF93D2
S11349F0833040F044EC5FE061E670E087EB9FE0D9
S1134A000E947B1BC82FD0E023E2829FF001112477
S1134A10E852FB4F80818823D9F0FE01EE0FFF1F7F
S1134A20EE0FFF1FE453FB4F6081718182819381FC
S1134A300E94FB1760327E448105910560F423E2F5
S1134A402C9FC0012D9F900D112488529B4F05C0AF
S1134A5080E090E002C080E090E0DF91CF91089583
S1134A60089590914105992331F09FE7981B892F70
S1134A709FE1961B692F962F96959695969594305F
S1134A80D0F48823C4F020E8929FF0011124E80FA9
S1134A90F11DEE5BFA4F990F990F990F691B81E095
S1134AA090E09C0102C0220F331F6A95E2F7B9011E
S1134AB08081682B6083089580E092E0E2E4F5E071
S1134AC0DF019C011D9221503040E1F708951092BE
S1134AD041050E945C250895AF92BF92CF92EF9258
S1134AE0FF921F93CF93DF9366E070E08EED92E028
S1134AF00E94391BA12CB12CC12C6894EE24E7F838
S1134B00F12C16C0212F30E0B701621B730BCE01CC
S1134B10820F931F8E5B9A4F0E94391B180F103817
S1134B2089F78FEFA81AB80A84E0A816B10441F0F7
S1134B301C2DE501D695DC2FCC27D795C795E2CF60
S1134B4062E070E085EE92E00E94391BDF91CF9124
S1134B501F91FF90EF90CF90BF90AF9008950E9467
S1134B606C250895409A0895CF93C62F8A3180F416
S1134B7040E050E06BEC75E280680E94EB1342EB7E
S1134B8055E260E070E08C2F0E94EB1381E001C0DD
S1134B9080E0CF91089581E00E9426144098089502
S1134BA0CF93DF93EB018A3178F440E050E06BEC73
S1134BB075E20E94EB1342EB55E260E070E0CE0137
S1134BC00E94011481E001C080E0DF91CF9108953B
S1134BD00F931F93CF93DF931F92CDB7DEB78B0153
S1134BE0BE016F5F7F4F0E94D025882339F08981F1
S1134BF00E94C40BF801808381E001C080E00F9023
S1134C00DF91CF911F910F910895389A409A08959A
S1134C100E9405266CE18EE00E94B42588EE92E0A5
S1134C209F938F938CE495E19F938F930E94800DC3
S1134C300F900F900F900F900895BC0186E00E9492
S1134C40E82508950F931F93CF93DF931F92CDB759
S1134C50DEB78C01BE016F5F7F4F85E00E94D025D7
S1134C60882341F089818F710E94C40BF8018083ED
S1134C7081E001C080E00F90DF91CF911F910F91EF
S1134C800895BC0184E00E94E8250895BC0183E0F6
S1134C900E94E82508950F931F93CF93DF931F92EB
S1134CA0CDB7DEB78C01BE016F5F7F4F82E00E94FB
S1134CB0D025882339F089810E94C40BF8018083B0
S1134CC081E001C080E00F90DF91CF911F910F919F
S1134CD00895BC0181E00E94E8250895BC0180E0AC
S1134CE00E94E8250895FF920F931F93CF93DF93BB
S1134CF0F62E172F042F242F30E0280F311D2130DA
S1134D00314088F4682F88E10E94B425002369F0BB
S1134D10CF2DD12F10E0699189E10E94B4251F5F46
S1134D201013F9CF04C080E003C081E001C081E02A
S1134D30DF91CF911F910F91FF900895FF920F93F0
S1134D401F93CF93DF93F62E172F042F242F30E0D9
S1134D50280F311D2130314090F4682F88E10E94E2
S1134D60B425002371F0CF2DD12F10E0BE0189E1CD
S1134D700E94D0251F5F21961013F8CF04C080E055
S1134D8003C081E001C081E0DF91CF911F910F91B9
S1134D90FF9008950E94AF25089590934307809350
S1134DA0420708956F927F928F929F92AF92BF9223
S1134DB0CF92DF92EF92FF920F931F93CF93DF93E3
S1134DC0B82EA62E942E822E842F90E08B19910952
S1134DD06C0122F4CC24DD24C81AD90AB91418F4BD
S1134DE07724739402C077247A94882D90E08A19EA
S1134DF091098C0122F400271127081B190BA81410
S1134E0018F46624639402C066246A940C151D0584
S1134E106CF0CC27DD27C01BD10B0AF42196D59565
S1134E20C795EE24FF24EC18FD0808C0E601DD2038
S1134E300CF42196D595C795F4CFEF016A2D8B2DEF
S1134E400E943125B91002C0A81489F0EC16FD06A1
S1134E502CF4FE01E01BF10BB70C01C0FE01C017DE
S1134E60D1075CF7EF01CC0DDD1DA60CE7CFDF9178
S1134E70CF911F910F91FF90EF90DF90CF90BF9053
S1134E80AF909F908F907F906F9008950F931F9392
S1134E90CF93DF93D82FC62F022F182F140F262F4E
S1134EA0412F0E94D2260C0F202F4D2F6C2F8D2FB7
S1134EB00E94D226202F412F602F8D2F0E94D226B0
S1134EC0202F412F6C2F812F0E94D226DF91CF916A
S1134ED01F910F9108952F923F924F925F926F927C
S1134EE07F928F929F92AF92BF92CF92DF92EF9276
S1134EF0FF920F931F93CF93DF9300D000D000D085
S1134F00CDB7DEB79A838983762E342E212CEE24F6
S1134F10E394F12C412C0F2EF7E05F2EF02D612C41
S1134F2089C0E981FA81E80FF91F8081803209F490
S1134F307EC0A0914207B091430712969C911297AC
S1134F40891B90E09C01220F331FA901480F591FB0
S1134F505C834B8315962D913C911697240F351F36
S1134F60F9013196C590D49011968C9111978823AC
S1134F7009F450C0812C43C05A2D889D500D112432
S1134F80BA2CBB0CBB0CBB0CB70C5D826E828601C9
S1134F90050F111DE0914207F09143070780F0854A
S1134FA0E02DE00FF11FE491F0E0C7010D8002C095
S1134FB0880F991F0A94E2F7E823F9231E161F06A7
S1134FC024F4692D8B2D0E9431258D819E810197BA
S1134FD09E838D83B3940196E9F6A394E0914207EE
S1134FE0F09143078081A81638F28394A091420778
S1134FF0B091430711968C911197881658F4E0915B
S11350004207F09143078081882379F3A42C982CDC
S1135010930CB2CF1596ED91FC9116972B813C81A0
S1135020E20FF31FE491739473947E0E02C036E092
S1135030730E2394822D90E0E981FA81019000207F
S1135040E9F7319749815A81E41BF50B8E179F07C5
S113505008F467CF26960FB6F894DEBF0FBECDBF17
S1135060DF91CF911F910F91FF90EF90DF90CF9040
S1135070BF90AF909F908F907F906F905F904F9074
S11350803F902F900895CF93DF93CDB7DEB7689705
S11350900FB6F894DEBF0FBECDBF9E012F5D3F4F0C
S11350A04D8D5E8D68E170E0CE0101960E94E42B87
S11350B0188E48A16F8DCE0101960E946B276896C9
S11350C00FB6F894DEBF0FBECDBFDF91CF91089528
S11350D00F931F93CF93DF9300D0CDB7DEB70E9419
S11350E0F80B8C018091450781111CC00436110511
S11350F0C8F4602F83E00E94121C81E0809345076E
S11351001F930F9387EF92E09F938F9385EB95E125
S11351109F938F930E94800D0F900F900F900F908C
S11351200F900F90BE016F5F7F4F88E00E94912324
S11351308091440781111FC069817A816C347105A3
S1135140D0F08BE40E94121C81E0809344078A8192
S11351508F9389818F9387EF92E09F938F938BE84E
S113516095E19F938F930E94800D0F900F900F9065
S11351700F900F900F90012B41F449E755E169EA34
S113518070E084E695E10E947B1B0F900F90DF9105
S1135190CF911F910F910895D4B614BE88E10FB634
S11351A0F89480936000109260000FBE0E94052660
S11351B00E94D10D0E94B60DC3E0D3E0DF93CF93DC
S11351C088E396E19F938F930E94800D1F92DF9254
S11351D0DF93CF9387E196E19F938F930E94800D95
S11351E00E94AC1B0E946C0C0E94B61481E00E94C9
S11351F058140E94082681E00E941E0D0E94442338
S11352000E94AB220E94170C0E94FD180E9460218C
S11352100E94B51F0E940D210E94E02446E852E23C
S11352206EE472E28AE692E20E94CD22DF93CF938B
S11352308BEF95E19F938F930E94800D0E94660CE3
S11352401F928F9389EE95E19F938F930E94800D17
S11352500E94690C1F928F9385ED95E19F938F9324
S11352600E94800D0E947E1C0E94CD146B017C0163
S11352708DB79EB746960FB6F8949EBF0FBE8DBFEE
S11352800E94930C0E942E230E940C240E948F19CA
S11352900E948221C701B6010E94FB17693E734038
S11352A08105910568F30E9468280E94CD146B0162
S11352B07C01E6CF5058BB27AA270ED04DC13ED162
S11352C030F043D120F031F49F3F11F41EF433C188
S11352D00EF4E095E7FB29C1E92F4FD180F3BA170B
S11352E0620773078407950718F071F49EF567C188
S11352F00EF4E0950B2EBA2FA02D0B01B9019001ED
S11353000C01CA01A0011124FF27591B99F0593F30
S113531050F4503E68F11A16F040A22F232F342F78
S11353204427585FF3CF469537952795A795F040C6
S11353305395C9F77EF41F16BA0B620B730B840BDB
S1135340BAF09150A1F0FF0FBB1F661F771F881F93
S1135350C2F70EC0BA0F621F731F841F48F48795EB
S113536077956795B795F7959E3F08F0B3CF9395DA
S1135370880F08F09927EE0F9795879508950CD01C
S1135380EBC0E3D040F0DAD030F021F45F3F19F005
S1135390CCC0511115C1CFC0F0D098F39923C9F3F3
S11353A05523B1F3951B550BBB27AA276217730727
S11353B0840738F09F5F5F4F220F331F441FAA1FDB
S11353C0A9F333D00E2E3AF0E0E830D0915050409B
S11353D0E695001CCAF729D0FE2F27D0660F771F49
S11353E0881FBB1F261737074807AB07B0E809F02B
S11353F0BB0B802DBF01FF2793585F4F2AF09E3FC0
S1135400510568F092C0DCC05F3FECF3983EDCF3DA
S1135410869577956795B795F7959F5FC9F7880F38
S1135420911D9695879597F90895E1E0660F771F8A
S1135430881FBB1F621773078407BA0720F0621B1B
S1135440730B840BBA0BEE1F88F7E095089504D014
S11354506894B111B5C0089598D088F09F5790F022
S1135460B92F9927B751A0F0D1F0660F771F881F85
S1135470991F1AF0BA95C9F712C0B13081F09FD0C4
S1135480B1E008959CC0672F782F8827B85F39F062
S1135490B93FCCF3869577956795B395D9F73EF4E4
S11354A090958095709561957F4F8F4F9F4F08958C
S11354B0E89409C097FB3EF49095809570956195AA
S11354C07F4F8F4F9F4F9923A9F0F92F96E9BB2760
S11354D09395F695879577956795B795F111F8CFDC
S11354E0FAF4BB0F11F460FF1BC06F5F7F4F8F4F47
S11354F09F4F16C0882311F096E911C0772321F03D
S11355009EE8872F762F05C0662371F096E8862FD4
S113551070E060E02AF09A95660F771F881FDAF72B
S1135520880F9695879597F9089597F99F6780E86E
S113553070E060E008959FEF80EC089500240A94E1
S11355401616170618060906089500240A9412165A
S11355501306140605060895092E0394000C11F48D
S1135560882352F0BB0F40F4BF2B11F460FF04C03A
S11355706F5F7F4F8F4F9F4F089557FD9058440F93
S1135580551F59F05F3F71F04795880F97FB991F9E
S113559061F09F3F79F0879508951216130614065B
S11355A0551FF2CF4695F1DF08C0161617061806E8
S11355B0991FF1CF86957105610508940895E894C3
S11355C0BB2766277727CB0197F908950BD0C4CF63
S11355D0B5DF28F0BADF18F0952309F0A6CFABCFDA
S11355E01124EECFCADFA0F3959FD1F3950F50E0BD
S11355F0551F629FF001729FBB27F00DB11D639F81
S1135600AA27F00DB11DAA1F649F6627B00DA11D26
S1135610661F829F2227B00DA11D621F739FB00DCC
S1135620A11D621F839FA00D611D221F749F33273C
S1135630A00D611D231F849F600D211D822F762FD5
S11356406A2F11249F5750408AF0E1F088234AF0D2
S1135650EE0FFF1FBB1F661F771F881F915050401E
S1135660A9F79E3F510570F060CFAACF5F3FECF3DE
S1135670983EDCF3869577956795B795F795E7950A
S11356809F5FC1F7FE2B880F911D9695879597F91B
S11356900895DB018F939F930E94B92BBF91AF9123
S11356A0A29F800D911DA39F900DB29F900D112478
S11356B00895AA1BBB1B51E107C0AA1FBB1FA61755
S11356C0B70710F0A61BB70B881F991F5A95A9F7A7
S11356D080959095BC01CD01089597FB072E16F493
S11356E0009407D077FD09D00E94592B07FC05D000
S11356F03EF4909581959F4F0895709561957F4FE5
S11357000895A1E21A2EAA1BBB1BFD010DC0AA1FFE
S1135710BB1FEE1FFF1FA217B307E407F50720F016
S1135720A21BB30BE40BF50B661F771F881F991F91
S11357301A9469F760957095809590959B01AC01DA
S1135740BD01CF010895A29FB001B39FC001A39FE3
S1135750700D811D1124911DB29F700D811D1124A6
S1135760911D08950E94A32BB7FF0895821B930BEC
S113577008950E94A32BA59F900DB49F900DA49F04
S1135780800D911D11240895B7FF0C94B92B0E942C
S1135790B92B821B930B0895FB01DC01415050404F
S11357A048F005900D920020C9F701C01D924150A8
S11357B05040E0F70895FB01DC0102C001900D9216
S11357C041505040D8F70895AEE0B0E0EAEEFBE275
S11357D00C94C42E8C01CA014EE04C831A830983B5
S11357E077FF02C060E070E8615071097E836D83C9
S11357F0A901BC01CE0101960E94102C4D815E814D
S113580057FD0AC02F813885421753070CF49A01BB
S1135810F801E20FF31F10822E96E4E00C94E02EC0
S1135820ACE0B0E0E6E1FCE20C94B62E7C016B0146
S11358308A01FC0117821682838181FFBDC1CE01DA
S113584001964C01F7019381F60193FD859193FF35
S113585081916F01882309F4ABC1853239F493FD3A
S1135860859193FF81916F01853229F4B70190E00E
S11358700E94262EE7CF512C312C20E02032A0F4B8
S11358808B3269F030F4803259F0833269F420614C
S11358902CC08D3239F0803339F4216026C0226067
S11358A0246023C0286021C027FD27C030ED380FB5
S11358B03A3078F426FF06C0FAE05F9E300D1124DA
S11358C0532E13C08AE0389E300D1124332E2062EB
S11358D00CC08E3221F426FD6BC1206406C08C36C8
S11358E011F4206802C0883641F4F60193FD8591D5
S11358F093FF81916F018111C1CF982F9F7D9554A2
S1135900933028F40C5F1F4FFFE3F9830DC08336F7
S113591031F0833771F0833509F05BC022C0F801A0
S1135920808189830E5F1F4F44244394512C54017A
S113593015C03801F2E06F0E711CF801A080B1802F
S113594026FF03C0652D70E002C06FEF7FEFC50135
S11359502C870E941B2E2C0183012C852F77222E4D
S113596017C03801F2E06F0E711CF801A080B180FD
S113597026FF03C0652D70E002C06FEF7FEFC50105
S11359802C870E94102E2C012C852068222E830146
S113599023FC1BC0832D90E048165906B0F4B701D0
S11359A080E290E00E94262E3A94F4CFF50127FC81
S11359B0859127FE81915F01B70190E00E94262E18
S11359C031103A94F1E04F1A51084114510471F71F
S11359D0E5C0843611F0893639F5F80127FF07C090
S11359E060817181828193810C5F1F4F08C0608147
S11359F07181882777FD8095982F0E5F1F4F2F7632
S1135A00B22E97FF09C090958095709561957F4F50
S1135A108F4F9F4F2068B22E2AE030E0A4010E94ED
S1135A20582EA82EA81844C0853729F42F7EB22EEC
S1135A302AE030E025C0F22FF97FBF2E8F36C1F067
S1135A4018F4883579F0B4C0803719F0883721F01C
S1135A50AFC02F2F2061B22EB4FE0DC08B2D8460F9
S1135A60B82E09C024FF0AC09F2F9660B92E06C025
S1135A7028E030E005C020E130E002C020E132E05F
S1135A80F801B7FE07C060817181828193810C5F48
S1135A901F4F06C06081718180E090E00E5F1F4F50
S1135AA0A4010E94582EA82EA818FB2DFF77BF2E04
S1135AB0B6FE0BC02B2D2E7FA51450F4B4FE0AC0E5
S1135AC0B2FC08C02B2D2E7E05C07A2C2B2D03C0D2
S1135AD07A2C01C0752C24FF0DC0FE01EA0DF11DC6
S1135AE08081803311F4297E09C022FF06C073949B
S1135AF0739404C0822F867809F0739423FD13C035
S1135B0020FF06C05A2C731418F4530C5718732C26
S1135B10731468F4B70180E290E02C870E94262E6B
S1135B2073942C85F5CF731410F4371801C0312CFD
S1135B3024FF12C0B70180E390E02C870E94262E38
S1135B402C8522FF17C021FF03C088E590E002C026
S1135B5088E790E0B7010CC0822F867859F021FDC8
S1135B6002C080E201C08BE227FD8DE2B70190E024
S1135B700E94262EA51438F4B70180E390E00E9419
S1135B80262E5A94F7CFAA94F401EA0DF11D8081D0
S1135B90B70190E00E94262EA110F5CF332009F41E
S1135BA051CEB70180E290E00E94262E3A94F6CFBF
S1135BB0F7018681978102C08FEF9FEF2C96E2E177
S1135BC00C94D22EDC01CB01FC01F999FECF06C066
S1135BD0F2BDE1BDF89A319600B40D9241505040A7
S1135BE0B8F70895A8E1B0E042E050E00C94E42D49
S1135BF0DC01CB0103C02D910E94032E4150504083
S1135C00D0F70895262FF999FECF1FBA92BD81BD12
S1135C1020BD0FB6F894FA9AF99A0FBE019608952A
S1135C20FC010590615070400110D8F78095909563
S1135C308E0F9F1F0895FC01615070400190011068
S1135C40D8F7809590958E0F9F1F08950F931F93FB
S1135C50CF93DF93182F092FEB018B8181FD03C0B4
S1135C608FEF9FEF20C082FF10C04E815F812C8197
S1135C703D81421753077CF4E881F9819F012F5F2E
S1135C803F4F39832883108306C0E885F985812F27
S1135C900995892B29F72E813F812F5F3F4F3F8341
S1135CA02E83812F902FDF91CF911F910F91089513
S1135CB0FA01AA27283051F1203181F1E8946F9339
S1135CC06E7F6E5F7F4F8F4F9F4FAF4FB1E03ED0DF
S1135CD0B4E03CD0670F781F891F9A1FA11D680F7D
S1135CE0791F8A1F911DA11D6A0F711D811D911DB0
