S01500006E6F64655F6669726D776172652E73726563AD
S11300000C94D3090C94FA090C946B1F0C94FA0900
S11300100C94FA090C94FA090C94FA090C94FA0950
S11300200C94FA090C94FA090C94871A0C94FA09A2
S11300300C94FA090C94FA090C942E140C94FA09F1
S11300400C94FA090C94FA090C94FA090C94FA0920
S11300500C94FA090C94FA090C94FA090C94FA0910
S11300600C94FA090C94FA092E2E2F2E2E2F636F5E
S11300706D6D6F6E5F6C6962726172792F636F6D03
S11300806D6F6E2E63006269745F696E64657820BB
S11300903C2038002E2E2F2E2E2F636F6D6D6F6E29
S11300A05F6C6962726172792F636F6D6D6F6E2E12
S11300B063006269745F696E646578203C2038006F
S11300C03C494E464F3E202573282920436F6E66D7
S11300D0696775726174696F6E206C6F61646564C1
S11300E00D0A002E2E2F2E2E2F636F6D6D6F6E5FF7
S11300F06C6962726172792F436F6E6669672E63F1
S113010000434F4E4649475F56455253494F4E2090
S11301103D3D20656570726F6D5F726561645F77E8
S11301206F726428266E766D5F636F6E6669672EE4
S113013076657273696F6E29004E6F7469667920F3
S11301406C697374656E65723A2025750D0A002E0C
S11301502E2F2E2E2F636F6D6D6F6E5F6C69627222
S11301606172792F4576656E742E63006C697374C1
S1130170656E65725F706F6F6C5B696E6465785DE8
S11301802E63616C6C6261636B20213D204E554C83
S11301904C002E2E2F2E2E2F636F6D6D6F6E5F6CA5
S11301A06962726172792F4576656E742E63006E92
S11301B0725F6C697374656E657273203C204D4187
S11301C0585F4E525F4C495354454E455253002E8E
S11301D02E2F2E2E2F636F6D6D6F6E5F6C696272A2
S11301E06172792F4576656E742E63006E725F6C52
S11301F0697374656E657273203C204D41585F4E7F
S1130200525F4C495354454E455253002E2E2F2EC7
S11302102E2F636F6D6D6F6E5F6C696272617279A0
S11302202F4576656E742E63006C697374656E6514
S11302307220213D204E554C4C002E2E2F2E2E2F59
S1130240636F6D6D6F6E5F6C6962726172792F6C32
S113025069624144432E6300696E646578203C20E2
S11302604D41585F4144435F494E50555453002E0D
S11302702E2F2E2E2F636F6D6D6F6E5F6C69627201
S11302806172792F6C69624144432E6300696E6424
S11302906578203C204D41585F4144435F494E50AE
S11302A0555453002E2E2F2E2E2F636F6D6D6F6EAF
S11302B05F6C6962726172792F6C69624144432E8A
S11302C06300696E646578203C204D41585F414469
S11302D0435F494E50555453003C5741524E494E8A
S11302E0473E202573282920556E6B6E6F776E204C
S11302F053746174650D0A003C494E464F3E2025F7
S113030073282920496E697420646F6E650D0A0094
S11303102E2E2F2E2E2F636F6D6D6F6E5F6C6962A4
S1130320726172792F6C696244656275672E63002D
S11303306576656E7420213D204E554C4C003C4939
S11303404E464F3E202573282920496E6974206447
S11303506F6E650D0A002E2E2F2E2E2F636F6D6D7E
S11303606F6E5F6C6962726172792F6C696252465A
S11303704D36392E630061646472657373203C3DAD
S1130380205245475F54455354414643002E2E2F77
S11303902E2E2F636F6D6D6F6E5F6C69627261726A
S11303A0792F6C696252464D36392E63006164645C
S11303B072657373203C3D205245475F5445535446
S11303C0414643002E2E2F2E2E2F636F6D6D6F6EC0
S11303D05F6C6962726172792F6C696252464D3644
S11303E0392E6300696D706564616E6365203C3D00
S11303F02052464D5F4C4E415F5A494E5F32303079
S11304004F484D002E2E2F2E2E2F636F6D6D6F6E65
S11304105F6C6962726172792F6C696252464D3603
S1130420392E63006761696E203C3D2052464D5F62
S11304304C4E415F4741494E5F4736002E2E2F2ECA
S11304402E2F636F6D6D6F6E5F6C6962726172796E
S11304502F6C696252464D36392E6300667265719F
S113046075656E6379203C3D2052464D5F434C4B8D
S11304704F55545F4F4646003C4552524F523E2022
S11304802573282920496E76616C69642073796E1E
S11304906320776F72642076616C75653A203078DA
S11304A030300D0A003C4552524F523E20257328ED
S11304B02920496E76616C69642073796E632077B4
S11304C06F7264206C656E6774683A2025750D0A36
S11304D0002E2E2F2E2E2F636F6D6D6F6E5F6C6945
S11304E062726172792F6C696252464D36392E639D
S11304F00073697A65203E20302026262073697AAD
S113050065203C3D204D41585F53594E435F574F42
S113051052445F53495A45003C4552524F523E2083
S1130520257328292054696D656F7574207768696F
S11305306C652077616974696E6720666F722052FA
S11305405353492E0D0A003C5741524E494E473EE3
S11305502025732829204F4350206D757374206221
S1130560652064697361626C6564207768696C6591
S113057020696E206869676820706F776572206DE6
S11305806F64650D0A002E2E2F2E2E2F636F6D6D56
S11305906F6E5F6C6962726172792F6C6962524628
S11305A04D36392E6300706F7765725F6C657665C2
S11305B06C203C3D20333100506F77657220616DB3
S11305C0706C6966696572206D6F64653A20307875
S11305D0253032580D0A002E2E2F2E2E2F636F6DCC
S11305E06D6F6E5F6C6962726172792F6C696252B1
S11305F0464D36392E63006D6F6465203E20307899
S11306003031202626206D6F6465203C2030783000
S113061035004672657120646576696174696F6E30
S11306202076616C75653A203078253034580D0A8F
S1130630004672657120646576696174696F6E3A0B
S11306402025750D0A002E2E2F2E2E2F636F6D6D13
S11306506F6E5F6C6962726172792F6C6962524667
S11306604D36392E63006672657175656E63795F08
S1130670646576696174696F6E203E20363030009F
S11306804D6F64756C6174696F6E20736861706915
S11306906E673A203078253032580D0A002E2E2FFE
S11306A02E2E2F636F6D6D6F6E5F6C696272617257
S11306B0792F6C696252464D36392E63006D6F6432
S11306C0756C6174696F6E5F73686170696E6720C1
S11306D03C2030783034002E2E2F2E2E2F636F6D59
S11306E06D6F6E5F6C6962726172792F6C696252B0
S11306F0464D36392E63006D6F64756C6174696F95
S11307006E5F74797065203D3D2052464D5F4653BF
S11307104B207C7C206D6F64756C6174696F6E5FB7
S113072074797065203D3D2052464D5F4F4F4B001C
S11307302E2E2F2E2E2F636F6D6D6F6E5F6C696280
S1130740726172792F6C696252464D36392E63009C
S113075066696C746572696E67203C20330046726A
S113076065712076616C75653A2030782530336C7C
S1130770580D0A00467265713A20256C750D0A0001
S11307803C4552524F523E20257328292054696D0E
S1130790656F7574210D0A003C494E464F3E202575
S11307A073282920436C656172204649464F0D0A1F
S11307B0003C4552524F523E202573282920464979
S11307C0464F2069732066756C6C0D0A002E2E2F1F
S11307D02E2E2F636F6D6D6F6E5F6C696272617226
S11307E0792F6C696252464D36392E63006C656E02
S11307F0677468203C3D2052464D5F4649464F5F32
S113080053495A45003C5741524E494E473E2025D4
S113081073282920496E76616C6964205350492DF0
S11308206D6F64650D0A002E2E2F2E2E2F636F6DB3
S11308306D6F6E5F6C6962726172792F6C6962535D
S113084050492E630062756666657220213D204E14
S1130850554C4C003C4552524F523E20257328299A
S1130860204661696C656420746F20696E69742028
S11308705350492C20696E76616C6964206D6F64F5
S1130880653A2025750D0A003C494E464F3E202509
S113089073282920496E697420646F6E650D0A00FF
S11308A02E2E2F2E2E2F636F6D6D6F6E5F6C69620F
S11308B0726172792F5254432E630074696D652DF1
S11308C03E79656172203C20313030002E2E2F2E6F
S11308D02E2F636F6D6D6F6E5F6C696272617279DA
S11308E02F5254432E630074696D6520213D204EC0
S11308F0554C4C002E2E2F2E2E2F636F6D6D6F6E68
S11309005F6C6962726172792F5254432E63007472
S1130910696D6520213D204E554C4C002E2E2F2E06
S11309202E2F636F6D6D6F6E5F6C69627261727989
S11309302F5254432E63006361727279203C20323B
S1130940002E2E2F2E2E2F636F6D6D6F6E5F6C69D0
S113095062726172792F5254432E630074696D651B
S113096020213D204E554C4C002E2E2F2E2E2F6331
S11309706F6D6D6F6E5F6C6962726172792F525424
S1130980432E630074696D6520213D204E554C4C07
S1130990002E2E2F2E2E2F636F6D6D6F6E5F6C6980
S11309A062726172792F5254432E630074696D65CB
S11309B020213D204E554C4C002E2E2F2E2E2F63E1
S11309C06F6D6D6F6E5F6C6962726172792F5254D4
S11309D0432E630074696D6520213D204E554C4CB7
S11309E0002E2E2F2E2E2F636F6D6D6F6E5F6C6930
S11309F062726172792F5254432E630074696D657B
S1130A0020213D204E554C4C002E2E2F2E2E2F6390
S1130A106F6D6D6F6E5F6C6962726172792F525483
S1130A20432E630074696D6520213D204E554C4C66
S1130A30003C494E464F3E202573282920457869BD
S1130A4074696E6720736C6565700D0A003C494ECD
S1130A50464F3E202573282920456E746572696EC1
S1130A606720736C6565700D0A002E2E2F2E2E2FB5
S1130A70636F6D6D6F6E5F6C6962726172792F5412
S1130A8072616E736365697665722E63006576655F
S1130A906E7420213D204E554C4C003C4552524F23
S1130AA0523E20257328292053697A65206F6620D9
S1130AB07061636B657420636F6E74656E74206916
S1130AC07320746F206C617267650D0A002E2E2FDF
S1130AD02E2E2F636F6D6D6F6E5F6C696272617223
S1130AE0792F5472616E736365697665722E630043
S1130AF0636F6E74656E7420213D204E554C4C001E
S1130B002E2E2F2E2E2F636F6D6D6F6E5F6C6962AC
S1130B10726172792F5472616E736365697665725E
S1130B202E630073635F6173736572745F666169DA
S1130B306C004E6F2041434B206E65656465640D07
S1130B400A0057616974696E6720666F72204143B9
S1130B504B0D0A005061636B65742073656E740DF0
S1130B600A004649464F206E6F7420656D70747993
S1130B7020313A2025750D0A0054582072656164AD
S1130B80793A2025750D0A005772697465207061E1
S1130B90636B657420746F204649464F0D0A004606
S1130BA049464F206E6F7420656D70747920303A19
S1130BB02025750D0A0025750D0A0025752C0032B7
S1130BC030253032752D253032752D253032752083
S1130BD0253032753A253032753A253032752C007D
S1130BE025752C0025642C0025752C0025752C00FA
S1130BF025752C003C50434B3E003C494E464F3E2D
S1130C002025732829204E6F207061636B65742042
S1130C1068616E646C657220666F72207061636BCC
S1130C20657420747970652025750D0A003C455261
S1130C30524F523E20257328292053697A65206F2C
S1130C40662064617461207061636B6574206973EC
S1130C50206C6172676572207468656E20746865C3
S1130C60204649464F0D0A002E2E2F2E2E2F636F3D
S1130C706D6D6F6E5F6C6962726172792F5472610F
S1130C806E736365697665722E630073635F617367
S1130C90736572745F6661696C0041434B206D6FCC
S1130CA064652072656164790D0A00496E69742077
S1130CB06C697374656E3A20726573746172742022
S1130CC052580D0A003C494E464F3E2025732829B0
S1130CD02053656E64696E67207061636B65742070
S1130CE066726F6D206275666665720D0A002E2E3F
S1130CF02F2E2E2F636F6D6D6F6E5F6C6962726144
S1130D0072792F5472616E736365697665722E63AE
S1130D100073635F6173736572745F6661696C000D
S1130D203C5741524E494E473E20257328292054B2
S1130D3072616E73636569766572206E6F74206983
S1130D406E697469616C697A65640D0A003C494E88
S1130D50464F3E2025732829205472616E736365C3
S1130D606976657220696E697469617465640D0AD7
S1130D70003C435249544943414C3E2025732829A1
S1130D8020456E746572696E67206661696C2073B4
S1130D90746174652C206D616E75616C207265627E
S1130DA06F6F74206973206E65656465642E0D0A27
S1130DB0003C4552524F523E204661696C656420A6
S1130DC06173736572743A2025733A25752028255A
S1130DD073290D0A004572726F72206C6F67206967
S1130DE06E6465783A2025750D0A002E2E2F2E2F5D
S1130DF04C45442E63007374617465203C3D204C63
S1130E0045445F53544154455F534C454550494E06
S1130E1047003C4552524F523E2025732829204911
S1130E206E76616C696420646174610D0A002E2E13
S1130E302F2E2F6C696244485432322E6300736340
S1130E405F6173736572745F6661696C003C4552DF
S1130E50524F523E20257328292054696D656F75C1
S1130E6074207768696C6520636170747572696E4B
S1130E706720646174610D0A002E2E2F2E2F6C6979
S1130E806244485432322E630073635F6173736546
S1130E9072745F6661696C003C494E464F3E202582
S1130EA073282920496E697420646F6E650D0A00E9
S1130EB043617061636974793A203078253032581F
S1130EC00D0A004D656D6F727920747970653A2052
S1130ED03078253032580D0A004D616E75666163B5
S1130EE074757265723A203078253032580D0A00D4
S1130EF053524547333A203078253032780D0A0072
S1130F0053524547323A203078253032780D0A0062
S1130F1053524547313A203078253032780D0A0053
S1130F202E2E2F2E2F6C69624D43503739353130B8
S1130F302E6300616C61726D5F696E646578203C3C
S1130F402032002E2E2F2E2F6C69624D43503739DC
S1130F503531302E6300616C61726D5F696E64655A
S1130F6078203C2032002E2E2F2E2F6C69624D43A8
S1130F705037393531302E6300616C61726D5F69B1
S1130F806E646578203C2032002E2E2F2E2F6C6943
S1130F90624D435037393531302E6300686F7572B6
S1130FA0203C203234002E2E2F2E2F6C69624D43AC
S1130FB05037393531302E6300616C61726D5F6971
S1130FC06E646578203C2032002E2E2F2E2F6C6903
S1130FD0624D435037393531302E63006D696E757B
S1130FE07465203C203630002E2E2F2E2F6C696223
S1130FF04D435037393531302E6300616C61726D69
S11310005F696E646578203C2032002E2E2F2E2FCF
S11310106C69624D435037393531302E6300736546
S113102063203C203630002E2E2F2E2F6C69624D0B
S1131030435037393531302E63006164647265730F
S113104073203C2030783230002E2E2F2E2F6C69E6
S1131050624D435037393531302E63006164647218
S1131060657373203C2030783230003C494E464F43
S11310703E202573282920496E697420646F6E65AB
S11310800D0A002E2E2F2E2F6C6962506F77657219
S11310902E630073635F6173736572745F66616965
S11310A06C003C494E464F3E202573282920576149
S11310B06B653A2025753A25753A25750D0A003C6D
S11310C0494E464F3E202573282920536C65657090
S11310D03A2025753A25753A25750D0A002E2E2FCE
S11310E02E2F6E6F64655F6669726D776172652E0F
S11310F06300537461636B436F756E742829203EDB
S1131100203000556E7573656420737461636B3AA7
S11311102025750D0A003C494E464F3E2025732874
S113112029204261747465727920766F6C746167EA
S1131130653A20256C750D0A003C494E464F3E2009
S11311402573282920537461727420757020646F8C
S11311506E650D0A003C494E464F3E2025732829F2
S1131160204C6173742072657365743A203078255D
S11311703032580D0A003C494E464F3E2025732814
S113118029204E6F646520756E69742073746172D2
S11311907465640D0A004368617267696E673A207A
S11311A025750D0A004368617267657220636F6E6E
S11311B06E65637465643A2025750D0A0042617496
S11311C07465727920766F6C746167653A20257551
S11311D00D0A002E2E2F2E2F506F7765722E63006E
S11311E06576656E7420213D204E554C4C002E2EA4
S11311F02F2E2F506F7765722E630073635F6173B8
S1131200736572745F6661696C003C494E464F3E7B
S113121020257328292043686172676572206469F8
S113122073636F6E6E65637465640D0A003C494EAA
S1131230464F3E2025732829204368617267696EF2
S11312406720737461727465640D0A003C494E46EC
S11312504F3E2025732829204368617267696E67B1
S11312602073746F707065640D0A003C494E464FDC
S11312703E2025732829204368617267696E6720C0
S1131280737461727465640D0A003C5741524E498F
S11312904E473E202573282920437269746963618F
S11312A06C206261747465727920766F6C74616706
S11312B0650D0A003C494E464F3E202573282920DF
S11312C04368617267696E672073746172746564E0
S11312D00D0A003C494E464F3E2025732829204CD8
S11312E06F77206261747465727920766F6C7461B3
S11312F067650D0A003C494E464F3E202573282958
S1131300204368617267696E6720737461727465E3
S1131310640D0A002E2E2F2E2F53656E736F722EBE
S113132063006576656E7420213D204E554C4C005B
S11313303C494E464F3E20257328292053656E7341
S11313406F722063616C6C6261636B3A2025750D6A
S11313500A003C494E464F3E2025732829204875F3
S11313606D69646974793A20257525250D0A003C58
S1131370494E464F3E20257328292054656D7065DB
S11313807261747572653A202575430D0A003C49F3
S11313904E464F3E202573282920496E69742064E7
S11313A06F6E650D0A00E7E2F4E085EC98E001C099
S11313B08193EF3FF907E0F3D9F311241FBECFEF78
S11313C0D8E0DEBFCDBF13E0A0E0B1E0E8ECF0E58B
S11313D002C005900D92A830B107D9F724E0A8E027
S11313E0B3E001C01D92A732B207E1F70E94DE1FED
S11313F00C9462280C940000982F92959F70990F7A
S1131400292F220F220F920F8F70890F089540E029
S113141020E030E07DEC879F512D112456955695A0
S11314205695952F990F692F660F660F960F891B96
S113143090E0042E02C0880F991F0A94E2F7282B2B
S1131440392B4C5F852F5111E6CFC901089588309F
S113145040F042EB50E06BE770E084E990E00E94DA
S1131460AB19662371F021E030E0B90102C0660FC8
S1131470771F8A95E2F7CB01FA019081892B80834B
S1131480089521E030E0B90102C0660F771F8A9504
S1131490E2F7CB018095FA01908189238083089536
S11314A0883040F046E850E06AE870E088E690E072
S11314B00E94AB19FB01208130E0A90102C05595BF
S11314C047958A95E2F7CA018170089581E00FB6C5
S11314D007FE80E0089580912704853CA9F487E203
S11314E094E08F5F984009F090F480E090E0E7E2A8
S11314F0F4E0319601962081253C59F428E0EF3F31
S1131500F207B9F3B0F3089580E090E0089580E025
S113151090E00895CF93DF93CDB7DEB76F970FB602
S1131520F894DEBF0FBECDBF80E090E00E947F271D
S1131530019741F041E051E066E870E083EE90E00D
S11315400E94AB194FE150E060E070E0CE010196DB
S11315500E946F278E8D882331F08F8D81508330C8
S113156020F080E01AC080E018C08FE1FE013196BF
S1131570A8E0B3E001900D928A95E1F780E091E054
S11315809F938F9380EC90E09F938F930E94950C90
S11315900F900F900F900F9081E06F960FB6F89414
S11315A0DEBF0FBECDBFDF91CF9108958AE093E0F7
S11315B008956AE070E080E090E00895809125034A
S11315C00895009741F449E252E066E470E08CE04B
S11315D092E00E94AB19409145034A3040F04CEE32
S11315E051E067E470E08FEC91E00E94AB19242F86
S11315F030E0F901EE0FFF1FE20FF31FE95DFC4F2E
S11316009283818360834F5F409345030895DF9203
S1131610EF92FF920F931F93CF93DF938C018091EE
S113162045038A3018F4811109C04CC04FEA51E0D7
S113163068E570E082E991E00E94AB19D12C0F2E8D
S1131640F9E3EF2EF1E0FF2EF02DCD2DD0E0FE01D9
S1131650EE0FFF1FEC0FFD1FE95DFC4F8081F801C9
S11316609481891711F0811128C0FE01EE0FFF1F2C
S1131670EC0FFD1FE95DFC4F81819281892B41F4C0
S11316804CE651E060E670E08FE491E00E94AB1913
S1131690DF93CF93FF92EF920E94950CCE01880FB7
S11316A0991FC80FD91FC95DDC4FE981FA81C801B0
S11316B009950F900F900F900F90D394809145034C
S11316C0D81618F2DF91CF911F910F91FF90EF90F0
S11316D0DF900895EAE7F0E08081876080831092CC
S11316E07C00E9E4F3E080E0DF0112971C9211969C
S11316F01C928083128211828F5F35968930A1F704
S1131700109274038AE191E09F938F9388EF92E0A3
S11317109F938F930E94950C0F900F900F900F90B2
S1131720089580914603893010F010924603809109
S11317307403813031F008F47EC0823009F440C073
S113174068C020914603822F90E0FC01EE0FFF1F3A
S1131750EE0FFF1F8E0F9F1FFC01E95BFC4F808182
S1131760811166C0293008F066C02F5F822F90E097
S1131770FC01EE0FFF1FEE0FFF1F8E0F9F1FFC01DA
S1131780E95BFC4F8081882319F02093460350C005
S113179081E0820F8A3019F4209346030895282F9C
S11317A0E5CFECE7F0E08081807F282B2083EAE717
S11317B0F0E080818064808382E0809374030895E4
S11317C080917A0084FF37C02091460330E08091F5
S11317D0780090E0F901EE0FFF1FEE0FFF1FE20FFC
S11317E0F31FE95BFC4F9483838320917900922B50
S11317F09483838381E08183EAE7F0E090819F7E94
S1131800908380937403809146038F5F8093460393
S113181008958CE091E09F938F9389ED92E09F93DC
S11318208F930E94950C0F900F900F900F90089536
S1131830293008F4B6CF0895882349F081E08093D5
S11318407403EAE7F0E08081806880830895109251
S11318507403EAE7F0E080818F778083089589300C
S113186040F042EC52E06FEB70E084EA92E00E94B8
S1131870AB1990E0FC01EE0FFF1FEE0FFF1F8E0F60
S11318809F1FFC01E95BFC4F60830895893040F0A1
S11318904DE852E061ED70E08FE692E00E94AB19F2
S11318A090E0FC01EE0FFF1FEE0FFF1FE80FF91F82
S11318B0E95BFC4F20812223E9F0FC01EE0FFF1FBE
S11318C0EE0FFF1FE80FF91FE95BFC4F2181222374
S11318D099F0FC01EE0FFF1FEE0FFF1F8E0F9F1FED
S11318E0FC01E95BFC4F83819481FB01918380833C
S11318F081E0089580E0089580E00895893040F003
S113190048E552E063EE70E08AE392E00E94AB198E
S113191090E0FC01EE0FFF1FEE0FFF1F8E0F9F1FC5
S1131920FC01E95BFC4F818108950F931F93CF93D2
S1131930DF93CDB7DEB7C055D1090FB6F894DEBF3B
S11319400FBECDBFFE01E95AFF4F419151919F0156
S113195060E570E08E010F5F1F4FC8010E94712582
S11319608AE061968FAF6197F80101900020E9F752
S11319703197BF01601B710BC8010E948814C05BC2
S1131980DF4F0FB6F894DEBF0FBECDBFDF91CF910E
S11319901F910F9108950E94761486E291E09F931F
S11319A08F938EE393E09F938F930E94950C0F90F7
S11319B00F900F900F900895892B41F440E353E06A
S11319C06EE670E080E193E00E94AB190E948214FD
S11319D008952A9A089580E00E94C3132A980895CE
S11319E038984098229A2A983A980895409A389AB2
S11319F08BED90E00197F1F700C000003898409813
S1131A000E946A146093750370937603809377033E
S1131A109093780308950E94F00C0E94F60C8FE2D4
S1131A2095E70197F1F700C000000895CF93C62F02
S1131A30823740F04DEA53E066E275E08DE893E0CA
S1131A400E94AB1940E050E06BEE7CE080680E949D
S1131A50551349EE5CE060E070E08C2F0E94551352
S1131A60CF91089584E991E09F938F9388E997E05B
S1131A709F938F930E94950C60E188E20E94160D5B
S1131A800F900F900F900F9008958195682F660F17
S1131A9089E20E94160D0895CF92DF92EF92FF9291
S1131AA00F931F93CF93DF93C62FD72F182F092F90
S1131AB00E94722420E034E244E752E40E94DE23D0
S1131AC00E9446246B017C010F931F93DF93CF93F5
S1131AD084E797E09F938F930E94950CFF92EF9277
S1131AE0DF92CF928EE597E09F938F930E94950C9F
S1131AF0B7018827992787E00E94160D99278F2D13
S1131B007E2D6D2D88E00E94160D6C2D89E00E94BB
S1131B10160D8DB79EB70C960FB6F8949EBF0FBEE8
S1131B208DBFDF91CF911F910F91FF90EF90DF90C8
S1131B30CF900895CF92DF92EF92FF929B01AC0178
S1131B4060E078E488EE91E00E94282569017A013A
S1131B50632F772783E00E94160D6C2D84E00E948A
S1131B60160DFF90EF90DF90CF900895682F89E3D2
S1131B700E94160D0895682F8AE30E94160D089599
S1131B800F931F93CF93DF93EC01C93582E0D807FD
S1131B9040F446E656E065ED72E086E496E00E9485
S1131BA0AB19BE0180E090E00E94722420E034E290
S1131BB044E752E40E94DE230E944624162F072F96
S1131BC0DF93CF9381E396E09F938F930E94950CCC
S1131BD00F931F9382E196E09F938F930E94950C3D
S1131BE0602F85E00E94160D612F86E00E94160D7D
S1131BF08DB79EB708960FB6F8949EBF0FBE8DBFE3
S1131C00DF91CF911F910F910895CF93C82F692F22
S1131C108CE20E94160D6C2F8DE20E94160DCF915E
S1131C200895CF93DF93EB01823740F046E753E00A
S1131C3060E375E086E593E00E94AB1940E050E074
S1131C406BEE7CE08F770E94551349EE5CE060E018
S1131C5070E0CE010E946B13DF91CF910895CF9372
S1131C60DF931F92CDB7DEB7BE016F5F7F4F88E26F
S1131C700E94110E9981892F881F8827881F0F9031
S1131C80DF91CF9108950F931F93CF93DF93062F86
S1131C90633420F461110AC010E025C04DEE57E012
S1131CA062E071E08DEC97E00E94AB19C82FD92F48
S1131CB010E00E942F0E882379F027EA31E03F9349
S1131CC02F9321EB37E03F932F930E94950C0F90B5
S1131CD00F900F900F9007C0699180E00E94160D3D
S1131CE01F5F1013E6CF812FDF91CF911F910F91CA
S1131CF008951F93CF93DF931F92CDB7DEB7182FAC
S1131D00BE016F5F7F4F87E30E94110E61E0612780
S1131D10660F660F660F8981877F682B698387E367
S1131D200E94160D0F90DF91CF911F9108951F937C
S1131D30CF93DF931F92CDB7DEB7182FBE016F5F2D
S1131D407F4F87E30E94110E20E1129FC0011124EE
S1131D5069816F7E682B698387E30E94160D0F905B
S1131D60DF91CF911F910895CF93DF931F92CDB749
S1131D70DEB7BE016F5F7F4F81E00E94110E898143
S1131D808C71869586950F90DF91CF9108951F935E
S1131D90CF93DF931F92CDB7DEB7182FBE016F5FCD
S1131DA07F4F81E00E94110E110F110F6981637E34
S1131DB0612B698381E00E94160D0F90DF91CF9112
S1131DC01F910895CF93DF931F92CDB7DEB7BE0165
S1131DD06F5F7F4F87E20E94110E8981881F8827D9
S1131DE0881F0F90DF91CF910895CF92DF92EF92E9
S1131DF0FF920E946A146B017C0119C0C701B601ED
S1131E000E94EC156B3071058105910580F08AE71D
S1131E1091E09F938F9380E897E09F938F930E9424
S1131E20950C0F900F900F900F9080E005C00E94CA
S1131E30E20E882319F381E0FF90EF90DF90CF90BA
S1131E4008951F93CF93DF931F92CDB7DEB7182F5A
S1131E50BE016F5F7F4F81E00E94110E69816F7B2D
S1131E60612B698381E00E94160D0F90DF91CF9161
S1131E701F9108951F93CF93DF931F92CDB7DEB7C1
S1131E80182FBE016F5F7F4F81E00E94110E81E029
S1131E901827698110FB67F969830E94160D0F905A
S1131EA0DF91CF911F9108951F93CF93DF931F92DA
S1131EB0CDB7DEB7182FBE016F5F7F4F8DE30E9451
S1131EC0110EAE014F5F5F4F612F80E00E94270A21
S1131ED069818DE30E94160D0F90DF91CF911F91C0
S1131EE008951F93CF93DF931F92CDB7DEB7182FBA
S1131EF0BE016F5F7F4F87E30E94110E61E01111F5
S1131F0001C060E0AE014F5F5F4F87E00E94270A87
S1131F10698187E30E94160D0F90DF91CF911F9185
S1131F2008951F93CF93DF931F92CDB7DEB7182F79
S1131F30BE016F5F7F4F8CE30E94110E61E01111AF
S1131F4001C060E0AE014F5F5F4F87E00E94270A47
S1131F5069818CE30E94160D0F90DF91CF911F9140
S1131F600895CF93DF931F92CDB7DEB7BE016F5FA5
S1131F707F4F8DE30E94110E6981646069838DE354
S1131F800E94160D0F90DF91CF9108951F93CF9368
S1131F90DF931F92CDB7DEB7182FBE016F5F7F4F5F
S1131FA08DE30E94110E20E1129FC001112469816A
S1131FB06F70682B69838DE30E94160D0F90DF917B
S1131FC0CF911F9108951F93CF93DF931F92CDB7A5
S1131FD0DEB7182F833040F040E557E069E572E042
S1131FE080E397E00E94AB19BE016F5F7F4F87E3E8
S1131FF00E94110E110F6981697F612B698387E348
S11320000E94160D0F90DF91CF911F9108951F9399
S1132010CF93DF931F92CDB7DEB7182FBE016F5F4A
S11320207F4F82E00E94110E20E2129FC001112412
S113203069816F79682B698382E00E94160D0F9085
S1132040DF91CF911F9108951F93CF93DF931F9238
S1132050CDB7DEB7182F823040F047EF56E060EA84
S113206072E087ED96E00E94AB19BE016F5F7F4F6F
S113207082E00E94110E110F110F110F6981677E0A
S1132080612B698382E00E94160D0F90DF91CF913E
S11320901F9108951F93CF93DF931F92CDB7DEB79F
S11320A0182F843040F04DEB56E06FEB72E08DE971
S11320B096E00E94AB191F928F9320E836E03F937D
S11320C02F930E94950CBE016F5F7F4F82E00E94A8
S11320D0110E69816C7F612B698382E00E94160D69
S11320E00F900F900F900F900F90DF91CF911F9151
S11320F008950F931F93CF93DF931F92CDB7DEB74D
S11321009EEF980F933040F047EF55E06BEE72E08E
S113211087ED95E00E94AB19082F10E01F928F9372
S113212088EB95E09F938F930E94950CBE016F5F9F
S11321307F4F81E10E94110E000F111F029512952D
S1132140107F1027007F102769816F71602B6983CE
S113215081E10E94160D0F900F900F900F900F9039
S1132160DF91CF911F910F9108951F93CF93DF9328
S11321701F92CDB7DEB7182F803240F046EA55E003
S113218062E073E086E895E00E94AB19BE016F5FE0
S11321907F4F81E10E94110E6981607E612B69830A
S11321A081E10E94160D0F90DF91CF911F91089548
S11321B01F93CF93DF931F92CDB7DEB7182FBE01C5
S11321C06F5F7F4F83E10E94110EAE014F5F5F4F3F
S11321D0612F84E00E94270A698183E10E94160D21
S11321E00F90DF91CF911F910895CF92DF92EF92DC
S11321F0FF92CF93DF931F92CDB7DEB761E083E206
S11322000E94160D0E946A146B017C01BE016F5F6F
S11322107F4F83E20E94110EC701B6010E94EC15A4
S1132220653F71408105910580F089E491E09F93B9
S11322308F9388E195E09F938F930E94950C0F9064
S11322400F900F900F9080E00CC089818823F1F2E9
S1132250BE016F5F7F4F84E20E94110E89818695D3
S113226081950F90DF91CF91FF90EF90DF90CF9009
S113227008951F93CF93DF931F92CDB7DEB7182F26
S11322808FEF810F883040F041EF54E06FED73E041
S113229081ED94E00E94AB19BE016F5F7F4F8EE227
S11322A00E94110E812F90E00197880F991F880FCB
S11322B0991F880F991F6981677C682B69838EE257
S11322C00E94160D0F90DF91CF911F910895CF9327
S11322D0DF931F92CDB7DEB7BE016F5F7F4F8EE2F3
S11322E00E94110E898186958695869587708F5FE9
S11322F00F90DF91CF9108950F931F93CF93DF93A6
S1132300EC01162F0E946711811306C08823E1F1A6
S11323109881911128C017C01F921F9384E391E004
S11323209F938F9385EA94E09F938F930E94950CDB
S11323300F900F900F900F900F900F9080E027C098
S11323402191211113C084E391E09F938F9388E737
S113235094E09F938F930E94950C0F900F900F9091
S11323600F9080E014C0FE01319690E09F5F9813B7
S1132370E7CF0FE2080F1FE26991812F0E94160D2B
S11323801F5F1013F9CF02C081E001C081E0DF912B
S1132390CF911F910F9108951F93CF93DF931F92B5
S11323A0CDB7DEB7182FBE016F5F7F4F8EE20E945C
S11323B0110EAE014F5F5F4F612F87E00E94270A25
S11323C069818EE20E94160D0F90DF91CF911F91CB
S11323D008951F93CF93DF931F92CDB7DEB7182FC5
S11323E0BE016F5F7F4F8EE20E94110E61E01111FA
S11323F001C060E0AE014F5F5F4F86E00E94270A94
S113240069818EE20E94160D0F90DF91CF911F918A
S113241008951F93CF93DF931F92CDB7DEB7182F84
S1132420883040F04CE554E06CEB74E08CE394E0CD
S11324300E94AB19BE016F5F7F4F86E20E94110EAE
S11324406981687F612B86E20E94160D0F90DF91EF
S1132450CF911F9108951F93CF93DF931F92CDB710
S1132460DEB7182F873040F044E254E064ED74E0A6
S113247084E094E00E94AB19BE016F5F7F4F88E156
S11324800E94110E6981687F612B88E10E94160DFC
S11324900F90DF91CF911F9108951F93CF93DF93F6
S11324A01F92CDB7DEB7182F823040F044EE53E0D0
S11324B063EE74E084EC93E00E94AB19BE016F5F9D
S11324C07F4F88E10E94110E61E0111101C060E0AC
S11324D0AE014F5F5F4F87E00E94270A698188E160
S11324E00E94160D0F90DF91CF911F9108951F93B5
S11324F0CF93DF931F92CDB7DEB7182FBE016F5F66
S11325007F4F8BE00E94110EAE014F5F5F4F612F32
S113251085E00E94270A69818BE00E94160D0F90C6
S1132520DF91CF911F910895CF93DF931F92CDB781
S1132530DEB7BE016F5F7F4F8BE00E94110E998161
S113254081E095FF80E00F90DF91CF91089588237B
S113255031F00E949412882321F060E203C060E00D
S113256001C060E38FE60E94160D0895CF93DF93B8
S11325701F92CDB7DEB7BE016F5F7F4F87E20E9427
S1132580110E998181E095FF80E00F90DF91CF914A
S11325900895CF93DF931F92CDB7DEB7BE016F5F6F
S11325A07F4F83E10E94110E998181E094FF80E0C6
S11325B00F90DF91CF9108958823D9F00E94C9121A
S11325C0882371F08AE591E09F938F9387E495E0E7
S11325D09F938F930E94950C0F900F900F900F90E4
S11325E06DE58AE50E94160D6CE78CE50E94160DD8
S11325F0089565E58AE50E94160D60E78CE50E9462
S1132600160D0895CF93DF931F92CDB7DEB7BE01A9
S11326106F5F7F4F88E20E94110E998181E092FFE3
S113262080E00F90DF91CF910895CF93DF931F92B5
S1132630CDB7DEB7BE016F5F7F4F88E20E94110EF7
S1132640998181E093FF80E00F90DF91CF9108950D
S1132650CF93DF931F92CDB7DEB7BE016F5F7F4F7D
S113266088E20E94110E998181E096FF80E00F902C
S1132670DF91CF9108950F931F93CF93DF93062F8C
S1132680EC0110E006C0BE0180E00E94110E1F5F45
S113269021960E942813882311F01013F4CF812F60
S11326A0DF91CF911F910F9108951F93CF93DF93E3
S11326B0182FEA016115710511F0FB0109951EBD82
S11326C00DB407FEFDCF209711F0FE010995DF91AF
S11326D0CF911F9108950F931F93CF93DF938C0194
S11326E0EA016115710511F0FB0109951EBC0DB4D9
S11326F007FEFDCF8EB5F8018083209711F0FE010F
S11327000995DF91CF911F910F910895EF92FF9258
S11327100F931F93CF93DF93EC018B017901009703
S113272041F445E458E065ED70E087E298E00E94EA
S1132730AB194115510511F0FA010995011511055F
S113274061F0BE01600F711F1EBC0DB407FEFDCF0A
S11327508EB58993C617D707B9F7E114F10411F0C0
S1132760F7010995DF91CF911F910F91FF90EF90A1
S11327700895882321F08CB580618CBD08958CB5B3
S11327808F7E8CBD0895813059F028F0823081F01D
S11327908330B1F01AC08CB5837F8CBD81E008957D
S11327A08CB5877F8CBD8CB584608CBD81E0089529
S11327B08CB588608CBD8CB58B7F8CBD81E0089511
S11327C08CB58C608CBD81E008958CEB91E09F9377
S11327D08F9385E098E09F938F930E94950C0F90C0
S11327E00F900F900F9080E00895CF93C82F84B17D
S11327F08C6284B9249881E08CBD0E94B9138C2F1B
S11328000E94C3138823A1F08CB580648CBD109200
S11328107A038BEC91E09F938F9388E898E09F93E1
S11328208F930E94950C0F900F900F900F9012C0F1
S11328301F92CF938BEC91E09F938F9384E598E064
S11328409F938F930E94950C0F900F900F900F9071
S11328500F900F9010927903CF9108951F920F92C9
S11328600FB60F9211248F939F93AF93BF938091D0
S1132870230490912404A0912504B0912604019688
S1132880A11DB11D8093230490932404A0932504D7
S1132890B0932604BF91AF919F918F910F900FBE7B
S11328A00F901F90189510922304109224041092F4
S11328B025041092260484B5826084BD85B58360A6
S11328C085BD8DE787BDEEE6F0E080818260808380
S11328D0789408952FB7F894609123047091240498
S11328E080912504909126042FBF08951092C5006D
S11328F081E08093C40088E18093C10086E08093E6
S1132900C2000895E0ECF0E0808185FFFDCF0895DA
S1132910DF92EF92FF920F931F93CF93DF93D62E04
S1132920662369F0C82FD92FF12C06EC10E0E9904A
S11329300E948214F801E082F394FD10F8CFDF9135
S1132940CF911F910F91FF90EF90DF900895CF9357
S1132950DF93EC01009741F444E25AE062E870E04E
S113296089E09AE00E94AB190E94D11ECE01019623
S11329700E94C41ECE0102960E94B81ECE01039688
S11329800E94491ECE0104960E941B1ECE0105968C
S11329900E94EC1D81E0DF91CF910895CF93DF93E6
S11329A0EC01009741F44CEF59E068EA70E081EEE5
S11329B099E00E94AB1961E08B810E946F1E61E077
S11329C08C810E94271E61E08D810E94F91D81E0A7
S11329D0DF91CF910895AC0183709927892B71F50C
S11329E09A013695279536952795ABE7B4E10E9471
S11329F04A259695879564E6689F9001699F300DF6
S1132A00112442175307E1F49A01329522952F704D
S1132A1023273F702327AEE3BAE00E944A2520E92A
S1132A2031E0829FB001839F700D929F700D11243D
S1132A3081E04617570729F080E0089580E0089563
S1132A4081E00895009741F447EE58E068E771E0AB
S1132A508CEC98E00E94AB19FC012081620F60832A
S1132A60643640F04BEB58E06BE771E080EA98E0A5
S1132A700E94AB190895FC01009741F44FE059E01E
S1132A8062E671E084EF98E00E94AB192181862F01
S1132A9090E0820F911D6CE070E00E941425818308
S1132AA06115710519F0CF010E94221508950F9345
S1132AB01F93CF93DF93EC01062F009741F44CE56D
S1132AC059E062E471E081E499E00E94AB199981D4
S1132AD0E92FF0E0EA52FE4F1081923041F48881F0
S1132AE090E08053984F0E94EB1481111F5F2A815C
S1132AF0802F90E0820F911D612F70E00E941425B9
S1132B00262F372F8A832230310540F047E359E0DE
S1132B1060E571E08CE199E00E94AB19232B19F078
S1132B20CE010E943B15DF91CF911F910F91089523
S1132B30FC01009741F444E859E06CE271E089E655
S1132B4099E00E94AB192381862F90E0820F911D9A
S1132B5068E170E00E94142583836115710519F002
S1132B60CF010E9457150895FC01009741F44CEAE7
S1132B7059E066E171E081E999E00E94AB19248192
S1132B80862F90E0820F911D6CE370E00E94142563
S1132B9084836115710519F0CF010E949815089579
S1132BA0FC01009741F444ED59E060E071E089EBE9
S1132BB099E00E94AB192581862F90E0820F911D28
S1132BC06CE370E00E94142585836115710519F08A
S1132BD0CF010E94B4150895CF92DF92EF92FF9235
S1132BE06B017C010E946A146C157D058E059F059E
S1132BF068F4DC01CB018C199D09AE09BF09BC0145
S1132C00CD01615071098109910904C06C197D09D4
S1132C108E099F09FF90EF90DF90CF900895CF9396
S1132C20DF93EC0184EF9BE09F938F930E94950CBC
S1132C3089811F928F9380EF9BE09F938F930E94D3
S1132C40950C8A811F928F938CEE9BE09F938F93B8
S1132C500E94950C8B811F928F9388EE9BE09F932B
S1132C608F930E94950C2C81822F992787FD909534
S1132C709F932F9384EE9BE09F938F930E94950CD8
S1132C8088811F928F9380EE9BE09F938F930E9485
S1132C90950C8A851F928F9389851F928F938885BF
S1132CA01F928F938F811F928F938E811F928F9388
S1132CB08D811F928F938FEB9BE09F938F930E9444
S1132CC0950C8DB79EB784960FB6F8949EBF0FBE31
S1132CD08DBF8B851F928F938BEB9BE09F938F937C
S1132CE00E94950C8C851F928F9386EB9BE09F939B
S1132CF08F930E94950C8DB79EB708960FB6F894E3
S1132D009EBF0FBE8DBFDF91CF910895CF93DF9308
S1132D10CDB7DEB7C154D1090FB6F894DEBF0FBEEC
S1132D20CDBF61E0CE0101960E943B1369816234FC
S1132D3080F083E192E09F938F938DE29CE09F93D8
S1132D408F930E94950C0F900F900F900F9080E03E
S1132D503BC0CE0102960E943B1385E0FE013196F2
S1132D60A5E8B3E001900D928A95E1F78CE1FE01AC
S1132D703696AAE8B3E001900D928A95E1F785E8CA
S1132D8093E00E940F16E0919003E43070F4F0E0B9
S1132D90EE0FFF1FE358FC4F0190F081E02D3097B8
S1132DA021F085E893E009950FC083E192E09F93B9
S1132DB08F938AEF9BE09F938F930E94950C0F90C3
S1132DC00F900F900F9080E0CF5BDF4F0FB6F89419
S1132DD0DEBF0FBECDBFDF91CF9108950E940B0DD2
S1132DE080E00E94540F81E00E943A0F80E00E942C
S1132DF0210F83E00E94C60F81E00E94C70E0E944B
S1132E00F50E8EE090E00E94050E80E00E942B12E9
S1132E1081E00E944D1280E00E94771280E00E94BF
S1132E20A71260EC72E180E090E00E949A0D80E0CD
S1132E300E94071080E00E94241080E00E944A1043
S1132E4088E893E10E94C00D60E071EA8CEB93E3A3
S1132E500E944C0D81E00E94CC1180E00E94E91197
S1132E6086EA0E94450D86E00E9439110E94D60A26
S1132E7066E00E947C1181E00E94910F0E94DE0AAC
S1132E800E94B60D8FEF0E94BB0D82E00E94E30FFB
S1132E900E94320D81E00E94710F81E00E94970E22
S1132EA081E00E94790E87E00E94091280E00E946E
S1132EB0D81083E00E9479108CE10E94B51080E064
S1132EC00E94DC1281E00E94C70E0E94F50E83E28C
S1132ED0E5E8F3E0DF011D928A95E9F781E080934C
S1132EE0A80385E492E09F938F938DE49DE09F93E4
S1132EF08F930E94950C0F900F900F900F90089550
S1132F008091A8038230B1F128F4882351F08130F4
S1132F10C9F054C1833009F47BC0843009F442C140
S1132F204DC182E392E09F938F9380E29DE09F9353
S1132F308F930E94950C0E94EE160F900F900F90A5
S1132F400F90089580918603882381F081E292E0B6
S1132F509F938F9385EC9CE09F938F930E94950C95
S1132F600F900F900F900F9083E001C081E0809349
S1132F70A803089580917C038130F1F018F0833028
S1132F8061F13AC00E940213882351F08BEA9CE05D
S1132F909F938F930E94950C0E94B10F0F900F90F6
S1132FA080E00E94DC1284E00E94C70E0E94F50EAD
S1132FB081E080937C0328C00E940213882321F1BE
S1132FC081E00E94C70E0E94F50E0E94861684E0DE
S1132FD00E94C70E0E94F50E17C00E94E20E8823BD
S1132FE099F08AE99CE09F938F930E94950C10922C
S1132FF07C030F900F9008C04BE85CE063EB71E03A
S113300088E69CE00E94AB1982E08093A8030895AF
S113301080917B03823009F461C028F4882351F045
S11330208130F1F0ADC0833009F496C0843009F4E6
S1133030AFC0A6C00E9428131F928F938FE99BE014
S11330409F938F930E94950C81E00E94C70E81E0AC
S113305080937B030F900F900F900F9083E09FC09D
S11330600E94E20E882309F495C088E89BE09F93B0
S11330708F930E94950C65E085E893E00E94430ECF
S113308060919103685F8AE893E00E94430E83E0B5
S11330900E94C70E81E00E94DC120E94B6121F92A9
S11330A08F9389E79BE09F938F930E94950C0E94D6
S11330B028131F928F9382E69BE09F938F930E9425
S11330C0950C82E080937B038DB79EB70A960FB66A
S11330D0F8949EBF0FBE8DBF83E061C00E9415139C
S11330E0882309F459C084E59BE09F938F930E9441
S11330F0950C0F900F9080918803882391F082E4BF
S11331009BE09F938F930E94950C84E00E94C70ECE
S113311080E00E94DC1283E080937B030F900F9089
S11331203EC082E39BE09F938F930E94950CE091B5
S1133130A603F091A7030F900F90309711F081E050
S1133140099583E2E5E8F3E0DF011D928A95E9F74A
S113315010927B0381E023C00E9402138823F1F0C4
S11331600E94861681E00E94C70E83E2E5E8F3E040
S1133170DF011D928A95E9F710927B0381E00FC06D
S113318043E25BE064E072E080E09BE00E94AB1904
S113319083E005C083E003C083E001C083E0809343
S11331A0A80308950E94E20E882381F00E94B40EC1
S11331B0882361F080E00E94C70E089541E15DE03C
S11331C068EC70E08EEE9CE00E94AB190895DF92EB
S11331D0EF92FF920F931F93CF93DF93D82EE62E97
S11331E0EA018901209741F440EF5AE060EE70E073
S11331F08DEC9AE00E94AB199F81953180F02CEF01
S113320031E03F932F932BE93AE03F932F930E94B1
S1133210950C0F900F900F900F90F12C02C0FF248B
S1133220F3949091A803913099F50E94F510863A91
S11332307CF5FF2069F1D09286030E94DE0A809318
S11332408703E0928803109289038F81835F8093C0
S1133250850386E0FE01AAE8B3E001900D928A9509
S1133260E1F78E81809390038F81809391034F8146
S113327050E0BE01685F7F4F82E993E00E946825B9
S11332801093A7030093A60385E893E00E940F160A
S11332908F2DDF91CF911F910F91FF90EF90DF90D1
S11332A00895009741F44DE85AE06EE171E08AE632
S11332B09AE00E94AB19FC018481813019F08230BC
S11332C0F9F0089583EE91E09F938F938DE49AE053
S11332D09F938F930E94950C0F900F900F900F90D7
S11332E08091A803833031F40E9480178091A80351
S11332F08330D1F380E00E94C70E0E94F50E08953A
S113330083EE91E09F938F9381E39AE09F938F9351
S11333100E94950C81E00E94C70E0E94F50E0F904A
S11333200F900F900F90089586E592E09F938F93EE
S113333081E79DE09F938F930E94950C88E10FB6DF
S1133340F89480936000109260000FBE0F900F906D
S11333500F900F90FFCFCF93DF93CDB7DEB7C0545C
S1133360D1090FB6F894DEBF0FBECDBFD62EC72E3F
S11333707A018E01075D1F4F48E150E0BC01C8018E
S11333800E94592521961FAE219748E250E0B701CB
S1133390CE0101967C010E94592518A6FF92EF9256
S11333A0CF92DF921F930F9381EB9DE09F938F93B6
S11333B00E94950C0E9494197F928F929F92AF92D3
S11333C0BF92CF92DF92EF92FF920F931F93CF930E
S11333D0DF9300D000D0CDB7DEB70F2EFFE1EF2E84
S11333E0F0E0FF2EF02D00E010E0812C912C540130
S11333F044E050E0B701CE0101960E946F27898115
S11334009A81AB81BC8188169906AA06BB06B0F0E6
S11334100093AA032FEF821A920AA20AB20A809298
S1133420A9031F930F9385ED9DE09F938F930E94B3
S1133430950C0F900F900F900F9012C00F5F1F4FBD
S11334402AE0E20EF11C0035110519F04C015D0172
S1133450CFCF1092AA030196A11DB11D8093A90399
S11334600F900F900F900F90DF91CF911F910F91BC
S1133470FF90EF90DF90CF90BF90AF909F908F9090
S11334807F900895CF93C82F843040F046EF5DE0DD
S113349067E870E08BEE9DE00E94AB190E946A140D
S11334A06093AB037093AC038093AD039093AE032E
S11334B0C33018F4C13018F009C0C33069F460E0B7
S11334C080E00E94871DC093AF0306C061E080E0E6
S11334D00E94871DC093AF03CF910895FC0184819E
S11334E0823069F018F4813031F00895833059F056
S11334F0843029F0089583E00E94421A089580E000
S11335000E94421A089582E00E94421A08951F926E
S11335100F920FB60F9211242F933F938F939F9383
S1133520AF93BF93EF93FF9380910B0490910C049E
S1133530A0910D04B0910E048B97A105B10530F54F
S113354080910B0490910C04A0910D04B0910E0491
S11335502091860030918700880F991FFC01EB545D
S1133560FC4F3183208380910B0490910C04A09133
S11335700D04B0910E040196A11DB11D80930B049E
S113358090930C04A0930D04B0930E04FF91EF915B
S1133590BF91AF919F918F913F912F910F900FBE4B
S11335A00F901F901895209A289A82E080931C040B
S11335B00E946A1460930F047093100480931104A2
S11335C09093120410921B0485E992E09F938F93C9
S11335D088E99EE09F938F930E94950C0F900F9023
S11335E00F900F9008958F929F92AF92BF92CF92B7
S11335F0DF92EF92FF920F931F93CF93DF9300D04C
S113360000D01F92CDB7DEB780911C04823059F0F0
S113361020F4813009F4AAC1A1C18330C1F08430FF
S113362009F4CBC09BC160910F0470911004809188
S11336301104909112040E94EC15693E73408105B7
S1133640910508F493C181E080931C048FC180919B
S1133650B4038130B1F020F0823009F448C09FC037
S11336600E946A146093B0037093B1038093B20311
S11336709093B303209A289881E08093B40383E065
S113368099C06091B0037091B1038091B20390919D
S1133690B3030E94EC15623071058105910508F4AD
S11336A086C0289A20980E946A146093B00370938D
S11336B0B1038093B2039093B30310920B0410925E
S11336C00C0410920D0410920E04E1E8F0E08081E5
S11336D08260808380818F778083EFE6F0E0808151
S11336E08062808382E08093B40383E063C080912E
S11336F00B0490910C04A0910D04B0910E048B97CF
S1133700A105B10591F4EFE6F0E080818F7D80831F
S1133710E1E8F0E08081887F808310928500109238
S113372084001092B40314E001C013E06091B0036C
S11337307091B1038091B2039091B3030E94EC1590
S11337406730710581059105A0F181E892E09F93AE
S11337508F938DE49EE09F938F930E94950CEFE6E8
S1133760F0E080818F7D8083E1E8F0E08081887FD4
S1133770808310928500109284001092B4030E94FA
S11337806A1460930F04709310048093110490934F
S113379012040F900F900F900F9082E00BC04EE335
S11337A05EE067E271E08EE29EE00E94AB1983E086
S11337B001C0812F80931C04D9C0DE01119685E0DD
S11337C0FD0111928A95E9F74091B9035091BA032A
S11337D0D12C0F2EF7E0BF2EF02DC12C01E010E00C
S11337E02AC08F2D90E0FC01EE0FFF1FEB54FC4F1D
S11337F060817181FB01E41BF50BE536F10550F0A6
S11338006C91A801022E02C0440F551F0A94E2F7DE
S1133810462B4C93FC01EE0FFF1FEB54FC4F4081F1
S11338205181F39421503109FE10DBCFD3941196CA
S1133830F5E0DF1689F08D2D880F880F880F0F2E85
S1133840FBE0EF2EF02DE80E0F2EF3E0FF2EF02D0F
S1133850F80E2B2D3C2DC5CF698170E08A80912C08
S1133860AB80B12C0C8110E02D8130E0CB01880DB0
S1133870991D8A0D9B1D800F911F992728173907C1
S113388009F04EC0762F6627882777FD8095982FFC
S11338900E9474246B017C01B401882777FD809514
S11338A0982F0E9474249B01AC01C701B6010E94A9
S11338B07A2320E030E040E251E40E94DE2360936A
S11338C013047093140480931504909316047A2DB2
S11338D06627882777FD8095982F0E9474246B01B2
S11338E07C01B801882777FD8095982F0E94742465
S11338F09B01AC01C701B6010E947A2320E030E0AD
S113390040E251E40E94DE2360931704709318048C
S11339108093190490931A0481E080931B0410C0CF
S113392083E792E09F938F9382E19EE09F938F932E
S11339300E94950C10921B040F900F900F900F9003
S11339400E946A1460930F0470931004809311040E
S11339509093120481E080931C0408C049E85EE05F
S113396067E970E089E79EE00E94AB190F900F9021
S11339700F900F900F90DF91CF911F910F91FF90B7
S1133980EF90DF90CF90BF90AF909F908F9008956D
S113399029E0E3E1F4E0DC0101900D922A95E1F7DE
S11339A010921B04089580911B04089580911C04B7
S11339B0813019F483E080931C0408955A9A089581
S11339C080E00E94C3135A980895529A5A9A3E9AD4
S11339D046980895CF93DF93EC0140E050E060EE09
S11339E07CE18FE90E9455132EED3CE140E050E06C
S11339F063E070E0CE010E94861388811F928F934A
S1133A0089ED9EE09F938F930E94950C89811F926C
S1133A108F9383EC9EE09F938F930E94950C8A81F1
S1133A201F928F9380EB9EE09F938F930E94950C3F
S1133A308DB79EB70C960FB6F8949EBF0FBE8DBF80
S1133A40DF91CF910895CF93DF9300D000D000D0C1
S1133A50CDB7DEB7CE0101960E94EA1C40E050E0EB
S1133A606EED7CE185E00E9455134EED5CE160E073
S1133A7070E0CE0104960E946B1340E050E06EEDBE
S1133A807CE185E30E9455134EED5CE160E070E05B
S1133A90CE0105960E946B1340E050E06EED7CE190
S1133AA083E30E9455134EED5CE160E070E0CE01CB
S1133AB006960E946B138C811F928F9380E19FE086
S1133AC09F938F930E94950C8D811F928F9380E01A
S1133AD09FE09F938F930E94950C8E811F928F93EA
S1133AE080EF9EE09F938F930E94950C0FB6F894FD
S1133AF0DEBF0FBECDBF26960FB6F894DEBF0FBE55
S1133B00CDBFDF91CF9108950E94231D08956623B0
S1133B1011F05D9A08955D9808955C9A0895CF9385
S1133B20DF93C82FD62F803240F04AE350E165E29C
S1133B3073E087E290E10E94AB1940E050E062EE4E
S1133B407DE182E10E94551340E050E060E070E0C6
S1133B508C2F0E9455134DE85DE160E070E08D2FDD
S1133B600E945513DF91CF9108951F93CF93DF9354
S1133B701F92CDB7DEB7182F803240F04CE550E1EC
S1133B8065E373E089E490E10E94AB1940E050E002
S1133B9062EE7DE183E10E94551340E050E060E075
S1133BA070E0812F0E9455134DE85DE160E070E004
S1133BB0CE0101960E946B1389810F90DF91CF9102
S1133BC01F91089580E00E94C3135C980895549A4D
S1133BD05C9A53985B9A0895CF93DF93EC0181E04C
S1133BE00E94B51D8F770E94FC098883DF91CF91D5
S1133BF00895CF938C3340F04EE150E164EC70E0D3
S1133C008BE090E10E94AB19623040F04BEF5FE033
S1133C1065EC70E088EE9FE00E94AB19611102C070
S1133C20CCE001C0C3E10E94070A682F8C2F0E94D8
S1133C308F1DCF910895CF93DF93EC0182E00E9412
S1133C40B51D0E94FC098883DF91CF910895CF931D
S1133C508C3340F04CED5FE062EF70E089EC9FE064
S1133C600E94AB19623040F049EB5FE063EF70E013
S1133C7086EA9FE00E94AB19611102C0CDE001C049
S1133C80C4E10E94070A682F8C2F0E948F1DCF91D8
S1133C9008950F931F93CF93DF931F92CDB7DEB791
S1133CA08C0183E00E94B51D8983BE016F5F7F4F45
S1133CB086E00E94500A811104C089818F73898330
S1133CC003C089818F71898389810E94FC09F8016D
S1133CD080830F90DF91CF911F910F910895FF92F0
S1133CE00F931F93CF93DF931F92CDB7DEB7182F97
S1133CF0883140F04CE95FE06CE371E089E89FE0D3
S1133D000E94AB19623040F049E75FE06DE371E077
S1133D1086E69FE00E94AB19611102C00EE001C06B
S1133D2005E1802F0E94B51D8983BE016F5F7F4F1F
S1133D3086E00E94500A811109C06981607CF62ED8
S1133D40812F0E94070A6F2D682B08C06981607E4D
S1133D50F62E812F0E94070A6F2D682B802F0E9458
S1133D608F1D0F90DF91CF911F910F91FF900895B8
S1133D70CF93DF93EC0185E00E94B51D0E94FC09FE
S1133D808883DF91CF910895CF93DF93EC0186E090
S1133D900E94B51D8F710E94FC098883DF91CF9129
S1133DA00895CF93DF93EC0187E00E94B51D0E9434
S1133DB0FC098883DF91CF910895CF93C82F81E0C8
S1133DC00E94B51DCC2319F0682F606802C0682FCB
S1133DD06F7781E00E948F1DCF910895CF93DF9379
S1133DE0D82FC62F623040F046E55FE061E372E011
S1133DF083E49FE00E94AB1988E00E94B51DDD2397
S1133E0061F0CC5FE1E0F0E0AF0102C0440F551F68
S1133E10CA95E2F7682F642B0CC0CC5F41E050E0F8
S1133E209A0102C0220F331FCA95E2F72095682F2A
S1133E30622388E00E948F1DDF91CF9108951F9324
S1133E40CF93DF931F92CDB7DEB7182F88E00E947F
S1133E50B51D8983AE014F5F5F4F612F86E00E94DD
S1133E60270A698188E00E948F1D0F90DF91CF910E
S1133E701F9108950E94E71D80E00E941F1F81E0AA
S1133E800E94DD1E83EA92E09F938F938BE690E17C
S1133E909F938F930E94950C0F900F900F900F900B
S1133EA00895CF93823040F043E35FE065E872E029
S1133EB080E29FE00E94AB19811102C0CFE001C0F3
S1133EC0C6E18C2F0E94B51D682F677F8C2F0E943E
S1133ED08F1DCF9108951F920F920FB60F92112448
S1133EE00F900FBE0F901F90189587B18D7E87B9E4
S1133EF0419A449A80EC8093640061E087E00E94D8
S1133F002F0C08950E94660A811108C043E950E10C
S1133F106AE770E083E890E10E94AB19E9E6F0E01B
S1133F208081837F8083E99A83B7817F846083BFA4
S1133F3083B7816083BF889583B78E7F83BFE998F9
S1133F40089586B18695817091E08927089586B198
S1133F508295817091E089270895CF93DF9300D0F3
S1133F60CDB7DEB7BE016F5F7F4F87E00E94460C7E
S1133F7029813A81A4EEBCE00E944A25052E5AE02C
S1133F8096958795779567955A95D1F7502D0E9408
S1133F9072242BE93CE642E75FE30E94DE230E94A1
S1133FA046240F900F90DF91CF91089587E00E94EF
S1133FB07E0C089581E0809321040895CF93DF93CC
S1133FC0CDB7DEB72B970FB6F894DEBF0FBECDBFCB
S1133FD0F4B614BE88E10FB6F89480936000109292
S1133FE060000FBE0E94F00C0E94E71D0E94E51CB9
S1133FF00E94CB0C08EC12E01F930F9386E791E12B
S11340009F938F930E94950C1F92FF921F930F937F
S113401085E591E19F938F930E94950C0E946A0B12
S11340200E94531480E00E94F51381E00E941C0C4E
S11340300E94D31A0E94751F0E94841D0E948A0A3E
S11340400E943A1F0E94DC190E94EC220E94EE1684
S11340500E94392162E08CE693E20E94E10A62E068
S113406089E892E20E94E10A60E08EE69AE10E9409
S1134070E10A60E081E599E10E94E10A68E08AEDE5
S11340809FE10E94E10A61E080E00E94EE1E81E06F
S11340900E94511F61E08CED9CE00E94E10A1F9395
S11340A00F9389E391E19F938F930E94950C0E9453
S11340B06A1460931D0470931E0480931F049093EC
S11340C020040FB6F894DEBF0FBECDBF01E214E0AA
S11340D00F2EFDE1CF2EF4E0DF2EF02D0F2EF8ECA5
S11340E08F2EF2E09F2EF02D0F2EF6E1AF2EF1E190
S11340F0BF2EF02D0F2EF3E06F2EF1E17F2EF02D69
S11341000F2EF4EBEF2EF2E0FF2EF02D0F2EFFEB2F
S11341104F2EF0E15F2EF02D0F2EF2EA2F2EF0E15C
S11341203F2EF02D0E94910B0E943D210E94F31A14
S11341300E94FB220E9480170E94A11F8111F2CFCE
S1134140F801808181110CC0F60160817181828146
S113415093810E94EC15693B7B408105910510F326
S11341600E94AD1F9F938F937F936F939F928F9223
S1134170BF92AF920E94950C0E946B0A9F938F93FB
S11341807F926F920E94950C0E946B0A0FB6F8946E
S1134190DEBF0FBECDBF892B41F442EF50E164EA8C
S11341A070E08DED90E10E94AB19CE0101960E9462
S11341B0A7148E811F928F938D811F928F938C8170
S11341C01F928F93FF92EF925F924F920E94950CF1
S11341D00E94D90ACE0101960E94D015CE01019603
S11341E00E94CE1461E081E00E94EE1E0E946A14D7
S11341F06F83788789879A8781E08B87CE010796BA
S11342000E94070B0E94821F61E080E00E94EE1E64
S113421081E00E94511F0E946A14F6016083718339
S113422082839383F80110820E946A146F837887D3
S113423089879A87F2E0FB87CE0107960E94070BD5
S1134240CE0101960E94A7148E811F928F938D81B7
S11342501F928F938C811F928F93FF92EF923F92C4
S11342602F920E94950C0FB6F894DEBF0FBECDBFFF
S113427059CF81E0809322040895CF93DF9300D037
S113428000D01F92CDB7DEB780912204833009F4A9
S1134290A8C030F4813059F0823009F455C029C1E6
S11342A0843009F4C1C0853009F4E0C022C10E9401
S11342B0A71F8823F1F08DEC92E09F938F9385EFF5
S11342C092E19F938F930E94950C0E946A146983D4
S11342D07A838B839C8383E08D83CE0101960E9435
S11342E0070B84E0809322040F900F900F900F909F
S11342F008C10E94D61F882309F403C10E94AD1F80
S1134300683978408105910508F0FBC08DEC92E096
S11343109F938F9383ED92E19F938F930E94950CCB
S11343200E946A1469837A838B839C8387E08D83DC
S1134330CE0101960E94070B82E0809322040F9025
S11343400F900F900F90DDC00E94A71F8823F1F0FB
S11343508DEC92E09F938F9384EB92E19F938F93E4
S11343600E94950C0E946A1469837A838B839C83D0
S113437083E08D83CE0101960E94070B84E0809335
S113438022040F900F900F900F90BBC00E94D61F75
S1134390882309F4B6C00E94AD1F6C3677408105AE
S11343A0910508F0AEC08DEC92E09F938F938AE85C
S11343B092E19F938F930E94950C0E946A146983E3
S11343C07A838B839C8386E08D83CE0101960E9441
S11343D0070B83E0809322040F900F900F900F90AF
S11343E090C00E94A71F882309F48BC08DEC92E033
S11343F09F938F938BE692E19F938F930E94950CEA
S11344000E946A1469837A838B839C8383E08D83FF
S1134410CE0101960E94070B84E0809322040F9042
S11344200F900F900F906DC00E94A71F811169C05B
S11344308DEC92E09F938F938CE492E19F938F9302
S11344400E94950C0E946A1469837A838B839C83EF
S113445084E08D83CE0101960E94070B85E0809352
S113446022040F900F900F900F904BC00E94A71F33
S11344708823E9F08DEC92E09F938F938DE292E193
S11344809F938F930E94950C0E946A1469837A8388
S11344908B839C8383E08D83CE0101960E94070B5E
S11344A084E0809322040F900F900F900F900E944D
S11344B0A11F811126C08DEC92E09F938F938AE017
S11344C092E19F938F930E94950C0E946A146983D2
S11344D07A838B839C8385E08D83CE0101960E9431
S11344E0070B81E0809322040F900F900F900F90A0
S11344F008C04BEF51E16CEC70E08EEE91E10E944C
S1134500AB190F900F900F900F900F90DF91CF91F8
S11345100895892B41F440EE51E162E770E083EDA8
S113452091E10E94AB190E94AD1F9F938F937F93DB
S11345306F938DEB91E19F938F930E94950C0E9452
S1134540A11F1F928F9385EA91E19F938F930E94FD
S1134550950C0E94A71F1F928F9386E991E19F9368
S11345608F930E94950C8DB79EB70E960FB6F89454
S11345709EBF0FBE8DBF08951F93CF93DF9300D0CE
S113458000D01F92CDB7DEB7182F0E946A1469833A
S11345907A838B839C8388E08D83CE0101960E946D
S11345A0070B1F921F9381EE92E09F938F9380E3FA
S11345B093E19F938F930E94950C0F900F900F900F
S11345C00F900F900F900F900F900F900F900F90EF
S11345D0DF91CF911F9108958CEF92E09F938F9379
S11345E08EE893E19F938F930E94950C0F900F9008
S11345F00F900F9008950F931F93CF93DF93CDB730
S1134600DEB7AB970FB6F894DEBF0FBECDBF0E94E6
S1134610D31C882309F455C0CE014D960E94C81CB2
S113462069A17AA18BA19CA10E9446249F938F9398
S11346307F936F930EEE12E01F930F938FE693E137
S11346409F938F930E94950C6D8D7E8D8F8D98A175
S11346500E9446249F938F937F936F931F930F938E
S113466082E593E19F938F930E94950CCE018696E9
S11346700E94A71482E08F838AE0888786E0FE0187
S1134680B696DE01119601900D928A95E1F789E0C4
S1134690FE017D96DE01199601900D928A95E1F74F
S11346A081E00E94421A2CEB32E2AE014F5F5F4F71
S11346B060E08AEA0E94E7180FB6F894DEBF0FBEE6
S11346C0CDBFAB960FB6F894DEBF0FBECDBFDF9162
S11346D0CF911F910F910895892B41F442E253E148
S11346E068E670E084E193E10E94AB190E94D61C55
S11346F008955058BB27AA270ED048C139D130F0AD
S11347003ED120F031F49F3F11F41EF42EC10EF47B
S1134710E095E7FB24C1E92F4AD180F3BA17620779
S113472073078407950718F071F49EF562C10EF4BF
S1134730E0950B2EBA2FA02D0B01B90190010C01AD
S1134740CA01A0011124FF27591B99F0593F50F4C5
S1134750503E68F11A16F040A22F232F342F44271D
S1134760585FF3CF469537952795A795F040539515
S1134770C9F77EF41F16BA0B620B730B840BBAF0E5
S11347809150A1F0FF0FBB1F661F771F881FC2F750
S11347900EC0BA0F621F731F841F48F48795779564
S11347A06795B795F7959E3F08F0B3CF9395880F1B
S11347B008F09927EE0F9795879508950CD0E6C0D9
S11347C0DED040F0D5D030F021F45F3F19F0C7C0FF
S11347D0511110C1CAC0EBD098F39923C9F35523E2
S11347E0B1F3951B550BBB27AA27621773078407E0
S11347F038F09F5F5F4F220F331F441FAA1FA9F396
S113480033D00E2E3AF0E0E830D091505040E69587
S1134810001CCAF729D0FE2F27D0660F771F881FE8
S1134820BB1F261737074807AB07B0E809F0BB0BD7
S1134830802DBF01FF2793585F4F2AF09E3F5105FB
S113484068F08DC0D7C05F3FECF3983EDCF38695EB
S113485077956795B795F7959F5FC9F7880F911D71
S11348609695879597F90895E1E0660F771F881F5D
S1134870BB1F621773078407BA0720F0621B730B10
S1134880840BBA0BEE1F88F7E095089598D088F052
S11348909F5790F0B92F9927B751A0F0D1F0660F28
S11348A0771F881F991F1AF0BA95C9F712C0B13043
S11348B081F09FD0B1E008959CC0672F782F88279E
S11348C0B85F39F0B93FCCF3869577956795B39582
S11348D0D9F73EF490958095709561957F4F8F4FF1
S11348E09F4F0895E89409C097FB3EF490958095F6
S11348F0709561957F4F8F4F9F4F9923A9F0F92FA2
S113490096E9BB279395F695879577956795B7951F
S1134910F111F8CFFAF4BB0F11F460FF1BC06F5F05
S11349207F4F8F4F9F4F16C0882311F096E911C017
S1134930772321F09EE8872F762F05C0662371F038
S113494096E8862F70E060E02AF09A95660F771F4C
S1134950881FDAF7880F9695879597F9089597F940
S11349609F6780E870E060E008959FEF80EC089511
S113497000240A941616170618060906089500243A
S11349800A9412161306140605060895092E0394B4
S1134990000C11F4882352F0BB0F40F4BF2B11F428
S11349A060FF04C06F5F7F4F8F4F9F4F089557FD87
S11349B09058440F551F59F05F3F71F04795880F89
S11349C097FB991F61F09F3F79F087950895121620
S11349D013061406551FF2CF4695F1DF08C01616CC
S11349E017061806991FF1CF86957105610508947D
S11349F00895E894BB2766277727CB0197F9089594
S1134A00AA1BBB1B51E107C0AA1FBB1FA617B707F0
S1134A1010F0A61BB70B881F991F5A95A9F780950C
S1134A209095BC01CD01089597FB072E16F40094D0
S1134A3007D077FD09D00E94002507FC05D03EF47D
S1134A40909581959F4F0895709561957F4F089536
S1134A50A1E21A2EAA1BBB1BFD010DC0AA1FBB1F7E
S1134A60EE1FFF1FA217B307E407F50720F0A21BF0
S1134A70B30BE40BF50B661F771F881F991F1A945D
S1134A8069F760957095809590959B01AC01BD0187
S1134A90CF010895A29FB001B39FC001A39F700DE1
S1134AA0811D1124911DB29F700D811D1124911D32
S1134AB00895FB01DC014150504048F005900D92EF
S1134AC00020C9F701C01D9241505040E0F70895FD
S1134AD0FB01DC0102C001900D9241505040D8F717
S1134AE00895AEE0B0E0E7E7F5E20C9439288C01D4
S1134AF0CA014EE04C831A83098377FF02C060E049
S1134B0070E8615071097E836D83A901BC01CE01F7
S1134B1001960E949D254D815E8157FD0AC02F811B
S1134B203885421753070CF49A01F801E20FF31F7A
S1134B3010822E96E4E00C945528ACE0B0E0E3EA51
S1134B40F5E20C942B287C016B018A01FC0117828D
S1134B501682838181FFBDC1CE0101964C01F7010C
S1134B609381F60193FD859193FF81916F018823D1
S1134B7009F4ABC1853239F493FD859193FF81919A
S1134B806F01853229F4B70190E00E949B27E7CF9B
S1134B90512C312C20E02032A0F48B3269F030F417
S1134BA0803259F0833269F420612CC08D3239F09F
S1134BB0803339F4216026C02260246023C0286039
S1134BC021C027FD27C030ED380F3A3078F426FF96
S1134BD006C0FAE05F9E300D1124532E13C08AE004
S1134BE0389E300D1124332E20620CC08E3221F4F5
S1134BF026FD6BC1206406C08C3611F4206802C007
S1134C00883641F4F60193FD859193FF81916F01FC
S1134C108111C1CF982F9F7D9554933028F40C5F58
S1134C201F4FFFE3F9830DC0833631F0833771F0F2
S1134C30833509F05BC022C0F801808189830E5F4F
S1134C401F4F44244394512C540115C03801F2E001
S1134C506F0E711CF801A080B18026FF03C0652D82
S1134C6070E002C06FEF7FEFC5012C870E94902790
S1134C702C0183012C852F77222E17C03801F2E0F6
S1134C806F0E711CF801A080B18026FF03C0652D52
S1134C9070E002C06FEF7FEFC5012C870E9485276B
S1134CA02C012C852068222E830123FC1BC0832D1C
S1134CB090E048165906B0F4B70180E290E00E94F3
S1134CC09B273A94F4CFF50127FC859127FE819127
S1134CD05F01B70190E00E949B2731103A94F1E004
S1134CE04F1A51084114510471F7E5C0843611F08C
S1134CF0893639F5F80127FF07C060817181828107
S1134D0093810C5F1F4F08C060817181882777FDF4
S1134D108095982F0E5F1F4F2F76B22E97FF09C0F4
S1134D2090958095709561957F4F8F4F9F4F206828
S1134D30B22E2AE030E0A4010E94CD27A82EA818A4
S1134D4044C0853729F42F7EB22E2AE030E025C0F6
S1134D50F22FF97FBF2E8F36C1F018F4883579F021
S1134D60B4C0803719F0883721F0AFC02F2F2061ED
S1134D70B22EB4FE0DC08B2D8460B82E09C024FF62
S1134D800AC09F2F9660B92E06C028E030E005C007
S1134D9020E130E002C020E132E0F801B7FE07C0B4
S1134DA060817181828193810C5F1F4F06C0608195
S1134DB0718180E090E00E5F1F4FA4010E94CD2717
S1134DC0A82EA818FB2DFF77BF2EB6FE0BC02B2DE7
S1134DD02E7FA51450F4B4FE0AC0B2FC08C02B2DDB
S1134DE02E7E05C07A2C2B2D03C07A2C01C0752C85
S1134DF024FF0DC0FE01EA0DF11D8081803311F402
S1134E00297E09C022FF06C07394739404C0822FC4
S1134E10867809F0739423FD13C020FF06C05A2C32
S1134E20731418F4530C5718732C731468F4B701E3
S1134E3080E290E02C870E949B2773942C85F5CF09
S1134E40731410F4371801C0312C24FF12C0B701B9
S1134E5080E390E02C870E949B272C8522FF17C0BB
S1134E6021FF03C088E590E002C088E790E0B70125
S1134E700CC0822F867859F021FD02C080E201C067
S1134E808BE227FD8DE2B70190E00E949B27A514D9
S1134E9038F4B70180E390E00E949B275A94F7CF3F
S1134EA0AA94F401EA0DF11D8081B70190E00E94FB
S1134EB09B27A110F5CF332009F451CEB70180E22E
S1134EC090E00E949B273A94F6CFF7018681978160
S1134ED002C08FEF9FEF2C96E2E10C944728DC018F
S1134EE0CB01FC01F999FECF06C0F2BDE1BDF89AF1
S1134EF0319600B40D9241505040B8F70895A8E19E
S1134F00B0E042E050E00C947127FC010590615040
S1134F1070400110D8F7809590958E0F9F1F0895CB
S1134F20FC016150704001900110D8F78095909574
S1134F308E0F9F1F08950F931F93CF93DF93182F06
S1134F40092FEB018B8181FD03C08FEF9FEF20C000
S1134F5082FF10C04E815F812C813D81421753072F
S1134F607CF4E881F9819F012F5F3F4F39832883C7
S1134F70108306C0E885F985812F0995892B29F7C7
S1134F802E813F812F5F3F4F3F832E83812F902FB0
S1134F90DF91CF911F910F910895FA01AA2728302C
S1134FA051F1203181F1E8946F936E7F6E5F7F4FF2
S1134FB08F4F9F4FAF4FB1E03ED0B4E03CD0670F6E
S1134FC0781F891F9A1FA11D680F791F8A1F911DC1
S1134FD0A11D6A0F711D811D911DA11D20D009F411
S1134FE068943F912AE0269F11243019305D319353
S1134FF0DEF6CF010895462F4770405D4193B3E03C
S11350000FD0C9F7F6CF462F4F70405D4A3318F0E2
S1135010495D31FD4052419302D0A9F7EACFB4E093
S1135020A6959795879577956795BA95C9F700974B
S11350306105710508959B01AC010A2E06945795EC
S1135040479537952795BA95C9F7620F731F841F43
S1135050951FA01D08952F923F924F925F926F92D9
S11350607F928F929F92AF92BF92CF92DF92EF92F4
S1135070FF920F931F93CF93DF93CDB7DEB7CA1B75
S1135080DB0B0FB6F894DEBF0FBECDBF09942A88A0
S1135090398848885F846E847D848C849B84AA8448
S11350A0B984C884DF80EE80FD800C811B81AA81D5
S11350B0B981CE0FD11D0FB6F894DEBF0FBECDBFA0
S10B50C0ED010895F894FFCFFF
S11350C8436F6E6669675F4C6F6164006C69624127
S11350D844435F557064617465006C69624144437C
S11350E85F496E6974006C696244656275675F49FB
S11350F86E6974006C696252464D36395F53657443
S113510853796E63576F7264006C696252464D3608
S1135118395F47657452535349006C696252464D6E
S113512836395F456E61626C6548696768506F77A8
S1135138657253657474696E67006C696252464D92
S113514836395F57616974466F724D6F646552658D
S1135158616479006C696252464D36395F436C6507
S113516861724649464F006C696252464D36395F52
S11351785772697465546F4649464F006C696253A7
S113518850495F5365744D6F6465006C6962535090
S1135198495F496E6974001F1C1F1E1F1E1F1F1EB6
S11351A81F1E1F5472616E736365697665725F456D
S11351B876656E7448616E646C6572005472616ED3
S11351C8736365697665725F53656E645061636B7A
S11351D865740048616E646C655061796C6F6164D4
S11351E80049646C6553746174654D616368696EE4
S11351F865005472616E736365697665725F557094
S113520864617465005472616E736365697665726E
S11352185F496E6974004572726F7248616E646C9E
S113522865725F506F696E744F664E6F5265747520
S1135238726E004465636F646554696D696E677363
S11352480052656164696E6753746174654D616386
S113525868696E65006C696244485432325F496E0D
S11352686974006C69624D435037393531305F4990
S11352786E6974004E6F74696679416E64456E7424
S11352886572536C656570006D61696E0042617486
S1135298746572794D6F6E69746F72696E67534D78
S11352A80053656E6443616C6C6261636B005365A3
S11352B86E736F725F5570646174650053656E73C5
S10B52C86F725F496E69740006
S9030000FC
