:100000000C9468030C948F030C948F030C948F034F
:100010000C948F030C948F030C948F030C948F0318
:100020000C948F030C948F030C948F030C948F0308
:100030000C948F030C948F030C94030A0C948F037D
:100040000C948F030C948F030C944B0A0C94810A2C
:100050000C948F030C948F030C948F030C948F03D8
:100060000C948F030C948F0348756D6964697479DF
:100070003A202D0054656D70657261747572653A31
:10008000202D0048756D69646974793A20256C6982
:100090002E257525250054656D7065726174757225
:1000A000653A20256C692E25754300257500536F30
:1000B000757263653A202D00525353493A202D0042
:1000C000536F757263653A2030782530325800528C
:1000D0005353493A20256400253032753A25303291
:1000E0007500253032753A253032753A2530327533
:1000F000003230253032752D253032752D253032C5
:10010000750054656D70657261747572653A202D65
:100110002D0054656D70657261747572653A2025A5
:10012000752E257543006176673A20257543006E6C
:100130006F773A20257543006D696E3A2025754327
:10014000006D61783A202575430053616D706C65D0
:100150002074696D653A20257520736563004176CA
:10016000672E20706572696F643A202575206D696D
:100170006E00360048005F007A009C00C200F40068
:10018000200156018E01C701000238026C029D0257
:10019000CA02F20216033503510369037D038F037C
:1001A0009E03AB03B603C003C803CF0301000003E3
:1001B0000B00061600052100062C00063700014240
:1001C00000044D00045800056300056E000279002C
:1001D000038400018F00059A0005A50005B0000505
:1001E000BB0005C60006D10005DC0005E70005F2EE
:1001F0000005FD00050801011301021E010529018A
:10020000053401053F01044A010555010660010559
:100210006B01057601058101058C0105970105A299
:100220000105AD0105B80105C30105CE0105D901E0
:1002300006E40105EF0105FA0105050205100205B6
:100240001B02052602053102053C02064702055243
:1002500002065D02076802057302037E0205890239
:10026000039402059F0206AA0202B50205C0020518
:10027000CB0205D60205E10205EC0206F7020502F3
:1002800003050D03051803052303052E0305390394
:10029000054403054F03055A03056503057003056F
:1002A0007B03058603059103059C0307A70307B29B
:1002B0000306BD0305C80305D30304DE0301E903F8
:1002C00004F40306FF0300808080808080008000AB
:1002D00000A0A0A00000000000000000001428FC06
:1002E0002850FC50A000002078808060300808F082
:1002F000200000E4A8B0F03C34549C0000003048DA
:1003000048707498887400008080800000000000AD
:10031000000000001020408080808040201000807D
:100320004020101010102040800020F82050500075
:10033000000000000000002020F820200000000045
:10034000000000000000004040800000000000E0CD
:10035000000000000000000000000000008000001D
:10036000081010102020204040408000708888A88D
:10037000A888887000000020E02020202020F800BD
:10038000000070880810204080F8000000F0080885
:1003900070080808F00000000818284888FC0808C1
:1003A000000000F88080F0080808F00000003840E5
:1003B00080F088888870000000F808102020204015
:1003C00040000000708888705088887000000070BD
:1003D000888888780810E000000000000080000095
:1003E000008000000000000080000000404080000D
:1003F00000000870807008000000000000F8000095
:10040000F80000000000000080700870800000000C
:1004100000E0101020604000400000003048889844
:10042000A8A8A89840300030304848487884840014
:100430000000F08888F0888888F00000003840804C
:100440008080804038000000E0908888888890E0B4
:10045000000000F88080F0808080F8000000F880C4
:1004600080F8808080800000003048808088884844
:1004700038000000888888F888888888000000F89C
:10048000202020202020F800000078080808080814
:1004900088700000008890A0C0A0909088000000A4
:1004A00080808080808080F800000048C8B4B4B4A8
:1004B00084848400000088C8C8A8A8989888000090
:1004C000007088888888888870000000F088888894
:1004D000F08080800000007088888888888870207C
:1004E0001800F0888888F090888800000078808064
:1004F0006010088870000000F820202020202020B4
:1005000000000088888888888888700000008484BB
:10051000484848283030000000888888A8A8D88833
:100520008800000084483030304848840000008251
:1005300044442810101010000000F808102020403B
:1005400080F8000000E08080808080808080E080F3
:100550004040402020201010100800E020202020E3
:1005600020202020E00020505088000000000000E3
:1005700000000000000000000000FC8040000000BF
:1005800000000000000000000070087888887800F3
:1005900000808080F088888888F000000000007863
:1005A00080808080780000080808788888888878AB
:1005B00000000000007088F880807800003C404017
:1005C000F84040404040000000000078888888885B
:1005D0007808F0808080F088888888880000002073
:1005E00000E02020202018000000100078080808F3
:1005F000080808F080808098A0C0A090880000E0E3
:1006000020202020202020180000000000F0A8A8B2
:10061000A888880000000000F0888888888800008A
:100620000000007088888888700000000000F08852
:10063000888888F08080000000788888888878081A
:1006400008000000F88080808080000000000078B2
:1006500080601008F00000004040F8404040403802
:10066000000000000088888888887800000000006A
:1006700082444428281000000000008292AAAA6C3C
:10068000440000000000844830304884000000002E
:100690000088885050502020C0000000F8102040F2
:1006A00040F80000304040404080404040403080B2
:1006B00080808080808080808080C02020202010EA
:1006C00020202020C00000000000649800000000EE
:1006D000E4ECF4E085EC98E001C08193EF3FF9078A
:1006E000E0F3D9F311241FBECFEFD8E0DEBFCDBFBA
:1006F00011E0A0E0B1E0E6E4FCE302C005900D9259
:10070000A631B107D9F724E0A6E1B1E001C01D92FE
:10071000A43CB207E1F70E945E180C94211E0C94D1
:100720000000CF92DF92EF92FF92CF93DF9300D041
:1007300000D01F92CDB7DEB76B017C010E94791902
:1007400069837A838B839C830E94AC199B01AC01E3
:10075000C701B6010E94AC1820E030E040E251E44D
:100760000E94381A0E947919772767FD709577FFE4
:1007700003C071956195710929813A814B815C8132
:1007800070E080E090E00F900F900F900F900F902E
:10079000DF91CF91FF90EF90DF90CF900895CF92AF
:1007A000DF92EF92FF92CF93DF93FB01EA019A0170
:1007B000DC010E94F51A6B017C0180E8D80EE11C77
:1007C000F11C20E030E041E050E02C1B3D0B4109E2
:1007D0005109DF010E940B1BC60ED71EE81EF91E31
:1007E000C701DF91CF91FF90EF90DF90CF900895F8
:1007F000982F92959F708F702AE0929F800D112400
:100800000895FA01908121E030E0082E01C0220F06
:100810000A94EAF7662311F0292B02C020952923B8
:1008200020830895E4ECF4E0CF01845C94402081BF
:10083000253C39F428E0EF3FF20709F010F4319637
:10084000F3CF0895CF93DF93CDB7DEB76F970FB691
:10085000F894DEBF0FBECDBF4FE150E060E070E026
:10086000CE0101960E941C1D8E8D882341F08F8D34
:10087000815091E0833008F090E0892F01C080E042
:1008800080FF0BC08FE1FE013196A6E1B1E001903F
:100890000D928A95E1F781E001C080E06F960FB676
:1008A000F894DEBF0FBECDBFDF91CF91089588E1F0
:1008B00091E0089580913301089580917A008760D6
:1008C00080937A0010927C00E8E3F1E080E0DF01A1
:1008D00012971C9211961C928083128211828F5F54
:1008E00035968930A1F71092630108958091350102
:1008F000893010F01092350180916301813019F038
:10090000823081F008958091350195E0989FF00143
:100910001124EA5CFE4F2081211129C0893020F585
:100920008F5FF4CF80917A0084FF34C0E09135016D
:100930008091780090E025E0E29FF0011124EA5CCC
:10094000FE4F9483838320917900922B9483838339
:1009500091E0918380917A008F7E80937A009093CA
:100960006301809135018F5F8093350108958093F5
:100970003501893078F490917C00907F982B90938A
:100980007C0080917A00806480937A0082E080937A
:10099000630108950895882339F081E0809363010D
:1009A00080917A00806805C01092630180917A007E
:1009B0008F7780937A00089595E0899FF001112444
:1009C000EA5CFE4F6083089595E0899FF001112451
:1009D000EA5CFE4F8081882351F08181882339F0C1
:1009E00083819481FB019183808381E0089580E07D
:1009F000089508952A9A089580E00E94CE092A98C1
:100A00000895229A2A9808958BED90E00197F1F7C6
:100A100000C000000E943F0A60936401709365016A
:100A2000809366019093670108950E9401050E94DA
:100A300004058FE295E70197F1F700C000000895E3
:100A4000CF93C62F40E050E06CEF74E080680E94C6
:100A500083094AEF54E060E070E08C2FCF910C9452
:100A6000830960E188E20C942005682F6195660F88
:100A700089E20C942005CF92DF92EF92FF920E94C0
:100A8000AA1920E034E244E752E40E9411190E94BE
:100A90007E196B017C01B7018827992787E00E94A6
:100AA000200599278F2D7E2D6D2D88E00E94200531
:100AB0006C2D89E0FF90EF90DF90CF900C94200593
:100AC000CF93DF9300D000D0CDB7DEB79B01AC0150
:100AD00060E078E488EE91E00E94D31A632F7727D4
:100AE00083E029833A834B835C830E94200529811C
:100AF000622F84E00F900F900F900F90DF91CF91B5
:100B00000C942005682F89E30C942005682F8AE354
:100B10000C942005CF93BC0180E090E00E94AA19BC
:100B200020E034E244E752E40E9411190E947E1949
:100B3000C62F672F85E00E9420056C2F86E0CF919D
:100B40000C942005882331F06DE58AE50E9420058C
:100B50006CE705C065E58AE50E94200560E78CE545
:100B60000C942005CF93C82F692F8CE20E9420059A
:100B70006C2F8DE2CF910C942005CF93DF93EB0186
:100B800040E050E06CEF74E08F770E9483094AEFF9
:100B900054E060E070E0CE01DF91CF910C94A609A3
:100BA0001F93CF93DF931F92CDB7DEB7162FBE01F1
:100BB0006F5F7F4F0E94BD0521E030E002C0220F31
:100BC000331F1A95E2F7898190E02823392381E0C9
:100BD000121613060CF080E00F90DF91CF911F9159
:100BE000089567E088E20C94D005FF920F931F935D
:100BF000CF93DF93062FF82EEC011C2F1F1910172F
:100C000040F40E94F105811104C069910E94200501
:100C1000F4CF812FDF91CF911F910F91FF90089515
:100C200066E088E20C94D00563E088E20C94D0057D
:100C300062E088E20C94D00565E08BE00C94D0056E
:100C4000882331F00E941C06882321F060E203C053
:100C500060E001C060E38FE60C9420051F93CF9302
:100C6000DF931F92CDB7DEB7182FBE016F5F7F4FA6
:100C700087E30E94BD0591E0912728E0929FC00183
:100C800011246981677F682B698387E30E942005AF
:100C90000F90DF91CF911F9108951F93CF93DF9312
:100CA0001F92CDB7DEB7182FBE016F5F7F4F87E36E
:100CB0000E94BD0520E1129FC001112469816F7E51
:100CC000682B698387E30E9420050F90DF91CF9105
:100CD0001F910895FF920F931F93CF93DF93062FD9
:100CE000F82EEC011C2F1F190E941006882341F0DA
:100CF000101730F4BE0180E00E94BD052196F2CFAE
:100D0000812FDF91CF911F910F91FF900895CF9385
:100D1000DF931F92CDB7DEB7BE016F5F7F4F81E0DB
:100D20000E94BD0589818C71869586950F90DF9113
:100D3000CF9108951F93CF93DF931F92CDB7DEB766
:100D4000182FBE016F5F7F4F81E00E94BD0524E038
:100D5000129FC00111246981637E682B698381E041
:100D60000E9420050F90DF91CF911F910895CF939E
:100D7000DF931F92CDB7DEB7BE016F5F7F4F87E273
:100D80000E94BD058981881F8827881F0F90DF91E9
:100D9000CF910895CF92DF92EF92FF920E943F0A87
:100DA0006B017C010E94B70681110BC0C701B6011F
:100DB0000E946B0C6B3071058105910598F380E002
:100DC00001C081E0FF90EF90DF90CF9008951F93D6
:100DD000CF93DF931F92CDB7DEB7182FBE016F5FA1
:100DE0007F4F81E00E94BD0569816F7B612B698324
:100DF00081E00E9420050F90DF91CF911F9108950F
:100E00001F93CF93DF931F92CDB7DEB7182FBE018C
:100E10006F5F7F4F81E00E94BD0591E0912769815E
:100E200090FB67F9698381E00E9420050F90DF91B4
:100E3000CF911F9108951F93CF93DF931F92CDB74A
:100E4000DEB7182FBE016F5F7F4F8DE30E94BD0597
:100E5000AE014F5F5F4F612F80E00E940104698106
:100E60008DE30E9420050F90DF91CF911F9108958F
:100E70001F93CF93DF931F92CDB7DEB7182FBE011C
:100E80006F5F7F4F87E30E94BD0561E0111101C0D4
:100E900060E0AE014F5F5F4F87E00E94010469810F
:100EA00087E30E9420050F90DF91CF911F91089555
:100EB0001F93CF93DF931F92CDB7DEB7182FBE01DC
:100EC0006F5F7F4F8CE30E94BD0561E0111101C08F
:100ED00060E0AE014F5F5F4F87E00E9401046981CF
:100EE0008CE30E9420050F90DF91CF911F91089510
:100EF000CF93DF931F92CDB7DEB7BE016F5F7F4FF9
:100F00008DE30E94BD056981646069838DE30E9461
:100F100020050F90DF91CF9108951F93CF93DF931A
:100F20001F92CDB7DEB7182FBE016F5F7F4F8DE3E5
:100F30000E94BD0520E1129FC001112469816F70DC
:100F4000682B69838DE30E9420050F90DF91CF917C
:100F50001F9108951F93CF93DF931F92CDB7DEB7F4
:100F6000182FBE016F5F7F4F87E30E94BD05612F81
:100F7000660F8981897F682B698387E30E9420053A
:100F80000F90DF91CF911F9108951F93CF93DF931F
:100F90001F92CDB7DEB7182FBE016F5F7F4F82E083
:100FA0000E94BD0520E2129FC001112469816F7962
:100FB000682B698382E00E9420050F90DF91CF911A
:100FC0001F9108951F93CF93DF931F92CDB7DEB784
:100FD000182FBE016F5F7F4F82E00E94BD0528E0A1
:100FE000129FC00111246981677E682B698382E0AA
:100FF0000E9420050F90DF91CF911F9108951F93BC
:10100000CF93DF931F92CDB7DEB7182FBE016F5F6E
:101010007F4F82E00E94BD0569816C7F612B6983EF
:1010200082E00E9420050F90DF91CF911F910895DB
:101030001F93CF93DF931F92CDB7DEB7182FBE015A
:101040006F5F7F4F81E10E94BD0520E2129FC001CA
:10105000112469816F71682B698381E10E942005E9
:101060000F90DF91CF911F9108951F93CF93DF933E
:101070001F92CDB7DEB7182FBE016F5F7F4F81E1A2
:101080000E94BD056981607E612B698381E10E94B8
:1010900020050F90DF91CF911F9108951F93CF935B
:1010A000DF931F92CDB7DEB7182FBE016F5F7F4F62
:1010B00083E10E94BD05AE014F5F5F4F612F84E069
:1010C0000E940104698183E10E9420050F90DF9155
:1010D000CF911F9108951F93CF93DF931F92CDB7A8
:1010E000DEB7182FBE016F5F7F4F8EE20E94BD05F5
:1010F000812F90E00197E3E0880F991FEA95E1F7CF
:101100006981677C682B69838EE20E9420050F90BD
:10111000DF91CF911F910895CF93DF931F92CDB7A9
:10112000DEB7BE016F5F7F4F8EE20E94BD058981F1
:1011300086958695869587708F5F0F90DF91CF910A
:101140000895EF92FF920F931F93CF93DF9300D0F8
:10115000CDB7DEB7182F69839A830E948C08698106
:101160009A8168131CC0212FE12FF92F8E2F821B2B
:10117000861720F481918111F9CF11C00FE2060F7B
:10118000E12EF92E1FE2101741F0F70161917F0166
:10119000812F0E9420051F5FF6CF81E001C080E013
:1011A0000F900F90DF91CF911F910F91FF90EF90D3
:1011B00008951F93CF93DF931F92CDB7DEB7182FFB
:1011C000BE016F5F7F4F8EE20E94BD05AE014F5F93
:1011D0005F4F612F87E00E94010469818EE20E94C7
:1011E00020050F90DF91CF911F9108951F93CF930A
:1011F000DF931F92CDB7DEB7182FBE016F5F7F4F11
:101200008EE20E94BD0561E0111101C060E0AE01F7
:101210004F5F5F4F86E00E94010469818EE20E9469
:1012200020050F90DF91CF911F9108951F93CF93C9
:10123000DF931F92CDB7DEB7182FBE016F5F7F4FD0
:1012400086E20E94BD056981687F612B86E20E946B
:1012500020050F90DF91CF911F9108951F93CF9399
:10126000DF931F92CDB7DEB7182FBE016F5F7F4FA0
:1012700088E10E94BD056981687F612B88E10E9439
:1012800020050F90DF91CF911F9108951F93CF9369
:10129000DF931F92CDB7DEB7182FBE016F5F7F4F70
:1012A00088E10E94BD0561E0111101C060E0AE015E
:1012B0004F5F5F4F87E00E940104698188E10E94CF
:1012C00020050F90DF91CF911F9108951F93CF9329
:1012D000DF931F92CDB7DEB7182FBE016F5F7F4F30
:1012E0008BE00E94BD05AE014F5F5F4F612F85E02F
:1012F0000E94010469818BE00E9420050F90DF911C
:10130000CF911F9108950F931F93CF93DF931F9257
:10131000CDB7DEB78A016115710521F08983FB0124
:10132000099589818EBD0DB407FEFDCF011511050C
:1013300039F0F8010F90DF91CF911F910F9109942F
:101340000F90DF91CF911F910F9108950F931F93ED
:10135000CF93DF938C01EA016115710511F0FB0158
:1013600009951EBC0DB407FEFDCF8EB5F801808334
:10137000209731F0FE01DF91CF911F910F910994D9
:10138000DF91CF911F910F910895882319F08CB5AB
:10139000806102C08CB58F7E8CBD0895813059F07C
:1013A00038F0823071F08330A1F48CB58C600EC0BF
:1013B0008CB5837F0BC08CB5877F8CBD8CB584606A
:1013C00005C08CB588608CBD8CB58B7F8CBD81E0F1
:1013D000089580E00895CF93C82F94B19C6294B98A
:1013E000249881E08CBD0E94C5098C2F0E94CE09F3
:1013F000882329F08CB580648CBD1092690110920D
:101400006801CF9108951F920F920FB60F92112489
:101410008F939F93AF93BF938091C0049091C10429
:10142000A091C204B091C3040196A11DB11D809387
:10143000C0049093C104A093C204B093C304BF91AD
:10144000AF919F918F910F900FBE0F901F901895A5
:101450001092C0041092C1041092C2041092C304EE
:1014600084B5826084BD85B5836085BD8DE787BD09
:10147000EEE6F0E0808182608083789408952FB753
:10148000F8946091C0047091C1048091C20490915D
:10149000C3042FBF08951F920F920FB60F9211240D
:1014A0002F933F934F935F936F937F938F939F936C
:1014B000AF93BF93EF93FF93CF93DF931F92CDB77B
:1014C000DEB78091C6008983E0916C01F0916D01D7
:1014D000309719F0CE01019609950F90DF91CF91C9
:1014E000FF91EF91BF91AF919F918F917F916F91FC
:1014F0005F914F913F912F910F900FBE0F901F90D2
:1015000018951F920F920FB60F9211242F933F93AD
:101510004F935F936F937F938F939F93AF93BF93FB
:10152000EF93FF93CF93DF931F92CDB7DEB7E09198
:101530006A01F0916B01309749F0CE01019609954F
:10154000882321F089818093C60005C08091C10065
:101550008F7D8093C1000F90DF91CF91FF91EF912C
:10156000BF91AF919F918F917F916F915F914F91BB
:101570003F912F910F900FBE0F901F901895CF9312
:10158000DF93EC010E946F15CE0101960E94731546
:10159000CE0102960E949215CE0103960E949A15E2
:1015A000CE0104960E94B815CE0105960E94BC1586
:1015B00081E0DF91CF910895FC0131812CEF230F61
:1015C0002630F8F02DEF230F2830E8F44281242F45
:1015D000261B87E0820F8F3138F4282F822F90E06E
:1015E000489714F4295FFACF333021F4241730F0F0
:1015F00080E005C03A30E1F74217D0F781E0817012
:10160000089581E0089580E008959C0183709927F2
:10161000892B91F4C90164E670E00E94AB1A892B12
:1016200049F4C90160E971E00E94AB1A21E0892BFD
:1016300021F002C021E001C020E0822F0895FC01CA
:101640002181862F90E0820F911D6CE070E00E9456
:10165000BF1A81836115710519F08081860F80831F
:101660000895EF92FF921F93CF93DF931F92CDB710
:10167000DEB77C01FC019181E92FF0E0E75FFE4FCE
:101680001081923059F4F701808190E08053984F97
:1016900069830E94050B698181111F5FF701228117
:1016A000862F90E0820F911D612F70E00E94BF1A7B
:1016B00082836115710549F0C7010F90DF91CF91C9
:1016C0001F91FF90EF900C941F0B0F90DF91CF9123
:1016D0001F91FF90EF900895FC012381862F90E0E9
:1016E000820F911D68E170E00E94BF1A838361152B
:1016F000710519F0CF010C94310B0895FC01248180
:10170000862F90E0820F911D6CE370E00E94BF1A5B
:1017100084836115710519F0CF010C946C0B089549
:101720008F929F92AF92BF92CF92DF92EF92FF92F1
:101730000F931F93CF93DF93EC01B8800B2D10E034
:1017400001151105E1F0B80161507109882777FD95
:101750008095982F6B017C0122E0F694E794D79452
:10176000C7942A95D1F724E630E040E050E00E948B
:10177000D31AC21AD30A8FEFC81AD80A02C0C12CD2
:10178000D12CEE24D7FCE094FE2C2B2D30E0ADE6DE
:10179000B1E00E94F51AC60ED71EE81EF91E4A8156
:1017A00050E04A0181E0881A9108B98081E08B15E8
:1017B00038F0BB2069F14A018EE1880E911C28C0E7
:1017C000C8018053984F0E94050BE82FF0E0FB966C
:1017D000E80DF91D8B2D90E003978530910514F0ED
:1017E000E756FF4F65E070E00E94BF1AAC01DC01D4
:1017F00097FD1196B595A7952DE330E00E94041B47
:101800004F01860E971E40FF03C08FE1880E911C8A
:101810009401442737FD4095542F2C0D3D1D4E1D3E
:101820005F1D60E871E581E090E00E949B1A4B012A
:101830005C012B8130E0A0E1BEE00E94F51A6B0153
:101840007C012C8130E0ACE3B0E00E94F51AC60EBA
:10185000D71EE81EF91E8D81C80ED11CE11CF11C9B
:10186000C80CD91CEA1CFB1CC701B601DF91CF9143
:101870001F910F91FF90EF90DF90CF90BF90AF90AE
:101880009F908F900895FF920F931F93CF93DF93B4
:1018900000D000D000D0CDB7DEB78C01CE010196CC
:1018A0000E94BF0AF82E882349F0CE0101960E94BB
:1018B000900BF80160837183828393838F2D26962A
:1018C0000FB6F894DEBF0FBECDBFDF91CF911F9151
:1018D0000F91FF900895CF92DF92EF92FF920F93B6
:1018E0001F936B017C010E943F0A8B019C010C1924
:1018F0001D092E093F096C157D058E059F0538F4DD
:10190000C901B801615071098109910902C0C90179
:10191000B8011F910F91FF90EF90DF90CF90089545
:10192000CF93DF93CDB7DEB7C154D1090FB6F8948A
:10193000DEBF0FBECDBF61E0CE0101960E946A06F8
:101940006981623410F080E027C0CE0102960E94C7
:101950006A0685E0FE013196A8E7B1E001900D929C
:101960008A95E1F78CE1FE013696ADE7B1E0019092
:101970000D928A95E1F7E0918301E43020F7F0E0E1
:10198000EE0FFF1FE059FE4F0190F081E02D3097E0
:10199000D1F288E791E00995CF5BDF4F0FB6F8945D
:1019A000DEBF0FBECDBFDF91CF9108950E94150518
:1019B00080E00E941B0781E00E94000780E00E94F7
:1019C000E70683E00E948D0781E00E949A060E944C
:1019D000CA068EE090E00E94B20580E00E942E09C7
:1019E00081E00E94460980E00E94660980E00E9432
:1019F000200660EC72E180E090E00E94600580E0EB
:101A00000E94C50780E00E94E20780E00E94FF0775
:101A100088E893E10E948A0560E071EA8CEB93E329
:101A20000E943B0581E00E94D90880E00E94F608F0
:101A300086EA0E94350586E00E946B080E945704E2
:101A400066E00E94A10881E00E9458070E945A04A3
:101A50000E9482058FEF0E94860582E00E94AA07FD
:101A60000E94310581E00E94380781E00E944D0606
:101A700081E00E942E0687E00E94160980E00E9405
:101A80004E0883E00E9418088CE10E94350880E02F
:101A90000E94A20581E00E949A060E94CA0683E283
:101AA000E8E7F1E0DF011D928A95E9F782E0809393
:101AB0009B010895CF93C0919B01C230A9F028F4F7
:101AC000CC2351F0C13059F0A8C0C33009F43FC055
:101AD000C43009F496C0A1C0CF910C94D60C80916B
:101AE000790181118CC089C080916F018130A9F08A
:101AF00018F0833019F127C00E94180681110E9446
:101B0000780780E00E94A20584E00E949A060E9465
:101B1000CA0681E080936F0116C00E9418068823D0
:101B200091F081E00E949A060E94CA060E94900CE1
:101B300084E00E949A060E94CA0605C00E94B70669
:101B4000811110926F0182E080939B0166C08091A9
:101B50006E01813059F028F0823019F18330D9F1CB
:101B60004EC081E00E949A0681E018C00E94B7062C
:101B7000882309F444C065E088E791E00E94F505F8
:101B800060918401685F8DE791E00E94F50583E034
:101B90000E949A0681E00E94A20582E080936E0175
:101BA0002EC00E941406882351F180917B01882366
:101BB00049F084E00E949A0680E00E94A205C0934A
:101BC0006E011DC0E0919901F0919A01309761F08A
:101BD00081E0099509C00E941806882381F00E94BF
:101BE000900C81E00E949A0683E2E8E7F1E0DF01D1
:101BF0001D928A95E9F710926E0181E0A5CF83E0EE
:101C0000A3CF0E94B706882341F00E94870688234D
:101C100021F080E0CF910C949A06CF910895E62FA1
:101C2000F0E0EE0FFF1FE059FE4F9183808308958F
:101C3000BF92CF92DF92EF92FF920F931F93CF93B9
:101C4000DF9300D000D0CDB7DEB70FE110E0B12CAC
:101C5000C12CD12C760144E050E0B801CE010196B0
:101C60000E941C1D89819A81AB81BC81C816D9064E
:101C7000EA06FB0650F0B0929D012FEFC21AD20A7D
:101C8000E20AF20AC0929C0110C0B394065F1F4F93
:101C900020E5B21619F06C017D01DDCF10929D0197
:101CA0000196A11DB11D80939C010F900F900F9084
:101CB0000F90DF91CF911F910F91FF90EF90DF90E8
:101CC000CF90BF9008950F931F93CF93DF93CDB71D
:101CD000DEB72A970FB6F894DEBF0FBECDBF182F20
:101CE000062FCE0105960E94430C40919C0150E0C6
:101CF00060E070E049835A836B837C8319870A878D
:101D000060919D018AE0689FB0011124615E7F4F60
:101D10004AE050E0CE0101960E942C1D80919D0169
:101D200090E0019660E273E00E94AB1A6AE070E016
:101D30000E94AB1A60939D0180919C018F5F8093FC
:101D40009C012A960FB6F894DEBF0FBECDBFDF917F
:101D5000CF911F910F910895882319F0813031F0B0
:101D600008952FE14FE760E08FE704C02FE140E0E6
:101D700060E080E00C94BF160F931F93CF93DF9326
:101D800000D000D01F92CDB7DEB78C0101969F9393
:101D90008F931F9281E08F938BEA90E09F938F93B4
:101DA0000E940A18802F0E9494148C0123E046E0C0
:101DB0006AE181E00E9435172CE148E06BE188E0A0
:101DC0000E94BF160F900F900F900F900F900F90E2
:101DD0000115110509F440C0F801618972898389F0
:101DE00094890E94910329833A834B835C836D839A
:101DF0001F926F938C818F938B818F938A818F93A6
:101E000089818F9382E08F9388E08F9386E990E0B9
:101E10009F938F930E940A18F801658576858785C0
:101E200090890E94910329833A834B835C831F929C
:101E30006F938C818F938B818F938A818F9389810C
:101E40008F9380E18F9382E18F9383E890E09F935B
:101E50008F930E940A1814C082E08F9388E08F93BA
:101E600084E790E09F938F930E940A1880E18F93FC
:101E700082E18F9388E690E09F938F930E940A18E7
:101E80000FB6F894DEBF0FBECDBF0F900F900F902E
:101E90000F900F90DF91CF911F910F9108951F9395
:101EA000CF93DF930E949414EC01009731F12C81C1
:101EB000822F992787FD90959F932F9382E08F9390
:101EC00014E01F938FEC90E09F938F930E940A1869
:101ED0008A811F928F9380E18F931F9380EC90E013
:101EE0009F938F930E940A188DB79EB70C960FB6DA
:101EF000F8949EBF0FBE8DBF1AC082E08F93C0E1E1
:101F0000CF9388EB90E09F938F930E940A18CF9312
:101F1000CF938EEA90E09F938F930E940A188DB71B
:101F20009EB708960FB6F8949EBF0FBE8DBFDF9187
:101F3000CF911F910895AF92BF92CF92DF92EF920F
:101F4000FF920F931F93CF93DF93CEE9D1E002EC82
:101F500011E0E12CF12C8CEBA82E8EE0B82E9FE442
:101F6000C92E9FE0D92EB982A882FB82EA821F8205
:101F70001E821B861A86198618861D821C82CE0137
:101F80000E946912F801D182C082F382E282178234
:101F90001682138612861186108615821482B80165
:101FA000CE010E947B12FFEFEF1AFF0A2C96045F0E
:101FB0001F4F83E0E816F104B1F6DF91CF911F9136
:101FC0000F91FF90EF90DF90CF90BF90AF9008956A
:101FD0000F931F93CF93DF931F92CDB7DEB78C0182
:101FE0006CE30E947E0BCE0101960E9496156981DA
:101FF000C8010E94DC0A882321F06CE3C8010E941A
:102000007E0B0F90DF91CF911F910F910895CF9389
:10201000DF9300D000D000D0CDB7DEB7CE0101965F
:102020000E94BF0ACE0101960E94E80F8B811F9289
:102030008F938A811F928F9389811F928F9382E061
:102040008F938FE18F9381EF90E09F938F930E9406
:102050000A188E811F928F938D811F928F938C818E
:102060001F928F9380E18F9388E28F9382EE90E0AE
:102070009F938F930E940A180FB6F894DEBF0FBE8D
:10208000CDBF26960FB6F894DEBF0FBECDBFDF9151
:10209000CF910895CF93DF9300D000D000D0CDB77B
:1020A000DEB7CE0101960E94BF0ACE0101960E94C2
:1020B000E80F8D811F928F938C811F928F938BE0FD
:1020C0008F9381E38F9388ED90E09F938F930E948D
:1020D0000A180FB6F894DEBF0FBECDBF26960FB616
:1020E000F894DEBF0FBECDBFDF91CF9108958AE493
:1020F00090E19093F3018093F2011092F501109218
:10210000F4011092F9011092F8011092FD01109261
:10211000FC011092FB011092FA011092F70110924B
:10212000F60187E090E19093E7018093E601109239
:10213000E9011092E8011092ED011092EC01109269
:10214000F1011092F0011092EF011092EE01109245
:10215000EB011092EA0166EE71E082EF91E00E94DD
:102160007B1282EF91E00C946912CF93DF931F9260
:10217000D5E0DF9382E08F93C6E0CF938EE591E0C8
:102180009F938F930E940A181F92DF9380E18F9391
:10219000CF938AE491E09F938F930E940A188DB7A2
:1021A0009EB70C960FB6F8949EBF0FBE8DBFDF9101
:1021B000CF910895DF92EF92FF920F931F93CF93E9
:1021C000DF93CDB7DEB72A970FB6F894DEBF0FBE08
:1021D000CDBFBE016F5F7F4F87E00E9475138B817B
:1021E0009C810AE010E0B8010E94AB1A7F936F93C4
:1021F00082E0F82EFF9296E0D92EDF9281E491E002
:102200009F938F930E940A188D819E81B8010E942E
:10221000AB1A7F936F93FF9226E4F22EFF9288E32E
:1022200091E09F938F930E940A188F819885B8013F
:102230000E94AB1A7F936F9330E1E32EEF92DF920F
:102240008FE291E09F938F930E940A1889859A8567
:10225000B8010E94AB1A7F936F93EF92FF9286E2D0
:1022600091E09F938F930E940A180FB6F894DEBFF7
:102270000FBECDBF2A960FB6F894DEBF0FBECDBFFE
:10228000DF91CF911F910F91FF90EF90DF90089514
:10229000CF93DF93CDB7DEB72A970FB6F894DEBFA2
:1022A0000FBECDBFBE016F5F7F4F87E00E947513E9
:1022B0008823D9F08F8198856AE070E00E94AB1A7C
:1022C0009F938F9377277F936F938AE08F9386E016
:1022D0008F9382E191E09F938F930E940A180FB62B
:1022E000F894DEBF0FBECDBF0EC08AE08F9386E0AC
:1022F0008F9382E091E09F938F930E940A180F9032
:102300000F900F900F902A960FB6F894DEBF0FBE75
:10231000CDBFDF91CF91089588E491E190930B02B6
:1023200080930A021092110210921002109215026C
:1023300010921402109213021092120210920F02C5
:1023400010920E028AED90E190931702809316028C
:1023500010921D0210921C02109221021092200273
:1023600010921F0210921E0210921B0210921A026B
:1023700085EB90E19093FF018093FE01109205029E
:1023800010920402109209021092080210920702A1
:1023900010920602109203021092020266E172E0AD
:1023A0008AE092E00E947B126EEF71E08AE092E098
:1023B0000E947B128AE092E00C9469120E9413152D
:1023C0000E94B91481E091E00E94BA16109229028D
:1023D00010922802109227021092260281E0809328
:1023E0002E02089580912E02882309F44BC0E091BB
:1023F0002602F09127023097C9F180819181892BC3
:10240000A9F10E940815A0912602B0912702ED9132
:10241000FC91119712968D919C911397099560915B
:102420002A0270912B0280912C0290912D020E9421
:102430006B0C603D774081059105B0F4E091260278
:10244000F091270280859185892B19F480E00E9404
:10245000AC0EE0912602F091270282859385892BAC
:1024600019F481E00E94AC0E0E94B81610922E0260
:102470000E943F0A609322027093230280932402F9
:102480009093250260912202709123028091240290
:10249000909125020E946B0C693E73408105910565
:1024A00018F081E080932E020895009789F061155D
:1024B000710571F0FC01208531852115310511F080
:1024C000C901F8CFFB0193878287FC017187608780
:1024D0000895BC018091280290912902009749F447
:1024E000709329026093280270932702609326025A
:1024F00008950C9455120F931F93CF93DF938C0183
:10250000EB01009779F0209769F0FC0186819781B3
:10251000009719F00E94551203C0F8017783668373
:102520001D830C83DF91CF911F910F910895E0914E
:102530002602F09127023097A9F0828593850097B3
:1025400021F0909327028093260281E080932E024F
:102550000E943F0A60932A0270932B0280932C0200
:1025600090932D020895E0912602F0912702309772
:10257000A9F080859185009721F0909327028093A0
:10258000260281E080932E020E943F0A60932A0275
:1025900070932B0280932C0290932D020895E0916A
:1025A0002602F09127023097C9F086819781009723
:1025B00021F484819581009721F0909327028093E4
:1025C000260281E080932E020E943F0A60932A0235
:1025D00070932B0280932C0290932D02089584B166
:1025E0008C7F84B961E086E00E94DC0410923302A3
:1025F000109232021092350210923402109231027F
:1026000010923002089590933302809332027093B7
:1026100035026093340250933102409330020895A2
:10262000199B05C0E0913202F091330204C0E091A1
:102630003402F0913502309709F0099408951F9300
:10264000CF93DF9300D0CDB7DEB7BE016F5F7F4F72
:1026500086E00E94E4048823B1F011E089819A8128
:102660008130924008F410E080912F02811109C05E
:10267000112339F0E0913002F0913102309709F0E6
:10268000099510932F020F900F90DF91CF911F911A
:102690000895CF930E941F13C3B1C17080910001B0
:1026A000813049F4C11107C085E38A95F1F7000034
:1026B000189B0E941013C0930001CF9108958EEFD4
:1026C0009FEF909345028093440261E087E00E946F
:1026D000DC0461E088E00C94DC04880F982F990FEB
:1026E000990F4AE0890F0C94C015CF93DF93EB014B
:1026F000880F982F990F990F4AE0890F0E94F315C0
:10270000882331F081E0288139812F303A4A09F05D
:1027100080E0DF91CF9108951F93CF93DF93182F1F
:10272000EB010E94E404813009F04BC0173031F016
:10273000183099F1163009F044C045C0288139811C
:1027400082E791E010E0FC01459154914217530754
:1027500020F41F5F02961D31B1F7A4E6B0E00E949D
:10276000F51AE12FF0E0EE0FFF1FEE58FE4F259116
:10277000349140E050E00E94D31A85E0189FD001C8
:1027800011245E970E94161B2AE030E040E050E0E2
:102790000E94D31A3983288316C028813981A4EE78
:1027A000BCE00E94F51A2AE0969587957795679583
:1027B0002A95D1F76755714081099109798368831A
:1027C00002C080E001C081E0DF91CF911F910895A8
:1027D00060913602709137028091380290913902EF
:1027E0000E946B0C693873418105910508F460C043
:1027F0006AE372E087E00E94751360E472E087E0AC
:102800000E948C1320913A0230913B028091400249
:10281000909141022F303A4A51F540914402509133
:10282000450260914202709143020E94CF0390934F
:102830004302809342028091400290914102209194
:102840003C0230913D022817390728F490933D024D
:1028500080933C021EC020913E0230913F028217BD
:102860009307B8F490933F0280933E0212C02FE08A
:102870003AEA30933B0220933A0290933D028093D0
:102880003C0290933F0280933E02909343028093D8
:1028900042026AE372E087E00E946D130E943F0AE1
:1028A0006093360270933702809338029093390216
:1028B0000895CF93DF93FC01828187FF1CC0C0E89D
:1028C000C81BD0E083E28C9FD0018D9FB00D1124F6
:1028D000AE5ABD4F01900D928A95E1F70E943F0AD2
:1028E000FE01EE0FFF1FEE0FFF1FEA5BFD4F60833F
:1028F00071838283938380E0DF91CF91089589E68D
:10290000E2E5F2E0DF011D928A95E9F78CE0E6E46A
:10291000F2E0DF011D928A95E9F762E089E594E132
:102920000E940F0E0C949B0FCF93DF93E82FF0E0E3
:1029300023E2829FE0011124CE5ADD4F888181116C
:1029400003C080E090E012C0EE0FFF1FEE0FFF1FEC
:10295000EA5BFD4F60817181828193810E946B0CE3
:1029600060327E448105910560F7CE01DF91CF9101
:1029700008958FEA0C9442169091BB02992331F08E
:102980009FE7981B892F9FE1961B692F962F96959D
:10299000969596959430C0F487FD16C020E8929FD6
:1029A000F0011124E80FF11DE454FD4F88E0989FD9
:1029B0006019112481E090E0062E01C0880F0A946E
:1029C000EAF79081982B90830895FF920F931F93BD
:1029D000CF93DF930CEB12E0F12C8F2D0E94611648
:1029E000C0E0D0E0F801EC0FFD1F80810E944E1680
:1029F0002196C038D105B1F7F39400581F4F84E0F9
:102A0000F812EBCFDF91CF911F910F91FF900895B6
:102A100080E092E0ECEBF2E0DF019C011D9221509E
:102A20003040E1F708950E9490161092BB020C947A
:102A30000815409A089581E00E94CE0940980895B3
:102A4000CF93C62F40E050E06BE175E180680E94B3
:102A5000830949E155E160E070E08C2F0E94830911
:102A600081E0CF910895CF93DF93EB0140E050E0F8
:102A70006BE175E10E94830949E155E160E070E096
:102A8000CE010E94A60981E0DF91CF9108950F93B6
:102A90001F93CF93DF931F92CDB7DEB78B018A319F
:102AA00010F080E00DC0BE016F5F7F4F0E943315B4
:102AB0008823B9F389810E94F803F801808381E0BB
:102AC0000F90DF91CF911F910F910895389A409AFE
:102AD00008950E9466156CE18EE00C942015BC01EF
:102AE00086E00C9447150F931F93CF93DF931F92AB
:102AF000CDB7DEB78C01BE016F5F7F4F85E00E94CE
:102B00003315882341F089818F710E94F803F80101
:102B1000808381E001C080E00F90DF91CF911F9111
:102B20000F910895BC0184E00C944715BC0183E02B
:102B30000C9447150F931F93CF93DF931F92CDB73C
:102B4000DEB78C01BE016F5F7F4F82E00E943315BC
:102B5000882339F089810E94F803F801808381E09D
:102B600001C080E00F90DF91CF911F910F910895E8
:102B7000BC0181E00C944715BC0180E00C94471522
:102B8000CF92DF92FF920F931F93CF93DF931F9209
:102B9000CDB7DEB7062F142F242F30E0280F311DBC
:102BA00021303140B0F4682F88E179830E942015EC
:102BB000F02EC02E7981D72E8C2D8F19811738F4E5
:102BC000F60161916F0189E10E942015F5CF81E046
:102BD00001C080E00F90DF91CF911F910F91FF9086
:102BE000DF90CF900895CF92DF92FF920F931F93C3
:102BF000CF93DF931F92CDB7DEB7062F142F242F6C
:102C000030E0280F311D21303140B8F4682F88E1C1
:102C100079830E942015F02EC02E7981D72E8C2D1D
:102C20008F19811740F4B60189E10E943315EFEF47
:102C3000CE1ADE0AF4CF81E001C080E00F90DF9170
:102C4000CF911F910F91FF90DF90CF90089598B191
:102C500021E030E0082E01C0220F0A94EAF7209507
:102C6000292328B90895CF93C82F8FEF8AB91BB8AD
:102C7000419A85E00E942716CBB9459A81E0CF9111
:102C80000C942716CF93C82F83E00E94271684E068
:102C90000E9427168C2FCF910C943316CF93C82FF8
:102CA00083E00E942716449A8C2FCF910C94331600
:102CB00082E00E9427168DE08A95F1F70000429A83
:102CC0000895806B0C9442161F93CF93DF931F924D
:102CD000CDB7DEB7182F82E269830E944216812F9A
:102CE0000E9442166981862F0F90DF91CF911F912C
:102CF0000C9442161F93CF93DF931F92CDB7DEB78C
:102D0000182F81E269830E944216812F0E94421689
:102D10006981862F0F90DF91CF911F910C944216FD
:102D2000CF93DF938FEF8AB91BB887B18E6387B9D2
:102D30000E945816C0E08C2F0E946116D0E080E0FF
:102D40000E944E16DF5FD038D1F7CF5FC43099F7BD
:102D50000E945816459A81E00E9427166FE780E08E
:102D60000E947A1663E080E0DF91CF910C946416A4
:102D70000C94E5149093BD048093BC0408958F9245
:102D80009F92AF92BF92CF92DF92EF92FF920F93FA
:102D90001F93CF93DF9300D000D0CDB7DEB7A82E1E
:102DA000B62E042F10E0081B110917FF03C0119560
:102DB00001951109A41610F431E001C03FEF822EF5
:102DC000912C8B18910897FE03C0919481949108DF
:102DD000B21610F491E001C09FEF8016910644F402
:102DE0007801F594E794CC24DD24C01AD10A19C0E7
:102DF000740197FE03C08FEFE81AF80AF594E79480
:102E0000F194E194F108EFCFB216F1F0F701CE148E
:102E1000DF041CF4E819F909A30EE814F90484F09E
:102E20007F016B2D8A2D2A833B8349839C830E94DB
:102E3000BC1449812A813B819C81A412E7CFE4CF55
:102E4000E00FF11FB90EECCF0F900F900F900F9085
:102E5000DF91CF911F910F91FF90EF90DF90CF9076
:102E6000BF90AF909F908F9008950F931F93CF9333
:102E7000DF93082F162FC42FD22FC80F262F4C2FC9
:102E80000E94BF16D10F2D2F402F612F802F0E943F
:102E9000BF162D2F4C2F6D2F802F0E94BF162D2F68
:102EA0004C2F612F8C2FDF91CF911F910F910C949C
:102EB000BF162F923F924F925F926F927F928F92A6
:102EC0009F92AF92BF92CF92DF92EF92FF920F93B9
:102ED0001F93CF93DF9300D01F92CDB7DEB78C0145
:102EE000262F712CEE24E394F12C872D90E0F8012D
:102EF00001900020E9F73197E01BF10B8E179F0737
:102F000008F072C0F801E80FF91F8081803209F4DF
:102F100068C0E091BC04F091BD049281891B53E02C
:102F2000859F600111240580F681E02DEC0DFD1DCB
:102F30003196A590B490612CE091BC04F091BD0451
:102F40008181681608F044C0512C462C440EE09153
:102F5000BC04F091BD048081581608F037C0952D4F
:102F6000689E900D1124322FE8E05E9E300D1124F2
:102F7000F7E02F2E312C4501890E911C395FE0912D
:102F8000BC04F091BD040780F085E02DE80DF91D2B
:102F9000E491C701022C02C0880F991F0A94E2F73E
:102FA000F0E08E239F23892B59F0642D832F821903
:102FB00029833B834A830E94BC144A813B81298137
:102FC000F1E02F1A3108D8F65394C1CF6394B4CFEF
:102FD0000580F681E02DEC0DFD1DE4912E5F2E0F96
:102FE00001C02A5F739481CF0F900F900F90DF91F3
:102FF000CF911F910F91FF90EF90DF90CF90BF90F6
:10300000AF909F908F907F906F905F904F903F9088
:103010002F900895CF93DF93CDB7DEB768970FB6A3
:10302000F894DEBF0FBECDBF9E012F5D3F4F4D8D8B
:103030005E8D68E170E0CE0101960E941E1B188E25
:1030400048A16F8DCE0101960E94591768960FB660
:10305000F894DEBF0FBECDBFDF91CF910895CF931F
:10306000DF9300D0CDB7DEB70E9412042091BF04D9
:1030700021110AC08436910538F4682F83E00E943C
:10308000630E81E08093BF04BE016F5F7F4F88E0D5
:103090000E948C138091BE0481110BC069817A81DA
:1030A0006C34710530F08BE40E94630E81E08093F4
:1030B000BE040F900F90DF91CF91089588E10FB675
:1030C000F89480936000109260000FBE0E94661515
:1030D0000E9401050E94F9040E94180E0E945D04DE
:1030E0000E94280A81E00E94EB090E94691581E094
:1030F0000E94CB040E945F130E94EF120E942204E0
:103100000E94D60C0E94DE110E9477100E948C1142
:103110000E947F144FEC52E167E972E183EB92E188
:103120000E9403130E943F0A6B017C010E947604F7
:103130000E9449130E94E8130E945A0D0E94F21146
:10314000C701B6010E946B0C693E73408105910571
:1031500068F30E942F18E6CF5058BB27AA270ED03D
:103160004DC13ED130F043D120F031F49F3F11F4F6
:103170001EF433C10EF4E095E7FB29C1E92F4FD1CE
:1031800080F3BA17620773078407950718F071F484
:103190009EF567C10EF4E0950B2EBA2FA02D0B0102
:1031A000B90190010C01CA01A0011124FF27591B8C
:1031B00099F0593F50F4503E68F11A16F040A22F92
:1031C000232F342F4427585FF3CF46953795279503
:1031D000A795F0405395C9F77EF41F16BA0B620B02
:1031E000730B840BBAF09150A1F0FF0FBB1F661F49
:1031F000771F881FC2F70EC0BA0F621F731F841F8C
:1032000048F4879577956795B795F7959E3F08F0B1
:10321000B3CF9395880F08F09927EE0F9795879570
:1032200008950CD0EBC0E3D040F0DAD030F021F4B8
:103230005F3F19F0CCC0511115C1CFC0F0D098F349
:103240009923C9F35523B1F3951B550BBB27AA2727
:1032500062177307840738F09F5F5F4F220F331F99
:10326000441FAA1FA9F333D00E2E3AF0E0E830D065
:1032700091505040E695001CCAF729D0FE2F27D068
:10328000660F771F881FBB1F261737074807AB0736
:10329000B0E809F0BB0B802DBF01FF2793585F4FAB
:1032A0002AF09E3F510568F092C0DCC05F3FECF30E
:1032B000983EDCF3869577956795B795F7959F5F70
:1032C000C9F7880F911D9695879597F90895E1E0C4
:1032D000660F771F881FBB1F621773078407BA0723
:1032E00020F0621B730B840BBA0BEE1F88F7E0957E
:1032F000089504D06894B111B5C0089598D088F0AD
:103300009F5790F0B92F9927B751A0F0D1F0660FD1
:10331000771F881F991F1AF0BA95C9F712C0B130EC
:1033200081F09FD0B1E008959CC0672F782F882747
:10333000B85F39F0B93FCCF3869577956795B3952B
:10334000D9F73EF490958095709561957F4F8F4F9A
:103350009F4F0895E89409C097FB3EF4909580959F
:10336000709561957F4F8F4F9F4F9923A9F0F92F4B
:1033700096E9BB279395F695879577956795B795C9
:10338000F111F8CFFAF4BB0F11F460FF1BC06F5FAF
:103390007F4F8F4F9F4F16C0882311F096E911C0C1
:1033A000772321F09EE8872F762F05C0662371F0E2
:1033B00096E8862F70E060E02AF09A95660F771FF6
:1033C000881FDAF7880F9695879597F9089597F9EA
:1033D0009F6780E870E060E008959FEF80EC0895BB
:1033E00000240A94161617061806090608950024E4
:1033F0000A9412161306140605060895092E03945E
:10340000000C11F4882352F0BB0F40F4BF2B11F4D1
:1034100060FF04C06F5F7F4F8F4F9F4F089557FD30
:103420009058440F551F59F05F3F71F04795880F32
:1034300097FB991F61F09F3F79F0879508951216C9
:1034400013061406551FF2CF4695F1DF08C0161675
:1034500017061806991FF1CF869571056105089426
:103460000895E894BB2766277727CB0197F908953D
:103470000BD0C4CFB5DF28F0BADF18F0952309F0E0
:10348000A6CFABCF1124EECFCADFA0F3959FD1F327
:10349000950F50E0551F629FF001729FBB27F00D02
:1034A000B11D639FAA27F00DB11DAA1F649F662757
:1034B000B00DA11D661F829F2227B00DA11D621FA6
:1034C000739FB00DA11D621F839FA00D611D221F60
:1034D000749F3327A00D611D231F849F600D211D44
:1034E000822F762F6A2F11249F5750408AF0E1F0E7
:1034F00088234AF0EE0FFF1FBB1F661F771F881F30
:1035000091505040A9F79E3F510570F060CFAACF6F
:103510005F3FECF3983EDCF3869577956795B7951A
:10352000F795E7959F5FC1F7FE2B880F911D969544
:10353000879597F90895DB018F939F930E940B1B4A
:10354000BF91AF91A29F800D911DA39F900DB29F3F
:10355000900D11240895AA1BBB1B51E107C0AA1F9F
:10356000BB1FA617B70710F0A61BB70B881F991F24
:103570005A95A9F780959095BC01CD01089597FBC8
:10358000072E16F4009407D077FD09D00E94AB1ADD
:1035900007FC05D03EF4909581959F4F0895709556
:1035A00061957F4F0895A1E21A2EAA1BBB1BFD0156
:1035B0000DC0AA1FBB1FEE1FFF1FA217B307E40712
:1035C000F50720F0A21BB30BE40BF50B661F771F6A
:1035D000881F991F1A9469F760957095809590954A
:1035E0009B01AC01BD01CF010895A29FB001B39F23
:1035F000C001A39F700D811D1124911DB29F700DFC
:10360000811D1124911D08950E94F51AB7FF089598
:10361000821B930B08950E94F51AA59F900DB49FED
:10362000900DA49F800D911D11240895B7FF0C9457
:103630000B1B0E940B1B821B930B0895AEE0B0E0A6
:10364000E4E2FBE10C94F81D8C01CA014EE04C83CE
:103650001A83098377FF02C060E070E86150710946
:103660007E836D83A901BC01CE0101960E944A1B95
:103670004D815E8157FD0AC02F813885421753075F
:103680000CF49A01F801E20FF31F10822E96E4E089
:103690000C94141EACE0B0E0E0E5FBE10C94EA1DF4
:1036A0007C016B018A01FC0117821682838181FFF4
:1036B000BDC1CE0101964C01F7019381F60193FD46
:1036C000859193FF81916F01882309F4ABC1853205
:1036D00039F493FD859193FF81916F01853229F42F
:1036E000B70190E00E945A1DE7CF512C312C20E009
:1036F0002032A0F48B3269F030F4803259F08332FA
:1037000069F420612CC08D3239F0803339F42160A6
:1037100026C02260246023C0286021C027FD27C066
:1037200030ED380F3A3078F426FF06C0FAE05F9E9D
:10373000300D1124532E13C08AE0389E300D112411
:10374000332E20620CC08E3221F426FD6BC1206422
:1037500006C08C3611F4206802C0883641F4F601A8
:1037600093FD859193FF81916F018111C1CF982FB6
:103770009F7D9554933028F40C5F1F4FFFE3F9832E
:103780000DC0833631F0833771F0833509F05BC0AB
:1037900022C0F801808189830E5F1F4F4424439427
:1037A000512C540115C03801F2E06F0E711CF80164
:1037B000A080B18026FF03C0652D70E002C06FEFCE
:1037C0007FEFC5012C870E944F1D2C0183012C85A2
:1037D0002F77222E17C03801F2E06F0E711CF8010E
:1037E000A080B18026FF03C0652D70E002C06FEF9E
:1037F0007FEFC5012C870E94441D2C012C85206879
:10380000222E830123FC1BC0832D90E0481659060D
:10381000B0F4B70180E290E00E945A1D3A94F4CFD0
:10382000F50127FC859127FE81915F01B70190E0AA
:103830000E945A1D31103A94F1E04F1A5108411478
:10384000510471F7E5C0843611F0893639F5F80175
:1038500027FF07C060817181828193810C5F1F4FB8
:1038600008C060817181882777FD8095982F0E5F51
:103870001F4F2F76B22E97FF09C0909580957095B7
:1038800061957F4F8F4F9F4F2068B22E2AE030E026
:10389000A4010E948C1DA82EA81844C0853729F4C5
:1038A0002F7EB22E2AE030E025C0F22FF97FBF2E06
:1038B0008F36C1F018F4883579F0B4C0803719F02C
:1038C000883721F0AFC02F2F2061B22EB4FE0DC07B
:1038D0008B2D8460B82E09C024FF0AC09F2F9660EC
:1038E000B92E06C028E030E005C020E130E002C07B
:1038F00020E132E0F801B7FE07C06081718182816A
:1039000093810C5F1F4F06C06081718180E090E061
:103910000E5F1F4FA4010E948C1DA82EA818FB2D1E
:10392000FF77BF2EB6FE0BC02B2D2E7FA51450F4B3
:10393000B4FE0AC0B2FC08C02B2D2E7E05C07A2C26
:103940002B2D03C07A2C01C0752C24FF0DC0FE0165
:10395000EA0DF11D8081803311F4297E09C022FF18
:1039600006C07394739404C0822F867809F0739410
:1039700023FD13C020FF06C05A2C731418F4530CF7
:103980005718732C731468F4B70180E290E02C8709
:103990000E945A1D73942C85F5CF731410F43718B8
:1039A00001C0312C24FF12C0B70180E390E02C87C6
:1039B0000E945A1D2C8522FF17C021FF03C088E5F5
:1039C00090E002C088E790E0B7010CC0822F8678B3
:1039D00059F021FD02C080E201C08BE227FD8DE29B
:1039E000B70190E00E945A1DA51438F4B70180E396
:1039F00090E00E945A1D5A94F7CFAA94F401EA0D60
:103A0000F11D8081B70190E00E945A1DA110F5CFF1
:103A1000332009F451CEB70180E290E00E945A1D94
:103A20003A94F6CFF7018681978102C08FEF9FEF1E
:103A30002C96E2E10C94061EDC01CB01FC01F99905
:103A4000FECF06C0F2BDE1BDF89A319600B40D92EA
:103A500041505040B8F70895DC01CB0103C02D91CF
:103A60000E94371D41505040D0F70895262FF999F4
:103A7000FECF1FBA92BD81BD20BD0FB6F894FA9A51
:103A8000F99A0FBE01960895FC01059061507040AF
:103A90000110D8F7809590958E0F9F1F0895FC0117
:103AA0006150704001900110D8F7809590958E0F6D
:103AB0009F1F08950F931F93CF93DF93182F092F04
:103AC000EB018B8181FD03C08FEF9FEF20C082FF50
:103AD00010C04E815F812C813D81421753077CF4D9
:103AE000E881F9819F012F5F3F4F3983288310833D
:103AF00006C0E885F985812F0995892B29F72E8144
:103B00003F812F5F3F4F3F832E83812F902FDF9187
:103B1000CF911F910F910895FA01AA27283051F1F2
:103B2000203181F1E8946F936E7F6E5F7F4F8F4FEE
:103B30009F4FAF4FB1E03ED0B4E03CD0670F781F4D
:103B4000891F9A1FA11D680F791F8A1F911DA11D32
:103B50006A0F711D811D911DA11D20D009F468946B
:103B60003F912AE0269F11243019305D3193DEF613
:103B7000CF010895462F4770405D4193B3E00FD0C9
:103B8000C9F7F6CF462F4F70405D4A3318F0495DB4
:103B900031FD4052419302D0A9F7EACFB4E0A69597
:103BA0009795879577956795BA95C9F700976105B9
:103BB000710508959B01AC010A2E0694579547950F
:103BC00037952795BA95C9F7620F731F841F951F04
:103BD000A01D08952F923F924F925F926F927F9215
:103BE0008F929F92AF92BF92CF92DF92EF92FF920D
:103BF0000F931F93CF93DF93CDB7DEB7CA1BDB0BB9
:103C00000FB6F894DEBF0FBECDBF09942A8839885D
:103C100048885F846E847D848C849B84AA84B98464
:103C2000C884DF80EE80FD800C811B81AA81B98170
:103C3000CE0FD11D0FB6F894DEBF0FBECDBFED0184
:063C40000895F894FFCF87
:103C460001010B217E02AC01C6021F1C1F1E1F1E96
:063C56001F1F1E1F1E1FB0
:00000001FF
