:100000000C9434000C945B000C940E0F0C945B0069
:100010000C945B000C945B000C945B000C945B00F4
:100020000C945B000C945B000C94BD0B0C945B0077
:100030000C945B000C945B000C94E8060C945B0041
:100040000C945B000C945B000C945B000C945B00C4
:100050000C945B000C945B000C945B000C945B00B4
:100060000C945B000C945B00E7E2F2E085EC98E016
:1000700001C08193EF3FF907E0F3D9F311241FBECC
:10008000CFEFD8E0DEBFCDBF11E0A0E0B1E0EAE302
:10009000F7E202C005900D92AC30B107D9F722E02B
:1000A000ACE0B1E001C01D92A732B207E1F70E94B7
:1000B000750F0C949B130C940000982F92959F70D1
:1000C0008F702AE0929F800D11240895E0E020E0D7
:1000D00030E0FAE06F2F0E94F312492F50E00E2E0D
:1000E00002C0440F551F0A94E2F7242B352BEC5F16
:1000F0008111F0CFC9010895FA01908121E030E02B
:10010000082E01C0220F0A94EAF7662311F0292B6A
:1001100002C02095292320830895FB01208130E02F
:1001200002C0359527958A95E2F7822F8170089550
:1001300081E00FB607FE80E00895CF93DF93CDB73F
:10014000DEB76F970FB6F894DEBF0FBECDBF4FE19D
:1001500050E060E070E0CE0101960E9473138E8D36
:10016000882341F08F8D815091E0833008F090E03A
:10017000892F01C080E080FF0BC08FE1FE01319626
:10018000ACE0B1E001900D928A95E1F781E001C009
:1001900080E06F960FB6F894DEBF0FBECDBFDF9143
:1001A000CF9108958EE091E008956FE070E080E0D7
:1001B00090E0089580912901089540914901242FEC
:1001C00030E0F901EE0FFF1FE20FF31FE55DFE4F78
:1001D0009283818360834F5F4093490108951F9309
:1001E000CF93DF93EC0110E0809149011817D8F408
:1001F000212F30E0F901EE0FFF1FDF01A20FB31F27
:10020000A55DBE4F8C919C81891711F0811109C0A9
:10021000E20FF31FE55DFE4F0180F281E02DCE017C
:1002200009951F5FE1CFDF91CF911F9108958091D4
:100230007A00876080937A0010927C00EDE4F1E010
:1002400080E0DF0112971C9211961C92808312822B
:1002500011828F5F35968930A1F710927801089549
:1002600080914A01893010F010924A018091780102
:10027000813019F0823081F0089580914A0195E033
:10028000989FF0011124E55BFE4F2081211129C0C8
:10029000893020F58F5FF4CF80917A0084FF34C0DD
:1002A000E0914A018091780090E025E0E29FF00122
:1002B0001124E55BFE4F9483838320917900922B78
:1002C0009483838391E0918380917A008F7E8093E1
:1002D0007A009093780180914A018F5F80934A0160
:1002E000089580934A01893078F490917C00907F42
:1002F000982B90937C0080917A00806480937A00A0
:1003000082E08093780108950895882339F081E090
:100310008093780180917A00806805C010927801FE
:1003200080917A008F7780937A00089595E0899F75
:10033000F0011124E55BFE4F6083089595E0899FED
:10034000F0011124E55BFE4F8081882351F081810B
:10035000882339F083819481FB019183808381E03C
:10036000089580E0089595E0899FF0011124E55BF0
:10037000FE4F8181089508952A9A089580E00E9491
:10038000B3062A980895229A2A9A08950E94C301D2
:100390008FE295E70197F1F700C000000895CF9331
:1003A000C62F40E050E06EEB71E080680E94680666
:1003B0004CEB51E060E070E08C2FCF910C9468061C
:1003C00060E188E20C94CF01682F6195660F89E2A5
:1003D0000C94CF01CF92DF92EF92FF920E945512C0
:1003E00020E034E244E752E40E94C1110E94291245
:1003F0006B017C01B7018827992787E00E94CF0114
:1004000099278F2D7E2D6D2D88E00E94CF016C2DB8
:1004100089E0FF90EF90DF90CF900C94CF01CF93C5
:10042000DF9300D000D0CDB7DEB79B01AC0160E018
:1004300078E488EE91E00E942713632F772783E00A
:1004400029833A834B835C830E94CF012981622FE9
:1004500084E00F900F900F900F90DF91CF910C944C
:10046000CF01682F89E30C94CF01682F8AE30C94A5
:10047000CF01CF93BC0180E090E00E94551220E0B4
:1004800034E244E752E40E94C1110E942912C62FAF
:10049000672F85E00E94CF016C2F86E0CF910C94EE
:1004A000CF01882331F06DE58AE50E94CF016CE72A
:1004B00005C065E58AE50E94CF0160E78CE50C94F4
:1004C000CF01CF93C82F692F8CE20E94CF016C2FF0
:1004D0008DE2CF910C94CF01CF93DF93EB0140E0FD
:1004E00050E06EEB71E08F770E9468064CEB51E0B4
:1004F00060E070E0CE01DF91CF910C948B061F93EA
:10050000CF93DF931F92CDB7DEB7162FBE016F5F7B
:100510007F4F0E946C0221E030E002C0220F331FA7
:100520001A95E2F7898190E02823392381E0121699
:1005300013060CF080E00F90DF91CF911F9108958A
:1005400067E088E20C947F02FF920F931F93CF9392
:10055000DF93062FF82EEC011C2F1F19101740F403
:100560000E94A002811104C069910E94CF01F4CFC2
:10057000812FDF91CF911F910F91FF90089566E039
:1005800088E20C947F0263E088E20C947F0262E0D0
:1005900088E20C947F0265E08BE00C947F02882354
:1005A00031F00E94CB02882321F060E203C060E0BA
:1005B00001C060E38FE60C94CF011F93CF93DF93CC
:1005C0001F92CDB7DEB7182FBE016F5F7F4F87E355
:1005D0000E946C0291E0912728E0929FC0011124B3
:1005E0006981677F682B698387E30E94CF010F9041
:1005F000DF91CF911F9108951F93CF93DF931F92A7
:10060000CDB7DEB7182FBE016F5F7F4F87E30E9423
:100610006C0220E1129FC001112469816F7E682B5A
:10062000698387E30E94CF010F90DF91CF911F91E3
:100630000895FF920F931F93CF93DF93062FF82E09
:10064000EC011C2F1F190E94BF02882341F01017D4
:1006500030F4BE0180E00E946C022196F2CF812F1F
:10066000DF91CF911F910F91FF900895CF93DF936A
:100670001F92CDB7DEB7BE016F5F7F4F81E00E9452
:100680006C0289818C71869586950F90DF91CF9150
:1006900008951F93CF93DF931F92CDB7DEB7182F26
:1006A000BE016F5F7F4F81E00E946C0224E0129FC9
:1006B000C00111246981637E682B698381E00E94F7
:1006C000CF010F90DF91CF911F910895CF93DF93CA
:1006D0001F92CDB7DEB7BE016F5F7F4F87E20E94EA
:1006E0006C028981881F8827881F0F90DF91CF9126
:1006F0000895CF92DF92EF92FF920E9424076B0140
:100700007C010E94660381110BC0C701B6010E94E3
:10071000D8086B3071058105910598F380E001C020
:1007200081E0FF90EF90DF90CF9008951F93CF93DB
:10073000DF931F92CDB7DEB7182FBE016F5F7F4FDB
:1007400081E00E946C0269816F7B612B698381E08B
:100750000E94CF010F90DF91CF911F9108951F93B9
:10076000CF93DF931F92CDB7DEB7182FBE016F5F17
:100770007F4F81E00E946C0291E09127698190FB9C
:1007800067F9698381E00E94CF010F90DF91CF91DB
:100790001F9108951F93CF93DF931F92CDB7DEB7BC
:1007A000182FBE016F5F7F4F8DE30E946C02AE0178
:1007B0004F5F5F4F612F80E00E947C0069818DE375
:1007C0000E94CF010F90DF91CF911F9108951F9349
:1007D000CF93DF931F92CDB7DEB7182FBE016F5FA7
:1007E0007F4F87E30E946C0261E0111101C060E05D
:1007F000AE014F5F5F4F87E00E947C00698187E315
:100800000E94CF010F90DF91CF911F9108951F9308
:10081000CF93DF931F92CDB7DEB7182FBE016F5F66
:100820007F4F8CE30E946C0261E0111101C060E017
:10083000AE014F5F5F4F87E00E947C0069818CE3CF
:100840000E94CF010F90DF91CF911F910895CF9318
:10085000DF931F92CDB7DEB7BE016F5F7F4F8DE391
:100860000E946C026981646069838DE30E94CF01FC
:100870000F90DF91CF9108951F93CF93DF931F9235
:10088000CDB7DEB7182FBE016F5F7F4F8DE30E949B
:100890006C0220E1129FC001112469816F70682BE6
:1008A00069838DE30E94CF010F90DF91CF911F915B
:1008B00008951F93CF93DF931F92CDB7DEB7182F04
:1008C000BE016F5F7F4F87E30E946C02612F660F4E
:1008D0008981897F682B698387E30E94CF010F900C
:1008E000DF91CF911F9108951F93CF93DF931F92B4
:1008F000CDB7DEB7182FBE016F5F7F4F82E00E9439
:100900006C0220E2129FC001112469816F79682B6B
:10091000698382E00E94CF010F90DF91CF911F91F8
:1009200008951F93CF93DF931F92CDB7DEB7182F93
:10093000BE016F5F7F4F82E00E946C0228E0129F31
:10094000C00111246981677E682B698382E00E945F
:10095000CF010F90DF91CF911F9108951F93CF93F7
:10096000DF931F92CDB7DEB7182FBE016F5F7F4FA9
:1009700082E00E946C0269816C7F612B698382E056
:100980000E94CF010F90DF91CF911F9108951F9387
:10099000CF93DF931F92CDB7DEB7182FBE016F5FE5
:1009A0007F4F81E10E946C0220E2129FC00111245E
:1009B00069816F71682B698381E10E94CF010F907B
:1009C000DF91CF911F9108951F93CF93DF931F92D3
:1009D000CDB7DEB7182FBE016F5F7F4F81E10E9458
:1009E0006C026981607E612B698381E10E94CF0185
:1009F0000F90DF91CF911F9108951F93CF93DF93B5
:100A00001F92CDB7DEB7182FBE016F5F7F4F83E116
:100A10000E946C02AE014F5F5F4F612F84E00E9425
:100A20007C00698183E10E94CF010F90DF91CF911B
:100A30001F910895CF92DF92EF92FF92CF93DF93B1
:100A40001F92CDB7DEB761E083E20E94CF010E9422
:100A500024076B017C01BE016F5F7F4F83E20E9420
:100A60006C02C701B6010E94D808653F714081053C
:100A7000910568F48981882371F3BE016F5F7F4F10
:100A800084E20E946C0289818695819501C080E094
:100A90000F90DF91CF91FF90EF90DF90CF9008956E
:100AA0001F93CF93DF931F92CDB7DEB7182FBE01F0
:100AB0006F5F7F4F8EE20E946C02812F90E0019762
:100AC000E3E0880F991FEA95E1F76981677C682B5D
:100AD00069838EE20E94CF010F90DF91CF911F9129
:100AE0000895CF93DF931F92CDB7DEB7BE016F5F3E
:100AF0007F4F8EE20E946C0289818695869586954D
:100B000087708F5F0F90DF91CF910895EF92FF92E2
:100B10000F931F93CF93DF9300D0CDB7DEB7182F7D
:100B200069839A830E94710569819A8168131CC048
:100B3000212FE12FF92F8E2F821B861720F4819110
:100B40008111F9CF11C00FE2060FE12EF92E1FE23D
:100B5000101741F0F70161917F01812F0E94CF01B1
:100B60001F5FF6CF81E001C080E00F900F90DF9112
:100B7000CF911F910F91FF90EF9008951F93CF9306
:100B8000DF931F92CDB7DEB7182FBE016F5F7F4F87
:100B90008EE20E946C02AE014F5F5F4F612F87E0D3
:100BA0000E947C0069818EE20E94CF010F90DF914C
:100BB000CF911F9108951F93CF93DF931F92CDB7CD
:100BC000DEB7182FBE016F5F7F4F8EE20E946C026E
:100BD00061E0111101C060E0AE014F5F5F4F86E040
:100BE0000E947C0069818EE20E94CF010F90DF910C
:100BF000CF911F9108951F93CF93DF931F92CDB78D
:100C0000DEB7182FBE016F5F7F4F86E20E946C0235
:100C10006981687F612B86E20E94CF010F90DF918E
:100C2000CF911F9108951F93CF93DF931F92CDB75C
:100C3000DEB7182FBE016F5F7F4F88E10E946C0204
:100C40006981687F612B88E10E94CF010F90DF915D
:100C5000CF911F9108951F93CF93DF931F92CDB72C
:100C6000DEB7182FBE016F5F7F4F88E10E946C02D4
:100C700061E0111101C060E0AE014F5F5F4F87E09E
:100C80000E947C00698188E10E94CF010F90DF9172
:100C9000CF911F9108951F93CF93DF931F92CDB7EC
:100CA000DEB7182FBE016F5F7F4F8BE00E946C0292
:100CB000AE014F5F5F4F612F85E00E947C0069812C
:100CC0008BE00E94CF010F90DF91CF911F9108958B
:100CD0000F931F93CF93DF931F92CDB7DEB78A0197
:100CE0006115710521F08983FB01099589818EBD0C
:100CF0000DB407FEFDCF0115110539F0F8010F9075
:100D0000DF91CF911F910F9109940F90DF91CF91B7
:100D10001F910F9108950F931F93CF93DF938C0131
:100D2000EA016115710511F0FB0109951EBC0DB4B6
:100D300007FEFDCF8EB5F8018083209731F0FE01CC
:100D4000DF91CF911F910F910994DF91CF911F9166
:100D50000F910895882319F08CB5806102C08CB57D
:100D60008F7E8CBD0895813059F038F0823071F05B
:100D70008330A1F48CB58C600EC08CB5837F0BC022
:100D80008CB5877F8CBD8CB5846005C08CB58860C0
:100D90008CBD8CB58B7F8CBD81E0089580E008957B
:100DA000CF93C82F94B19C6294B9249881E08CBDF4
:100DB0000E94AA068C2F0E94B306882329F08CB5C6
:100DC00080648CBD10927A0110927901CF910895C0
:100DD0001F920F920FB60F9211248F939F93AF9390
:100DE000BF938091230290912402A0912502B0919B
:100DF00026020196A11DB11D809323029093240227
:100E0000A0932502B0932602BF91AF919F918F913D
:100E10000F900FBE0F901F90189510922302109202
:100E20002402109225021092260284B5826084BDAD
:100E300085B5836085BD8DE787BDEEE6F0E08081F6
:100E400082608083789408952FB7F894609123028C
:100E50007091240280912502909126022FBF08955F
:100E6000CF93DF93EC010E94960ECE0101960E9473
:100E7000890ECE0102960E947D0ECE0103960E943D
:100E80002B0ECE0104960E94120ECE0105960E94F2
:100E9000F80D81E0DF91CF910895CF93DF93EC01BE
:100EA00061E08B810E944F0E61E08C810E941E0EDA
:100EB00061E08D810E94050E81E0DF91CF91089560
:100EC0009C0183709927892B91F4C90164E670E035
:100ED0000E94FF12892B49F4C90160E971E00E9468
:100EE000FF1221E0892B21F002C021E001C020E0A7
:100EF000822F0895FC012181862F90E0820F911DA1
:100F00006CE070E00E94131381836115710519F084
:100F10008081860F80830895EF92FF921F93CF9375
:100F2000DF931F92CDB7DEB77C01FC019181E92FE1
:100F3000F0E0E150FF4F1081923059F4F7018081C9
:100F400090E08053984F69830E9460076981811106
:100F50001F5FF7012281862F90E0820F911D612F84
:100F600070E00E94131382836115710549F0C70177
:100F70000F90DF91CF911F91FF90EF900C947A0723
:100F80000F90DF91CF911F91FF90EF900895FC019A
:100F90002381862F90E0820F911D68E170E00E940E
:100FA000131383836115710519F0CF010C948C071D
:100FB0000895FC012481862F90E0820F911D6CE33F
:100FC00070E00E94131384836115710519F0CF013D
:100FD0000C94C7070895FC012581862F90E0820FAD
:100FE000911D6CE370E00E941313858361157105F8
:100FF00019F0CF010C94D90708958F929F92AF9268
:10100000BF92CF92DF92EF92FF920F931F93CF93F5
:10101000DF93EC01B8800B2D10E001151105E1F014
:10102000B80161507109882777FD8095982F6B0171
:101030007C0122E0F694E794D794C7942A95D1F7DF
:1010400024E630E040E050E00E942713C21AD30AA1
:101050008FEFC81AD80A02C0C12CD12CEE24D7FCBD
:10106000E094FE2C2B2D30E0ADE6B1E00E94491358
:10107000C60ED71EE81EF91E4A8150E04A0181E0E3
:10108000881A9108B98081E08B1538F0BB2069F18E
:101090004A018EE1880E911C28C0C8018053984FE8
:1010A0000E946007E82FF0E0FB96E80DF91D8B2DFC
:1010B00090E003978530910514F0E756FF4F65E007
:1010C00070E00E941313AC01DC0197FD1196B595F9
:1010D000A7952DE330E00E9458134F01860E971E0E
:1010E00040FF03C08FE1880E911C9401442737FD17
:1010F0004095542F2C0D3D1D4E1D5F1D60E871E580
:1011000081E090E00E94E3124B015C012B8130E012
:10111000A0E1BEE00E9449136B017C012C8130E00C
:10112000ACE3B0E00E944913C60ED71EE81EF91EBC
:101130008D81C80ED11CE11CF11CC80CD91CEA1C05
:10114000FB1CC701B601DF91CF911F910F91FF905A
:10115000EF90DF90CF90BF90AF909F908F900895C9
:10116000FF920F931F93CF93DF9300D000D000D056
:10117000CDB7DEB78C01CE0101960E943007F82E64
:10118000882349F0CE0101960E94FD07F801608393
:101190007183828393838F2D26960FB6F894DEBFDA
:1011A0000FBECDBFDF91CF911F910F91FF9008959A
:1011B000CF92DF92EF92FF920F931F936B017C010E
:1011C0000E9424078B019C010C191D092E093F095F
:1011D0006C157D058E059F0538F4C901B801615075
:1011E00071098109910902C0C901B8011F910F91CC
:1011F000FF90EF90DF90CF900895CF93DF93CDB71E
:10120000DEB7C154D1090FB6F894DEBF0FBECDBF13
:1012100061E0CE0101960E9419036981623410F0E9
:1012200080E027C0CE0102960E94190385E0FE01EE
:101230003196A5E8B1E001900D928A95E1F78CE135
:10124000FE013696AAE8B1E001900D928A95E1F789
:10125000E0919001E43020F7F0E0EE0FFF1FE3583B
:10126000FE4F0190F081E02D3097D1F285E891E0BA
:101270000995CF5BDF4F0FB6F894DEBF0FBECDBF31
:10128000DF91CF9108950E94C60180E00E94CA03B9
:1012900081E00E94AF0380E00E94960383E00E94F9
:1012A0003C0481E00E9449030E94790388E090E0B9
:1012B0000E94610280E00E94130681E00E942B06DA
:1012C00080E00E944B0680E00E94CF0260EC72E159
:1012D00080E090E00E940F0280E00E94740480E0B1
:1012E0000E94910480E00E94AE0488E893E10E948D
:1012F000390260E071EA8CEB93E30E94EA0181E03D
:101300000E94BE0580E00E94DB0586EA0E94E4019F
:1013100086E00E9450050E94D20066E00E94860589
:1013200081E00E9407040E94DA000E9431028FEFE0
:101330000E94350282E00E9459040E94E00181E08F
:101340000E94E70381E00E94FC0281E00E94DD022E
:1013500087E00E94FB0580E00E94FD0483E00E947C
:10136000C7048FE10E94E40480E00E94510281E002
:101370000E9449030E94790383E2E5E8F1E0DF017E
:101380001D928A95E9F781E08093A8010895CF9393
:10139000C091A801C230A9F028F4CC2351F0C1308B
:1013A00059F0A8C0C33009F43FC0C43009F496C056
:1013B000A1C0CF910C9443098091860181118CC00A
:1013C00089C080917C018130A9F018F0833019F137
:1013D00027C00E94C70281110E94270480E00E945A
:1013E000510284E00E9449030E94790381E08093C6
:1013F0007C0116C00E94C702882391F081E00E9400
:1014000049030E9479030E94FD0884E00E94490379
:101410000E94790305C00E946603811110927C012D
:1014200082E08093A80166C080917B01813059F0F1
:1014300028F0823019F18330D9F14EC081E00E944A
:10144000490381E018C00E946603882309F444C060
:1014500065E085E891E00E94A40260919101685FD7
:101460008AE891E00E94A40283E00E94490381E09F
:101470000E94510282E080937B012EC00E94C30231
:10148000882351F180918801882349F084E00E94EB
:10149000490380E00E945102C0937B011DC0E0918E
:1014A000A601F091A701309761F081E0099509C08C
:1014B0000E94C702882381F00E94FD0881E00E94FB
:1014C000490383E2E5E8F1E0DF011D928A95E9F73F
:1014D00010927B0181E0A5CF83E0A3CF0E94660339
:1014E000882341F00E943603882321F080E0CF91C9
:1014F0000C944903CF910895DF92EF92FF920F93DE
:101500001F93CF93DF93D82EE62EEA018901FF24A3
:10151000F3948F81853108F0F12C8091A8018130FE
:1015200029F40E941A0591E0863A0CF090E090FFB1
:101530002BC0FF2049F1D09286010E94DA008093EF
:101540008701E0928801109289018F819DE0980FB8
:101550009093850196E0FE01AAE8B1E001900D921A
:101560009A95E1F79E8190939001809391014F812C
:1015700050E0BE01685F7F4F82E991E00E946A13EC
:101580001093A7010093A6018F2DDF91CF911F919A
:101590000F91FF90EF90DF900895FC0184818130DE
:1015A00019F0823051F008958091A801833019F428
:1015B0000E94C709F9CF80E001C081E00E94490381
:1015C0000C947903BF92CF92DF92EF92FF920F9328
:1015D0001F93CF93DF9300D000D0CDB7DEB70FE1DC
:1015E00010E0B12CC12CD12C760144E050E0B801C0
:1015F000CE0101960E94731389819A81AB81BC81CF
:10160000C816D906EA06FB0650F0B092AA012FEFE1
:10161000C21AD20AE20AF20AC092A90110C0B39417
:10162000065F1F4F20E5B21619F06C017D01DDCF7A
:101630001092AA010196A11DB11D8093A9010F90DE
:101640000F900F900F90DF91CF911F910F91FF900E
:10165000EF90DF90CF90BF9008950F931F93CF939B
:10166000DF93CDB7DEB72A970FB6F894DEBF0FBE73
:10167000CDBF182F062FCE0105960E94B0084091CD
:10168000A90150E060E070E049835A836B837C835A
:1016900019870A876091AA018AE0689FB001112426
:1016A000615E7F4F4AE050E0CE0101960E948313B5
:1016B0008091AA0190E0019660E273E00E94FF121F
:1016C0006AE070E00E94FF126093AA018091A90174
:1016D0008F5F8093A9012A960FB6F894DEBF0FBEE4
:1016E000CDBFDF91CF911F910F910895CF93C82F58
:1016F0000E9424076093AB017093AC018093AD010D
:101700009093AE01C33018F4C13018F004C0C33058
:1017100041F460E001C061E080E00E94A80DC09348
:10172000AF01CF910895FC018481823059F018F403
:10173000813031F00895833039F0843019F0089504
:1017400083E003C080E001C082E00C94760B10922D
:101750000B0210920C0210920D0210920E02E1E8A0
:10176000F0E080818260808380818F778083EFE6E4
:10177000F0E080818062808308951F920F920FB6FF
:101780000F9211242F933F938F939F93AF93BF9307
:10179000EF93FF9380910B0290910C02A0910D02A8
:1017A000B0910E028B97A105B10530F580910B0227
:1017B00090910C02A0910D02B0910E022091860032
:1017C00030918700FC01EE0FFF1FEB54FE4F318379
:1017D000208380910B0290910C02A0910D02B09198
:1017E0000E020196A11DB11D80930B0290930C0275
:1017F000A0930D02B0930E02FF91EF91BF91AF91B4
:101800009F918F913F912F910F900FBE0F901F903E
:101810001895209A289A82E080931C020E9424073F
:1018200060930F0270931002809311029093120242
:1018300010921B0208958F929F92AF92BF92CF9207
:10184000DF92EF92FF920F931F93CF93DF9300D01D
:1018500000D01F92CDB7DEB780911C028330B9F063
:10186000843009F49AC0823009F044C160910F02BB
:101870007091100280911102909112020E94D8087A
:10188000693E73408105910508F434C130C18091EF
:10189000B401813091F018F0823089F17AC00E9451
:1018A00024076093B0017093B1018093B2019093CB
:1018B000B301209A289881E01FC06091B001709117
:1018C000B1018091B2019091B3010E94D8086230B9
:1018D00071058105910508F45CC0289A20980E9442
:1018E00024076093B0017093B1018093B20190938B
:1018F000B3010E94A70B82E08093B4014AC080919B
:101900000B0290910C02A0910D02B0910E028B97E8
:10191000A105B10591F480916F008F7D80936F00D8
:1019200080918100887F80938100109285001092C1
:1019300084001092B40114E001C013E06091B00182
:101940007091B1018091B2019091B3010E94D808C9
:101950006730710581059105F0F080916F008F7DF2
:1019600080936F0080918100887F80938100109226
:101970008500109284001092B4010E9424076093A5
:101980000F0270931002809311029093120282E072
:10199000AFC083E0ADC0812FABC0FE01319685E0C2
:1019A000DF011D928A95E9F76091B9017091BA0142
:1019B00010E0EE24E394F12C012F000F000F000F34
:1019C00087E090E0065F202F281B30E0220F331FB6
:1019D000A9014B545E4FDA014D915C91461B570BA8
:1019E0004536510548F06081A701082E01C0440F1B
:1019F0000A94EAF7642B60832B543E4FD9016D9112
:101A00007C91019700F71F5F31961530A9F6898107
:101A100090E08A80912CAB80B12C0C8110E02D815C
:101A200030E0BC01680D791D6A0D7B1D600F711FD0
:101A300077272617370709F04EC0782F66278827A3
:101A400077FD8095982F0E9457126B017C01B4019D
:101A5000882777FD8095982F0E9457129B01AC0133
:101A6000C701B6010E945D1120E030E040E251E480
:101A70000E94C111609313027093140280931502A7
:101A8000909316027A2D6627882777FD8095982FE8
:101A90000E9457126B017C01B801882777FD809561
:101AA000982F0E9457129B01AC01C701B6010E94FA
:101AB0005D1120E030E040E251E40E94C1116093EA
:101AC0001702709318028093190290931A0281E012
:101AD00080931B0202C010921B020E942407609395
:101AE0000F0270931002809311029093120281E012
:101AF00080931C020F900F900F900F900F90DF912A
:101B0000CF911F910F91FF90EF90DF90CF90BF90FA
:101B1000AF909F908F90089529E0E3E1F2E0DC011F
:101B200001900D922A95E1F710921B020895809181
:101B30001B02089580911C02813019F483E0809388
:101B40001C020895529A5A9A3E9A4698089508950A
:101B5000662311F05D9A08955D9808955C9A089542
:101B6000CF93DF93D82FC62F40E050E06EEE7DE09C
:101B700082E10E94680640E050E060E070E08D2F56
:101B80000E9468064EEA5DE060E070E08C2FDF9115
:101B9000CF910C9468061F93CF93DF931F92CDB71C
:101BA000DEB7182F40E050E06EEE7DE083E10E944A
:101BB000680640E050E060E070E0812F0E94680617
:101BC0004EEA5DE060E070E0CE0101960E948B0677
:101BD00089810F90DF91CF911F91089580E00E943D
:101BE000B3065C980895549A5C9A53985B9A08954A
:101BF000CF93DF93EC0181E00E94CB0D8F770E94A1
:101C00005D008883DF91CF910895CF93611102C069
:101C1000CCE001C0C3E10E946600682F8C2FCF91F9
:101C20000C94B00DCF93DF93EC0182E00E94CB0DBA
:101C30000E945D008883DF91CF910895CF93611159
:101C400002C0CDE001C0C4E10E946600682F8C2F65
:101C5000CF910C94B00D0F931F93CF93DF931F92EE
:101C6000CDB7DEB78C0183E00E94CB0D8983BE0126
:101C70006F5F7F4F86E00E948D009981811102C0C5
:101C80009F7301C09F71998389810E945D00F80153
:101C900080830F90DF91CF911F910F910895FF9254
:101CA0000F931F93CF93DF931F92CDB7DEB7082F0B
:101CB000611102C01EE001C015E1812F0E94CB0D11
:101CC0008983BE016F5F7F4F86E00E948D0069812E
:101CD000811102C0607C01C0607EF62E802F0E94C0
:101CE00066006F2D682B812F0E94B00D0F90DF9141
:101CF000CF911F910F91FF900895CF93DF93EC0147
:101D000085E00E94CB0D0E945D008883DF91CF911A
:101D10000895CF93DF93EC0186E00E94CB0D8F7185
:101D20000E945D008883DF91CF910895CF93DF9368
:101D3000EC0187E00E94CB0D0E945D008883DF915B
:101D4000CF910895CF93C82F81E00E94CB0D682FCB
:101D5000CC2311F0606801C06F7781E0CF910C94C3
:101D6000B00D1F93CF93DF931F92CDB7DEB7182F1F
:101D700088E069830E94CB0D698170E09B012C5F34
:101D80003F4F61E070E0022E01C0660F0A94EAF74F
:101D9000112311F0682B02C06095682388E00F9032
:101DA000DF91CF911F910C94B00DCF93DF9300D0B2
:101DB000CDB7DEB7682F88E06A830E94CB0D898398
:101DC000AE014F5F5F4F6A8186E00E947C006981AF
:101DD00088E00E94B00D0F900F90DF91CF91089591
:101DE0000E94F30D80E00E94D50E81E00C94A20EBB
:101DF000CF93811102C0CFE001C0C6E18C2F0E94B9
:101E0000CB0D682F677F8C2FCF910C94B00DE9E636
:101E1000F0E08081837F8083E99A08951F920F927A
:101E20000FB60F9211240F900FBE0F901F901895B0
:101E300087B18D7E87B9419A449AE4E6F0E080EC60
:101E4000808380818260808361E087E00C949601CA
:101E50000E949800882371F00E94070F83B7817F4A
:101E6000846083BF83B7816083BF889583B78E7F8B
:101E700083BFE998089586B18695817091E089279E
:101E8000089586B18295817091E089270895CF9356
:101E9000DF9300D0CDB7DEB7BE016F5F7F4F87E025
:101EA0000E949E0129813A81A4EEBCE00E94491360
:101EB0002AE096958795779567952A95D1F70E94A0
:101EC00055122BE93CE642E75FE30E94C1110E94F4
:101ED00029120F900F90DF91CF91089587E00C9415
:101EE000B30181E0809321020895CF93DF93CDB7B2
:101EF000DEB72C970FB6F894DEBF0FBECDBF64B728
:101F000014BE88E10FB6F8948093600010926000D0
:101F10000FBE6C870E94C3010E94F30D0E94A20DA8
:101F20000E94BB010E9417010E940D0780E00E94E1
:101F3000D00681E00E9485010E94090C0E94180FC2
:101F40000E94A70D0E949D000E94F00E0E94E20ACE
:101F50006C8581E00E942D0B0E9418110E9443099C
:101F60000E94451062E08AE591E10E94DD0062E096
:101F70008CEF90E10E94DD0060E083E99BE00E942D
:101F8000DD0060E08DEC9AE00E94DD0068E081E712
:101F90009FE00E94DD0061E080E00E94B10E0E949F
:101FA000240760931D0270931E0280931F0290937A
:101FB000200201E012E00E9430010E9449100E94BC
:101FC0001B0C0E9419110E94C7090E943B0F81112E
:101FD000F2CF80912102811113C060911D02709196
:101FE0001E0280911F02909120020E94D80821E0D9
:101FF000693B7B408105910508F420E0822F01C0F8
:1020000081E080FFD8CFCE0101960E9430070E9468
:10201000D500CE0101960E94EB07CE0101960E94E9
:102020004D0761E081E00E94B10E0E9424076F839A
:10203000788789879A870B87CE0107960E94EF00E1
:102040000E94280F61E080E00E94B10E81E00E94B2
:10205000F80E0E94240760931D0270931E02809365
:102060001F0290932002109221020E9424076F8386
:10207000788789879A871B87CE0107960E94EF0091
:10208000CE0101960E94300796CF81E08093220214
:1020900008951F93CF93DF9300D000D01F92CDB748
:1020A000DEB710912202133009F454C028F4113025
:1020B00051F0123039F197C0143009F45DC0153079
:1020C00009F46BC090C00E94410F81111FC00E9493
:1020D0006E0F882309F487C00E94470F6839784043
:1020E0008105910508F07FC00E94240769837A83E7
:1020F0008B839C8387E08D83CE0101960E94EF0045
:1021000082E06FC00E94410F882349F00E9424079B
:1021100069837A838B839C8383E08D8327C00E94AD
:102120006E0F882309F45FC00E94470F6C3677401A
:102130008105910508F057C00E94240769837A83BE
:102140008B839C8386E08D83CE0101960E94EF00F5
:1021500083E047C00E94410F882309F444C00E94D5
:10216000240769837A838B839C831D83CE01019628
:102170000E94EF0084E035C00E94410F811133C0FE
:102180000E94240769837A838B839C831D83CE01FD
:1021900001960E94EF0085E024C00E94410F882331
:1021A00079F00E94240769837A838B839C8383E080
:1021B0008D83CE0101960E94EF0084E0809322027D
:1021C0000E943B0F81110FC00E94240769837A830C
:1021D0008B839C8385E08D83CE0101960E94EF0066
:1021E00081E0809322020F900F900F900F900F903C
:1021F000DF91CF911F9108950895CF93DF9300D081
:1022000000D01F92CDB7DEB70E94240769837A837E
:102210008B839C8388E08D83CE0101960E94EF0022
:102220000F900F900F900F900F90DF91CF91089526
:102230000895CF93DF93CDB7DEB7AB970FB6F89481
:10224000DEBF0FBECDBF0E94970D882351F1CE0196
:102250004D960E948C0DCE0186960E94300782E03A
:102260008F838AE0888786E0FE01B696DE011196AC
:1022700001900D928A95E1F789E0FE017D96DE01DD
:10228000199601900D928A95E1F781E00E94760BF4
:102290002DEF30E1AE014F5F5F4F60E08AEA0E94B0
:1022A0007C0AAB960FB6F894DEBF0FBECDBFDF91B0
:1022B000CF9108950C949A0D5058BB27AA270ED0A1
:1022C00048C139D130F03ED120F031F49F3F11F4B4
:1022D0001EF42EC10EF4E095E7FB24C1E92F4AD18C
:1022E00080F3BA17620773078407950718F071F433
:1022F0009EF562C10EF4E0950B2EBA2FA02D0B01B6
:10230000B90190010C01CA01A0011124FF27591B3A
:1023100099F0593F50F4503E68F11A16F040A22F40
:10232000232F342F4427585FF3CF469537952795B1
:10233000A795F0405395C9F77EF41F16BA0B620BB0
:10234000730B840BBAF09150A1F0FF0FBB1F661FF7
:10235000771F881FC2F70EC0BA0F621F731F841F3A
:1023600048F4879577956795B795F7959E3F08F060
:10237000B3CF9395880F08F09927EE0F979587951F
:1023800008950CD0E6C0DED040F0D5D030F021F476
:102390005F3F19F0C7C0511110C1CAC0EBD098F30C
:1023A0009923C9F35523B1F3951B550BBB27AA27D6
:1023B00062177307840738F09F5F5F4F220F331F48
:1023C000441FAA1FA9F333D00E2E3AF0E0E830D014
:1023D00091505040E695001CCAF729D0FE2F27D017
:1023E000660F771F881FBB1F261737074807AB07E5
:1023F000B0E809F0BB0B802DBF01FF2793585F4F5A
:102400002AF09E3F510568F08DC0D7C05F3FECF3C6
:10241000983EDCF3869577956795B795F7959F5F1E
:10242000C9F7880F911D9695879597F90895E1E072
:10243000660F771F881FBB1F621773078407BA07D1
:1024400020F0621B730B840BBA0BEE1F88F7E0952C
:10245000089598D088F09F5790F0B92F9927B751D9
:10246000A0F0D1F0660F771F881F991F1AF0BA9558
:10247000C9F712C0B13081F09FD0B1E008959CC07F
:10248000672F782F8827B85F39F0B93FCCF386954E
:1024900077956795B395D9F73EF4909580957095AB
:1024A00061957F4F8F4F9F4F0895E89409C097FB28
:1024B0003EF490958095709561957F4F8F4F9F4F1B
:1024C0009923A9F0F92F96E9BB279395F69587955F
:1024D00077956795B795F111F8CFFAF4BB0F11F422
:1024E00060FF1BC06F5F7F4F8F4F9F4F16C08823C9
:1024F00011F096E911C0772321F09EE8872F762FFF
:1025000005C0662371F096E8862F70E060E02AF03F
:102510009A95660F771F881FDAF7880F969587952B
:1025200097F9089597F99F6780E870E060E0089553
:102530009FEF80EC089500240A94161617061806DB
:102540000906089500240A941216130614060506B7
:102550000895092E0394000C11F4882352F0BB0F48
:1025600040F4BF2B11F460FF04C06F5F7F4F8F4FAB
:102570009F4F089557FD9058440F551F59F05F3FE6
:1025800071F04795880F97FB991F61F09F3F79F095
:1025900087950895121613061406551FF2CF469517
:1025A000F1DF08C0161617061806991FF1CF869599
:1025B0007105610508940895E894BB27662777277D
:1025C000CB0197F90895DB018F939F930E945F13CE
:1025D000BF91AF91A29F800D911DA39F900DB29FBF
:1025E000900D11240895991B79E004C0991F961746
:1025F00008F0961B881F7A95C9F780950895AA1B45
:10260000BB1B51E107C0AA1FBB1FA617B70710F0DD
:10261000A61BB70B881F991F5A95A9F7809590950F
:10262000BC01CD01089597FB072E16F4009407D046
:1026300077FD09D00E94FF1207FC05D03EF490956B
:1026400081959F4F0895709561957F4F0895A1E200
:102650001A2EAA1BBB1BFD010DC0AA1FBB1FEE1F1C
:10266000FF1FA217B307E407F50720F0A21BB30B67
:10267000E40BF50B661F771F881F991F1A9469F7E3
:1026800060957095809590959B01AC01BD01CF013F
:102690000895A29FB001B39FC001A39F700D811D3B
:1026A0001124911DB29F700D811D1124911D08955B
:1026B0000E944913B7FF0895821B930B08950E944F
:1026C0004913A59F900DB49F900DA49F800D911D5F
:1026D00011240895FB01DC0102C001900D924150CC
:1026E0005040D8F70895DC01CB01FC01F999FECFE9
:1026F00006C0F2BDE1BDF89A319600B40D9241508A
:102700005040B8F70895DC01CB0103C02D910E9421
:102710008E1341505040D0F70895262FF999FECFDF
:102720001FBA92BD81BD20BD0FB6F894FA9AF99AEE
:0A2730000FBE01960895F894FFCF44
:0C273A001F1C1F1E1F1E1F1F1E1F1E1F26
:00000001FF
